{
  "_format": "hh-sol-artifact-1",
  "contractName": "FarmToken",
  "sourceName": "contracts/FarmToken.sol",
  "abi": [
    {
      "inputs": [
        {
          "internalType": "address",
          "name": "_token",
          "type": "address"
        }
      ],
      "stateMutability": "nonpayable",
      "type": "constructor"
    },
    {
      "anonymous": false,
      "inputs": [
        {
          "indexed": true,
          "internalType": "address",
          "name": "owner",
          "type": "address"
        },
        {
          "indexed": true,
          "internalType": "address",
          "name": "spender",
          "type": "address"
        },
        {
          "indexed": false,
          "internalType": "uint256",
          "name": "value",
          "type": "uint256"
        }
      ],
      "name": "Approval",
      "type": "event"
    },
    {
      "anonymous": false,
      "inputs": [
        {
          "indexed": true,
          "internalType": "address",
          "name": "from",
          "type": "address"
        },
        {
          "indexed": true,
          "internalType": "address",
          "name": "to",
          "type": "address"
        },
        {
          "indexed": false,
          "internalType": "uint256",
          "name": "value",
          "type": "uint256"
        }
      ],
      "name": "Transfer",
      "type": "event"
    },
    {
      "inputs": [
        {
          "internalType": "address",
          "name": "owner",
          "type": "address"
        },
        {
          "internalType": "address",
          "name": "spender",
          "type": "address"
        }
      ],
      "name": "allowance",
      "outputs": [
        {
          "internalType": "uint256",
          "name": "",
          "type": "uint256"
        }
      ],
      "stateMutability": "view",
      "type": "function"
    },
    {
      "inputs": [
        {
          "internalType": "address",
          "name": "spender",
          "type": "address"
        },
        {
          "internalType": "uint256",
          "name": "amount",
          "type": "uint256"
        }
      ],
      "name": "approve",
      "outputs": [
        {
          "internalType": "bool",
          "name": "",
          "type": "bool"
        }
      ],
      "stateMutability": "nonpayable",
      "type": "function"
    },
    {
      "inputs": [],
      "name": "balance",
      "outputs": [
        {
          "internalType": "uint256",
          "name": "",
          "type": "uint256"
        }
      ],
      "stateMutability": "view",
      "type": "function"
    },
    {
      "inputs": [
        {
          "internalType": "address",
          "name": "account",
          "type": "address"
        }
      ],
      "name": "balanceOf",
      "outputs": [
        {
          "internalType": "uint256",
          "name": "",
          "type": "uint256"
        }
      ],
      "stateMutability": "view",
      "type": "function"
    },
    {
      "inputs": [],
      "name": "decimals",
      "outputs": [
        {
          "internalType": "uint8",
          "name": "",
          "type": "uint8"
        }
      ],
      "stateMutability": "view",
      "type": "function"
    },
    {
      "inputs": [
        {
          "internalType": "address",
          "name": "spender",
          "type": "address"
        },
        {
          "internalType": "uint256",
          "name": "subtractedValue",
          "type": "uint256"
        }
      ],
      "name": "decreaseAllowance",
      "outputs": [
        {
          "internalType": "bool",
          "name": "",
          "type": "bool"
        }
      ],
      "stateMutability": "nonpayable",
      "type": "function"
    },
    {
      "inputs": [
        {
          "internalType": "uint256",
          "name": "_amount",
          "type": "uint256"
        }
      ],
      "name": "deposit",
      "outputs": [],
      "stateMutability": "payable",
      "type": "function"
    },
    {
      "inputs": [
        {
          "internalType": "address",
          "name": "",
          "type": "address"
        }
      ],
      "name": "depositStart",
      "outputs": [
        {
          "internalType": "uint256",
          "name": "",
          "type": "uint256"
        }
      ],
      "stateMutability": "view",
      "type": "function"
    },
    {
      "inputs": [
        {
          "internalType": "address",
          "name": "spender",
          "type": "address"
        },
        {
          "internalType": "uint256",
          "name": "addedValue",
          "type": "uint256"
        }
      ],
      "name": "increaseAllowance",
      "outputs": [
        {
          "internalType": "bool",
          "name": "",
          "type": "bool"
        }
      ],
      "stateMutability": "nonpayable",
      "type": "function"
    },
    {
      "inputs": [],
      "name": "name",
      "outputs": [
        {
          "internalType": "string",
          "name": "",
          "type": "string"
        }
      ],
      "stateMutability": "view",
      "type": "function"
    },
    {
      "inputs": [],
      "name": "ownerDepositBalance",
      "outputs": [
        {
          "internalType": "uint256",
          "name": "",
          "type": "uint256"
        }
      ],
      "stateMutability": "view",
      "type": "function"
    },
    {
      "inputs": [],
      "name": "ownerInterestBalance",
      "outputs": [
        {
          "internalType": "uint256",
          "name": "",
          "type": "uint256"
        }
      ],
      "stateMutability": "view",
      "type": "function"
    },
    {
      "inputs": [],
      "name": "symbol",
      "outputs": [
        {
          "internalType": "string",
          "name": "",
          "type": "string"
        }
      ],
      "stateMutability": "view",
      "type": "function"
    },
    {
      "inputs": [],
      "name": "token",
      "outputs": [
        {
          "internalType": "contract IERC20",
          "name": "",
          "type": "address"
        }
      ],
      "stateMutability": "view",
      "type": "function"
    },
    {
      "inputs": [
        {
          "internalType": "address",
          "name": "",
          "type": "address"
        }
      ],
      "name": "tokenBalanceOf",
      "outputs": [
        {
          "internalType": "uint256",
          "name": "",
          "type": "uint256"
        }
      ],
      "stateMutability": "view",
      "type": "function"
    },
    {
      "inputs": [],
      "name": "totalSupply",
      "outputs": [
        {
          "internalType": "uint256",
          "name": "",
          "type": "uint256"
        }
      ],
      "stateMutability": "view",
      "type": "function"
    },
    {
      "inputs": [
        {
          "internalType": "address",
          "name": "recipient",
          "type": "address"
        },
        {
          "internalType": "uint256",
          "name": "amount",
          "type": "uint256"
        }
      ],
      "name": "transfer",
      "outputs": [
        {
          "internalType": "bool",
          "name": "",
          "type": "bool"
        }
      ],
      "stateMutability": "nonpayable",
      "type": "function"
    },
    {
      "inputs": [
        {
          "internalType": "address",
          "name": "sender",
          "type": "address"
        },
        {
          "internalType": "address",
          "name": "recipient",
          "type": "address"
        },
        {
          "internalType": "uint256",
          "name": "amount",
          "type": "uint256"
        }
      ],
      "name": "transferFrom",
      "outputs": [
        {
          "internalType": "bool",
          "name": "",
          "type": "bool"
        }
      ],
      "stateMutability": "nonpayable",
      "type": "function"
    },
    {
      "inputs": [
        {
          "internalType": "uint256",
          "name": "_amount",
          "type": "uint256"
        }
      ],
      "name": "withdraw",
      "outputs": [],
      "stateMutability": "nonpayable",
      "type": "function"
    }
  ],
  "bytecode": "0x60806040523480156200001157600080fd5b50604051620029a8380380620029a88339818101604052810190620000379190620001e6565b6040518060400160405280600981526020017f4661726d546f6b656e00000000000000000000000000000000000000000000008152506040518060400160405280600381526020017f46524d00000000000000000000000000000000000000000000000000000000008152508160039080519060200190620000bb9291906200011f565b508060049080519060200190620000d49291906200011f565b50505080600560006101000a81548173ffffffffffffffffffffffffffffffffffffffff021916908373ffffffffffffffffffffffffffffffffffffffff16021790555050620002c5565b8280546200012d9062000246565b90600052602060002090601f0160209004810192826200015157600085556200019d565b82601f106200016c57805160ff19168380011785556200019d565b828001600101855582156200019d579182015b828111156200019c5782518255916020019190600101906200017f565b5b509050620001ac9190620001b0565b5090565b5b80821115620001cb576000816000905550600101620001b1565b5090565b600081519050620001e081620002ab565b92915050565b600060208284031215620001f957600080fd5b60006200020984828501620001cf565b91505092915050565b60006200021f8262000226565b9050919050565b600073ffffffffffffffffffffffffffffffffffffffff82169050919050565b600060028204905060018216806200025f57607f821691505b602082108114156200027657620002756200027c565b5b50919050565b7f4e487b7100000000000000000000000000000000000000000000000000000000600052602260045260246000fd5b620002b68162000212565b8114620002c257600080fd5b50565b6126d380620002d56000396000f3fe6080604052600436106101145760003560e01c806395d89b41116100a0578063b6b55f2511610064578063b6b55f25146103dd578063dd62ed3e146103f9578063e42c08f214610436578063fc0c546a14610473578063ff87930a1461049e57610114565b806395d89b41146102e2578063a04588ed1461030d578063a457c2d714610338578063a9059cbb14610375578063b69ef8a8146103b257610114565b80632e1a7d4d116100e75780632e1a7d4d146101e9578063313ce56714610212578063395093511461023d5780634be9f95e1461027a57806370a08231146102a557610114565b806306fdde0314610119578063095ea7b31461014457806318160ddd1461018157806323b872dd146101ac575b600080fd5b34801561012557600080fd5b5061012e6104db565b60405161013b9190611e32565b60405180910390f35b34801561015057600080fd5b5061016b60048036038101906101669190611a37565b61056d565b6040516101789190611dfc565b60405180910390f35b34801561018d57600080fd5b5061019661058b565b6040516101a39190611ff4565b60405180910390f35b3480156101b857600080fd5b506101d360048036038101906101ce91906119e8565b610595565b6040516101e09190611dfc565b60405180910390f35b3480156101f557600080fd5b50610210600480360381019061020b9190611a9c565b61068d565b005b34801561021e57600080fd5b50610227610903565b604051610234919061200f565b60405180910390f35b34801561024957600080fd5b50610264600480360381019061025f9190611a37565b61090c565b6040516102719190611dfc565b60405180910390f35b34801561028657600080fd5b5061028f6109b8565b60405161029c9190611ff4565b60405180910390f35b3480156102b157600080fd5b506102cc60048036038101906102c79190611983565b610a86565b6040516102d99190611ff4565b60405180910390f35b3480156102ee57600080fd5b506102f7610ace565b6040516103049190611e32565b60405180910390f35b34801561031957600080fd5b50610322610b60565b60405161032f9190611ff4565b60405180910390f35b34801561034457600080fd5b5061035f600480360381019061035a9190611a37565b610bac565b60405161036c9190611dfc565b60405180910390f35b34801561038157600080fd5b5061039c60048036038101906103979190611a37565b610c97565b6040516103a99190611dfc565b60405180910390f35b3480156103be57600080fd5b506103c7610cb5565b6040516103d49190611ff4565b60405180910390f35b6103f760048036038101906103f29190611a9c565b610d67565b005b34801561040557600080fd5b50610420600480360381019061041b91906119ac565b610f18565b60405161042d9190611ff4565b60405180910390f35b34801561044257600080fd5b5061045d60048036038101906104589190611983565b610f9f565b60405161046a9190611ff4565b60405180910390f35b34801561047f57600080fd5b50610488610fb7565b6040516104959190611e17565b60405180910390f35b3480156104aa57600080fd5b506104c560048036038101906104c09190611983565b610fdd565b6040516104d29190611ff4565b60405180910390f35b6060600380546104ea9061221d565b80601f01602080910402602001604051908101604052809291908181526020018280546105169061221d565b80156105635780601f1061053857610100808354040283529160200191610563565b820191906000526020600020905b81548152906001019060200180831161054657829003601f168201915b5050505050905090565b600061058161057a610ff5565b8484610ffd565b6001905092915050565b6000600254905090565b60006105a28484846111c8565b6000600160008673ffffffffffffffffffffffffffffffffffffffff1673ffffffffffffffffffffffffffffffffffffffff16815260200190815260200160002060006105ed610ff5565b73ffffffffffffffffffffffffffffffffffffffff1673ffffffffffffffffffffffffffffffffffffffff1681526020019081526020016000205490508281101561066d576040517f08c379a000000000000000000000000000000000000000000000000000000000815260040161066490611ed4565b60405180910390fd5b61068185610679610ff5565b858403610ffd565b60019150509392505050565b600660003373ffffffffffffffffffffffffffffffffffffffff1673ffffffffffffffffffffffffffffffffffffffff1681526020019081526020016000205481111561070f576040517f08c379a000000000000000000000000000000000000000000000000000000000815260040161070690611f54565b60405180910390fd5b6000600760003373ffffffffffffffffffffffffffffffffffffffff1673ffffffffffffffffffffffffffffffffffffffff168152602001908152602001600020544261075c919061213d565b90506000662386f26fc10000600660003373ffffffffffffffffffffffffffffffffffffffff1673ffffffffffffffffffffffffffffffffffffffff168152602001908152602001600020546107b291906120b2565b63037a32f96107c191906120e3565b9050600082826107d191906120e3565b90506107dd3382611449565b61082a3385600560009054906101000a900473ffffffffffffffffffffffffffffffffffffffff1673ffffffffffffffffffffffffffffffffffffffff166115a99092919063ffffffff16565b83600660003373ffffffffffffffffffffffffffffffffffffffff1673ffffffffffffffffffffffffffffffffffffffff16815260200190815260200160002054610875919061213d565b600660003373ffffffffffffffffffffffffffffffffffffffff1673ffffffffffffffffffffffffffffffffffffffff168152602001908152602001600020819055506000600760003373ffffffffffffffffffffffffffffffffffffffff1673ffffffffffffffffffffffffffffffffffffffff1681526020019081526020016000208190555050505050565b60006012905090565b60006109ae610919610ff5565b848460016000610927610ff5565b73ffffffffffffffffffffffffffffffffffffffff1673ffffffffffffffffffffffffffffffffffffffff16815260200190815260200160002060008873ffffffffffffffffffffffffffffffffffffffff1673ffffffffffffffffffffffffffffffffffffffff168152602001908152602001600020546109a9919061205c565b610ffd565b6001905092915050565b600080600760003373ffffffffffffffffffffffffffffffffffffffff1673ffffffffffffffffffffffffffffffffffffffff1681526020019081526020016000205442610a06919061213d565b90506000662386f26fc10000600660003373ffffffffffffffffffffffffffffffffffffffff1673ffffffffffffffffffffffffffffffffffffffff16815260200190815260200160002054610a5c91906120b2565b63037a32f9610a6b91906120e3565b905060008282610a7b91906120e3565b905080935050505090565b60008060008373ffffffffffffffffffffffffffffffffffffffff1673ffffffffffffffffffffffffffffffffffffffff168152602001908152602001600020549050919050565b606060048054610add9061221d565b80601f0160208091040260200160405190810160405280929190818152602001828054610b099061221d565b8015610b565780601f10610b2b57610100808354040283529160200191610b56565b820191906000526020600020905b815481529060010190602001808311610b3957829003601f168201915b5050505050905090565b600080600660003373ffffffffffffffffffffffffffffffffffffffff1673ffffffffffffffffffffffffffffffffffffffff1681526020019081526020016000205490508091505090565b60008060016000610bbb610ff5565b73ffffffffffffffffffffffffffffffffffffffff1673ffffffffffffffffffffffffffffffffffffffff16815260200190815260200160002060008573ffffffffffffffffffffffffffffffffffffffff1673ffffffffffffffffffffffffffffffffffffffff16815260200190815260200160002054905082811015610c78576040517f08c379a0000000000000000000000000000000000000000000000000000000008152600401610c6f90611fb4565b60405180910390fd5b610c8c610c83610ff5565b85858403610ffd565b600191505092915050565b6000610cab610ca4610ff5565b84846111c8565b6001905092915050565b6000600560009054906101000a900473ffffffffffffffffffffffffffffffffffffffff1673ffffffffffffffffffffffffffffffffffffffff166370a08231306040518263ffffffff1660e01b8152600401610d129190611d81565b60206040518083038186803b158015610d2a57600080fd5b505afa158015610d3e573d6000803e3d6000fd5b505050506040513d601f19601f82011682018060405250810190610d629190611ac5565b905090565b60008111610daa576040517f08c379a0000000000000000000000000000000000000000000000000000000008152600401610da190611f74565b60405180910390fd5b610df9333083600560009054906101000a900473ffffffffffffffffffffffffffffffffffffffff1673ffffffffffffffffffffffffffffffffffffffff1661162f909392919063ffffffff16565b80600660003373ffffffffffffffffffffffffffffffffffffffff1673ffffffffffffffffffffffffffffffffffffffff16815260200190815260200160002054610e44919061205c565b600660003373ffffffffffffffffffffffffffffffffffffffff1673ffffffffffffffffffffffffffffffffffffffff1681526020019081526020016000208190555042600760003373ffffffffffffffffffffffffffffffffffffffff1673ffffffffffffffffffffffffffffffffffffffff16815260200190815260200160002054610ed2919061205c565b600760003373ffffffffffffffffffffffffffffffffffffffff1673ffffffffffffffffffffffffffffffffffffffff1681526020019081526020016000208190555050565b6000600160008473ffffffffffffffffffffffffffffffffffffffff1673ffffffffffffffffffffffffffffffffffffffff16815260200190815260200160002060008373ffffffffffffffffffffffffffffffffffffffff1673ffffffffffffffffffffffffffffffffffffffff16815260200190815260200160002054905092915050565b60066020528060005260406000206000915090505481565b600560009054906101000a900473ffffffffffffffffffffffffffffffffffffffff1681565b60076020528060005260406000206000915090505481565b600033905090565b600073ffffffffffffffffffffffffffffffffffffffff168373ffffffffffffffffffffffffffffffffffffffff16141561106d576040517f08c379a000000000000000000000000000000000000000000000000000000000815260040161106490611f14565b60405180910390fd5b600073ffffffffffffffffffffffffffffffffffffffff168273ffffffffffffffffffffffffffffffffffffffff1614156110dd576040517f08c379a00000000000000000000000000000000000000000000000000000000081526004016110d490611e74565b60405180910390fd5b80600160008573ffffffffffffffffffffffffffffffffffffffff1673ffffffffffffffffffffffffffffffffffffffff16815260200190815260200160002060008473ffffffffffffffffffffffffffffffffffffffff1673ffffffffffffffffffffffffffffffffffffffff168152602001908152602001600020819055508173ffffffffffffffffffffffffffffffffffffffff168373ffffffffffffffffffffffffffffffffffffffff167f8c5be1e5ebec7d5bd14f71427d1e84f3dd0314c0f7b2291e5b200ac8c7c3b925836040516111bb9190611ff4565b60405180910390a3505050565b600073ffffffffffffffffffffffffffffffffffffffff168373ffffffffffffffffffffffffffffffffffffffff161415611238576040517f08c379a000000000000000000000000000000000000000000000000000000000815260040161122f90611ef4565b60405180910390fd5b600073ffffffffffffffffffffffffffffffffffffffff168273ffffffffffffffffffffffffffffffffffffffff1614156112a8576040517f08c379a000000000000000000000000000000000000000000000000000000000815260040161129f90611e54565b60405180910390fd5b6112b38383836116b8565b60008060008573ffffffffffffffffffffffffffffffffffffffff1673ffffffffffffffffffffffffffffffffffffffff16815260200190815260200160002054905081811015611339576040517f08c379a000000000000000000000000000000000000000000000000000000000815260040161133090611e94565b60405180910390fd5b8181036000808673ffffffffffffffffffffffffffffffffffffffff1673ffffffffffffffffffffffffffffffffffffffff16815260200190815260200160002081905550816000808573ffffffffffffffffffffffffffffffffffffffff1673ffffffffffffffffffffffffffffffffffffffff16815260200190815260200160002060008282546113cc919061205c565b925050819055508273ffffffffffffffffffffffffffffffffffffffff168473ffffffffffffffffffffffffffffffffffffffff167fddf252ad1be2c89b69c2b068fc378daa952ba7f163c4a11628f55a4df523b3ef846040516114309190611ff4565b60405180910390a36114438484846116bd565b50505050565b600073ffffffffffffffffffffffffffffffffffffffff168273ffffffffffffffffffffffffffffffffffffffff1614156114b9576040517f08c379a00000000000000000000000000000000000000000000000000000000081526004016114b090611fd4565b60405180910390fd5b6114c5600083836116b8565b80600260008282546114d7919061205c565b92505081905550806000808473ffffffffffffffffffffffffffffffffffffffff1673ffffffffffffffffffffffffffffffffffffffff168152602001908152602001600020600082825461152c919061205c565b925050819055508173ffffffffffffffffffffffffffffffffffffffff16600073ffffffffffffffffffffffffffffffffffffffff167fddf252ad1be2c89b69c2b068fc378daa952ba7f163c4a11628f55a4df523b3ef836040516115919190611ff4565b60405180910390a36115a5600083836116bd565b5050565b61162a8363a9059cbb60e01b84846040516024016115c8929190611dd3565b604051602081830303815290604052907bffffffffffffffffffffffffffffffffffffffffffffffffffffffff19166020820180517bffffffffffffffffffffffffffffffffffffffffffffffffffffffff83818316178352505050506116c2565b505050565b6116b2846323b872dd60e01b85858560405160240161165093929190611d9c565b604051602081830303815290604052907bffffffffffffffffffffffffffffffffffffffffffffffffffffffff19166020820180517bffffffffffffffffffffffffffffffffffffffffffffffffffffffff83818316178352505050506116c2565b50505050565b505050565b505050565b6000611724826040518060400160405280602081526020017f5361666545524332303a206c6f772d6c6576656c2063616c6c206661696c65648152508573ffffffffffffffffffffffffffffffffffffffff166117899092919063ffffffff16565b905060008151111561178457808060200190518101906117449190611a73565b611783576040517f08c379a000000000000000000000000000000000000000000000000000000000815260040161177a90611f94565b60405180910390fd5b5b505050565b606061179884846000856117a1565b90509392505050565b6060824710156117e6576040517f08c379a00000000000000000000000000000000000000000000000000000000081526004016117dd90611eb4565b60405180910390fd5b6117ef856118b5565b61182e576040517f08c379a000000000000000000000000000000000000000000000000000000000815260040161182590611f34565b60405180910390fd5b6000808673ffffffffffffffffffffffffffffffffffffffff1685876040516118579190611d6a565b60006040518083038185875af1925050503d8060008114611894576040519150601f19603f3d011682016040523d82523d6000602084013e611899565b606091505b50915091506118a98282866118c8565b92505050949350505050565b600080823b905060008111915050919050565b606083156118d857829050611928565b6000835111156118eb5782518084602001fd5b816040517f08c379a000000000000000000000000000000000000000000000000000000000815260040161191f9190611e32565b60405180910390fd5b9392505050565b60008135905061193e81612658565b92915050565b6000815190506119538161266f565b92915050565b60008135905061196881612686565b92915050565b60008151905061197d81612686565b92915050565b60006020828403121561199557600080fd5b60006119a38482850161192f565b91505092915050565b600080604083850312156119bf57600080fd5b60006119cd8582860161192f565b92505060206119de8582860161192f565b9150509250929050565b6000806000606084860312156119fd57600080fd5b6000611a0b8682870161192f565b9350506020611a1c8682870161192f565b9250506040611a2d86828701611959565b9150509250925092565b60008060408385031215611a4a57600080fd5b6000611a588582860161192f565b9250506020611a6985828601611959565b9150509250929050565b600060208284031215611a8557600080fd5b6000611a9384828501611944565b91505092915050565b600060208284031215611aae57600080fd5b6000611abc84828501611959565b91505092915050565b600060208284031215611ad757600080fd5b6000611ae58482850161196e565b91505092915050565b611af781612171565b82525050565b611b0681612183565b82525050565b6000611b178261202a565b611b218185612040565b9350611b318185602086016121ea565b80840191505092915050565b611b46816121c6565b82525050565b6000611b5782612035565b611b61818561204b565b9350611b718185602086016121ea565b611b7a816122dc565b840191505092915050565b6000611b9260238361204b565b9150611b9d826122ed565b604082019050919050565b6000611bb560228361204b565b9150611bc08261233c565b604082019050919050565b6000611bd860268361204b565b9150611be38261238b565b604082019050919050565b6000611bfb60268361204b565b9150611c06826123da565b604082019050919050565b6000611c1e60288361204b565b9150611c2982612429565b604082019050919050565b6000611c4160258361204b565b9150611c4c82612478565b604082019050919050565b6000611c6460248361204b565b9150611c6f826124c7565b604082019050919050565b6000611c87601d8361204b565b9150611c9282612516565b602082019050919050565b6000611caa60118361204b565b9150611cb58261253f565b602082019050919050565b6000611ccd60128361204b565b9150611cd882612568565b602082019050919050565b6000611cf0602a8361204b565b9150611cfb82612591565b604082019050919050565b6000611d1360258361204b565b9150611d1e826125e0565b604082019050919050565b6000611d36601f8361204b565b9150611d418261262f565b602082019050919050565b611d55816121af565b82525050565b611d64816121b9565b82525050565b6000611d768284611b0c565b915081905092915050565b6000602082019050611d966000830184611aee565b92915050565b6000606082019050611db16000830186611aee565b611dbe6020830185611aee565b611dcb6040830184611d4c565b949350505050565b6000604082019050611de86000830185611aee565b611df56020830184611d4c565b9392505050565b6000602082019050611e116000830184611afd565b92915050565b6000602082019050611e2c6000830184611b3d565b92915050565b60006020820190508181036000830152611e4c8184611b4c565b905092915050565b60006020820190508181036000830152611e6d81611b85565b9050919050565b60006020820190508181036000830152611e8d81611ba8565b9050919050565b60006020820190508181036000830152611ead81611bcb565b9050919050565b60006020820190508181036000830152611ecd81611bee565b9050919050565b60006020820190508181036000830152611eed81611c11565b9050919050565b60006020820190508181036000830152611f0d81611c34565b9050919050565b60006020820190508181036000830152611f2d81611c57565b9050919050565b60006020820190508181036000830152611f4d81611c7a565b9050919050565b60006020820190508181036000830152611f6d81611c9d565b9050919050565b60006020820190508181036000830152611f8d81611cc0565b9050919050565b60006020820190508181036000830152611fad81611ce3565b9050919050565b60006020820190508181036000830152611fcd81611d06565b9050919050565b60006020820190508181036000830152611fed81611d29565b9050919050565b60006020820190506120096000830184611d4c565b92915050565b60006020820190506120246000830184611d5b565b92915050565b600081519050919050565b600081519050919050565b600081905092915050565b600082825260208201905092915050565b6000612067826121af565b9150612072836121af565b9250827fffffffffffffffffffffffffffffffffffffffffffffffffffffffffffffffff038211156120a7576120a661224f565b5b828201905092915050565b60006120bd826121af565b91506120c8836121af565b9250826120d8576120d761227e565b5b828204905092915050565b60006120ee826121af565b91506120f9836121af565b9250817fffffffffffffffffffffffffffffffffffffffffffffffffffffffffffffffff04831182151516156121325761213161224f565b5b828202905092915050565b6000612148826121af565b9150612153836121af565b9250828210156121665761216561224f565b5b828203905092915050565b600061217c8261218f565b9050919050565b60008115159050919050565b600073ffffffffffffffffffffffffffffffffffffffff82169050919050565b6000819050919050565b600060ff82169050919050565b60006121d1826121d8565b9050919050565b60006121e38261218f565b9050919050565b60005b838110156122085780820151818401526020810190506121ed565b83811115612217576000848401525b50505050565b6000600282049050600182168061223557607f821691505b60208210811415612249576122486122ad565b5b50919050565b7f4e487b7100000000000000000000000000000000000000000000000000000000600052601160045260246000fd5b7f4e487b7100000000000000000000000000000000000000000000000000000000600052601260045260246000fd5b7f4e487b7100000000000000000000000000000000000000000000000000000000600052602260045260246000fd5b6000601f19601f8301169050919050565b7f45524332303a207472616e7366657220746f20746865207a65726f206164647260008201527f6573730000000000000000000000000000000000000000000000000000000000602082015250565b7f45524332303a20617070726f766520746f20746865207a65726f20616464726560008201527f7373000000000000000000000000000000000000000000000000000000000000602082015250565b7f45524332303a207472616e7366657220616d6f756e742065786365656473206260008201527f616c616e63650000000000000000000000000000000000000000000000000000602082015250565b7f416464726573733a20696e73756666696369656e742062616c616e636520666f60008201527f722063616c6c0000000000000000000000000000000000000000000000000000602082015250565b7f45524332303a207472616e7366657220616d6f756e742065786365656473206160008201527f6c6c6f77616e6365000000000000000000000000000000000000000000000000602082015250565b7f45524332303a207472616e736665722066726f6d20746865207a65726f20616460008201527f6472657373000000000000000000000000000000000000000000000000000000602082015250565b7f45524332303a20617070726f76652066726f6d20746865207a65726f2061646460008201527f7265737300000000000000000000000000000000000000000000000000000000602082015250565b7f416464726573733a2063616c6c20746f206e6f6e2d636f6e7472616374000000600082015250565b7f4572726f722c206e6f7420656e6f756768000000000000000000000000000000600082015250565b7f616d6f756e742063616e6e6f7420626520300000000000000000000000000000600082015250565b7f5361666545524332303a204552433230206f7065726174696f6e20646964206e60008201527f6f74207375636365656400000000000000000000000000000000000000000000602082015250565b7f45524332303a2064656372656173656420616c6c6f77616e63652062656c6f7760008201527f207a65726f000000000000000000000000000000000000000000000000000000602082015250565b7f45524332303a206d696e7420746f20746865207a65726f206164647265737300600082015250565b61266181612171565b811461266c57600080fd5b50565b61267881612183565b811461268357600080fd5b50565b61268f816121af565b811461269a57600080fd5b5056fea264697066735822122015909de2917f2d38021a606965e3c3582be15b217788dfac0a994cc86fc44f4064736f6c63430008030033",
  "linkReferences": {},
  "deployedLinkReferences": {}
}