{
  "_format": "hh-sol-artifact-1",
  "contractName": "FarmToken",
  "sourceName": "contracts/FarmToken.sol",
  "abi": [
    {
      "inputs": [
        {
          "internalType": "address",
          "name": "_token",
          "type": "address"
        }
      ],
      "stateMutability": "nonpayable",
      "type": "constructor"
    },
    {
      "anonymous": false,
      "inputs": [
        {
          "indexed": true,
          "internalType": "address",
          "name": "owner",
          "type": "address"
        },
        {
          "indexed": true,
          "internalType": "address",
          "name": "spender",
          "type": "address"
        },
        {
          "indexed": false,
          "internalType": "uint256",
          "name": "value",
          "type": "uint256"
        }
      ],
      "name": "Approval",
      "type": "event"
    },
    {
      "anonymous": false,
      "inputs": [
        {
          "indexed": true,
          "internalType": "address",
          "name": "from",
          "type": "address"
        },
        {
          "indexed": true,
          "internalType": "address",
          "name": "to",
          "type": "address"
        },
        {
          "indexed": false,
          "internalType": "uint256",
          "name": "value",
          "type": "uint256"
        }
      ],
      "name": "Transfer",
      "type": "event"
    },
    {
      "inputs": [
        {
          "internalType": "address",
          "name": "owner",
          "type": "address"
        },
        {
          "internalType": "address",
          "name": "spender",
          "type": "address"
        }
      ],
      "name": "allowance",
      "outputs": [
        {
          "internalType": "uint256",
          "name": "",
          "type": "uint256"
        }
      ],
      "stateMutability": "view",
      "type": "function"
    },
    {
      "inputs": [
        {
          "internalType": "address",
          "name": "spender",
          "type": "address"
        },
        {
          "internalType": "uint256",
          "name": "amount",
          "type": "uint256"
        }
      ],
      "name": "approve",
      "outputs": [
        {
          "internalType": "bool",
          "name": "",
          "type": "bool"
        }
      ],
      "stateMutability": "nonpayable",
      "type": "function"
    },
    {
      "inputs": [],
      "name": "balance",
      "outputs": [
        {
          "internalType": "uint256",
          "name": "",
          "type": "uint256"
        }
      ],
      "stateMutability": "view",
      "type": "function"
    },
    {
      "inputs": [
        {
          "internalType": "address",
          "name": "account",
          "type": "address"
        }
      ],
      "name": "balanceOf",
      "outputs": [
        {
          "internalType": "uint256",
          "name": "",
          "type": "uint256"
        }
      ],
      "stateMutability": "view",
      "type": "function"
    },
    {
      "inputs": [],
      "name": "checkTime",
      "outputs": [
        {
          "internalType": "uint256",
          "name": "",
          "type": "uint256"
        }
      ],
      "stateMutability": "view",
      "type": "function"
    },
    {
      "inputs": [],
      "name": "decimals",
      "outputs": [
        {
          "internalType": "uint8",
          "name": "",
          "type": "uint8"
        }
      ],
      "stateMutability": "view",
      "type": "function"
    },
    {
      "inputs": [
        {
          "internalType": "address",
          "name": "spender",
          "type": "address"
        },
        {
          "internalType": "uint256",
          "name": "subtractedValue",
          "type": "uint256"
        }
      ],
      "name": "decreaseAllowance",
      "outputs": [
        {
          "internalType": "bool",
          "name": "",
          "type": "bool"
        }
      ],
      "stateMutability": "nonpayable",
      "type": "function"
    },
    {
      "inputs": [
        {
          "internalType": "uint256",
          "name": "_amount",
          "type": "uint256"
        }
      ],
      "name": "deposit",
      "outputs": [],
      "stateMutability": "payable",
      "type": "function"
    },
    {
      "inputs": [
        {
          "internalType": "address",
          "name": "",
          "type": "address"
        }
      ],
      "name": "depositStart",
      "outputs": [
        {
          "internalType": "uint256",
          "name": "",
          "type": "uint256"
        }
      ],
      "stateMutability": "view",
      "type": "function"
    },
    {
      "inputs": [
        {
          "internalType": "address",
          "name": "spender",
          "type": "address"
        },
        {
          "internalType": "uint256",
          "name": "addedValue",
          "type": "uint256"
        }
      ],
      "name": "increaseAllowance",
      "outputs": [
        {
          "internalType": "bool",
          "name": "",
          "type": "bool"
        }
      ],
      "stateMutability": "nonpayable",
      "type": "function"
    },
    {
      "inputs": [],
      "name": "name",
      "outputs": [
        {
          "internalType": "string",
          "name": "",
          "type": "string"
        }
      ],
      "stateMutability": "view",
      "type": "function"
    },
    {
      "inputs": [],
      "name": "owner",
      "outputs": [
        {
          "internalType": "address",
          "name": "",
          "type": "address"
        }
      ],
      "stateMutability": "view",
      "type": "function"
    },
    {
      "inputs": [],
      "name": "ownerDepositBalance",
      "outputs": [
        {
          "internalType": "uint256",
          "name": "",
          "type": "uint256"
        }
      ],
      "stateMutability": "view",
      "type": "function"
    },
    {
      "inputs": [
        {
          "internalType": "address",
          "name": "",
          "type": "address"
        }
      ],
      "name": "primaryDeposit",
      "outputs": [
        {
          "internalType": "uint256",
          "name": "",
          "type": "uint256"
        }
      ],
      "stateMutability": "view",
      "type": "function"
    },
    {
      "inputs": [],
      "name": "symbol",
      "outputs": [
        {
          "internalType": "string",
          "name": "",
          "type": "string"
        }
      ],
      "stateMutability": "view",
      "type": "function"
    },
    {
      "inputs": [],
      "name": "token",
      "outputs": [
        {
          "internalType": "contract IERC20",
          "name": "",
          "type": "address"
        }
      ],
      "stateMutability": "view",
      "type": "function"
    },
    {
      "inputs": [
        {
          "internalType": "address",
          "name": "",
          "type": "address"
        }
      ],
      "name": "tokenBalanceOf",
      "outputs": [
        {
          "internalType": "uint256",
          "name": "",
          "type": "uint256"
        }
      ],
      "stateMutability": "view",
      "type": "function"
    },
    {
      "inputs": [],
      "name": "totalSupply",
      "outputs": [
        {
          "internalType": "uint256",
          "name": "",
          "type": "uint256"
        }
      ],
      "stateMutability": "view",
      "type": "function"
    },
    {
      "inputs": [
        {
          "internalType": "address",
          "name": "recipient",
          "type": "address"
        },
        {
          "internalType": "uint256",
          "name": "amount",
          "type": "uint256"
        }
      ],
      "name": "transfer",
      "outputs": [
        {
          "internalType": "bool",
          "name": "",
          "type": "bool"
        }
      ],
      "stateMutability": "nonpayable",
      "type": "function"
    },
    {
      "inputs": [
        {
          "internalType": "address",
          "name": "sender",
          "type": "address"
        },
        {
          "internalType": "address",
          "name": "recipient",
          "type": "address"
        },
        {
          "internalType": "uint256",
          "name": "amount",
          "type": "uint256"
        }
      ],
      "name": "transferFrom",
      "outputs": [
        {
          "internalType": "bool",
          "name": "",
          "type": "bool"
        }
      ],
      "stateMutability": "nonpayable",
      "type": "function"
    },
    {
      "inputs": [
        {
          "internalType": "uint256",
          "name": "_amount",
          "type": "uint256"
        }
      ],
      "name": "withdraw",
      "outputs": [],
      "stateMutability": "nonpayable",
      "type": "function"
    }
  ],
  "bytecode": "0x6080604052674563918244f400006005553480156200001d57600080fd5b5060405162002b9238038062002b92833981810160405281019062000043919062000233565b6040518060400160405280600981526020017f4661726d546f6b656e00000000000000000000000000000000000000000000008152506040518060400160405280600381526020017f46524d00000000000000000000000000000000000000000000000000000000008152508160039080519060200190620000c79291906200016c565b508060049080519060200190620000e09291906200016c565b50505080600660006101000a81548173ffffffffffffffffffffffffffffffffffffffff021916908373ffffffffffffffffffffffffffffffffffffffff16021790555033600a60006101000a81548173ffffffffffffffffffffffffffffffffffffffff021916908373ffffffffffffffffffffffffffffffffffffffff1602179055505062000312565b8280546200017a9062000293565b90600052602060002090601f0160209004810192826200019e5760008555620001ea565b82601f10620001b957805160ff1916838001178555620001ea565b82800160010185558215620001ea579182015b82811115620001e9578251825591602001919060010190620001cc565b5b509050620001f99190620001fd565b5090565b5b8082111562000218576000816000905550600101620001fe565b5090565b6000815190506200022d81620002f8565b92915050565b6000602082840312156200024657600080fd5b600062000256848285016200021c565b91505092915050565b60006200026c8262000273565b9050919050565b600073ffffffffffffffffffffffffffffffffffffffff82169050919050565b60006002820490506001821680620002ac57607f821691505b60208210811415620002c357620002c2620002c9565b5b50919050565b7f4e487b7100000000000000000000000000000000000000000000000000000000600052602260045260246000fd5b62000303816200025f565b81146200030f57600080fd5b50565b61287080620003226000396000f3fe60806040526004361061012a5760003560e01c806395d89b41116100ab578063b6b55f251161006f578063b6b55f2514610430578063dd62ed3e1461044c578063e0c6190d14610489578063e42c08f2146104b4578063fc0c546a146104f1578063ff87930a1461051c5761012a565b806395d89b4114610335578063a04588ed14610360578063a457c2d71461038b578063a9059cbb146103c8578063b69ef8a8146104055761012a565b80632e34427f116100f25780632e34427f14610228578063313ce56714610265578063395093511461029057806370a08231146102cd5780638da5cb5b1461030a5761012a565b806306fdde031461012f578063095ea7b31461015a57806318160ddd1461019757806323b872dd146101c25780632e1a7d4d146101ff575b600080fd5b34801561013b57600080fd5b50610144610559565b6040516101519190612059565b60405180910390f35b34801561016657600080fd5b50610181600480360381019061017c9190611c5e565b6105eb565b60405161018e9190612023565b60405180910390f35b3480156101a357600080fd5b506101ac610609565b6040516101b9919061224b565b60405180910390f35b3480156101ce57600080fd5b506101e960048036038101906101e49190611c0f565b610613565b6040516101f69190612023565b60405180910390f35b34801561020b57600080fd5b5061022660048036038101906102219190611cc3565b61070b565b005b34801561023457600080fd5b5061024f600480360381019061024a9190611baa565b6109dd565b60405161025c919061224b565b60405180910390f35b34801561027157600080fd5b5061027a6109f5565b6040516102879190612266565b60405180910390f35b34801561029c57600080fd5b506102b760048036038101906102b29190611c5e565b6109fe565b6040516102c49190612023565b60405180910390f35b3480156102d957600080fd5b506102f460048036038101906102ef9190611baa565b610aaa565b604051610301919061224b565b60405180910390f35b34801561031657600080fd5b5061031f610af2565b60405161032c9190611fa8565b60405180910390f35b34801561034157600080fd5b5061034a610b18565b6040516103579190612059565b60405180910390f35b34801561036c57600080fd5b50610375610baa565b604051610382919061224b565b60405180910390f35b34801561039757600080fd5b506103b260048036038101906103ad9190611c5e565b610bf6565b6040516103bf9190612023565b60405180910390f35b3480156103d457600080fd5b506103ef60048036038101906103ea9190611c5e565b610ce1565b6040516103fc9190612023565b60405180910390f35b34801561041157600080fd5b5061041a610cff565b604051610427919061224b565b60405180910390f35b61044a60048036038101906104459190611cc3565b610db1565b005b34801561045857600080fd5b50610473600480360381019061046e9190611bd3565b61102e565b604051610480919061224b565b60405180910390f35b34801561049557600080fd5b5061049e6110b5565b6040516104ab919061224b565b60405180910390f35b3480156104c057600080fd5b506104db60048036038101906104d69190611baa565b611101565b6040516104e8919061224b565b60405180910390f35b3480156104fd57600080fd5b50610506611119565b604051610513919061203e565b60405180910390f35b34801561052857600080fd5b50610543600480360381019061053e9190611baa565b61113f565b604051610550919061224b565b60405180910390f35b606060038054610568906123e9565b80601f0160208091040260200160405190810160405280929190818152602001828054610594906123e9565b80156105e15780601f106105b6576101008083540402835291602001916105e1565b820191906000526020600020905b8154815290600101906020018083116105c457829003601f168201915b5050505050905090565b60006105ff6105f8611157565b848461115f565b6001905092915050565b6000600254905090565b600061062084848461132a565b6000600160008673ffffffffffffffffffffffffffffffffffffffff1673ffffffffffffffffffffffffffffffffffffffff168152602001908152602001600020600061066b611157565b73ffffffffffffffffffffffffffffffffffffffff1673ffffffffffffffffffffffffffffffffffffffff168152602001908152602001600020549050828110156106eb576040517f08c379a00000000000000000000000000000000000000000000000000000000081526004016106e29061212b565b60405180910390fd5b6106ff856106f7611157565b85840361115f565b60019150509392505050565b600760003373ffffffffffffffffffffffffffffffffffffffff1673ffffffffffffffffffffffffffffffffffffffff1681526020019081526020016000205481111561078d576040517f08c379a0000000000000000000000000000000000000000000000000000000008152600401610784906121ab565b60405180910390fd5b61080b6040518060400160405280600e81526020017f4465706f7369742053746172743a000000000000000000000000000000000000815250600860003373ffffffffffffffffffffffffffffffffffffffff1673ffffffffffffffffffffffffffffffffffffffff168152602001908152602001600020546115ab565b61084a6040518060400160405280601081526020017f5072696d617279204465706f7369743a00000000000000000000000000000000815250426115ab565b603c426108579190612309565b600860003373ffffffffffffffffffffffffffffffffffffffff1673ffffffffffffffffffffffffffffffffffffffff16815260200190815260200160002054116108ba576000600554826108ac91906122b3565b90506108b83382611647565b505b6109073382600660009054906101000a900473ffffffffffffffffffffffffffffffffffffffff1673ffffffffffffffffffffffffffffffffffffffff166117a79092919063ffffffff16565b80600760003373ffffffffffffffffffffffffffffffffffffffff1673ffffffffffffffffffffffffffffffffffffffff168152602001908152602001600020546109529190612309565b600760003373ffffffffffffffffffffffffffffffffffffffff1673ffffffffffffffffffffffffffffffffffffffff168152602001908152602001600020819055506000600860003373ffffffffffffffffffffffffffffffffffffffff1673ffffffffffffffffffffffffffffffffffffffff1681526020019081526020016000208190555050565b60096020528060005260406000206000915090505481565b60006012905090565b6000610aa0610a0b611157565b848460016000610a19611157565b73ffffffffffffffffffffffffffffffffffffffff1673ffffffffffffffffffffffffffffffffffffffff16815260200190815260200160002060008873ffffffffffffffffffffffffffffffffffffffff1673ffffffffffffffffffffffffffffffffffffffff16815260200190815260200160002054610a9b91906122b3565b61115f565b6001905092915050565b60008060008373ffffffffffffffffffffffffffffffffffffffff1673ffffffffffffffffffffffffffffffffffffffff168152602001908152602001600020549050919050565b600a60009054906101000a900473ffffffffffffffffffffffffffffffffffffffff1681565b606060048054610b27906123e9565b80601f0160208091040260200160405190810160405280929190818152602001828054610b53906123e9565b8015610ba05780601f10610b7557610100808354040283529160200191610ba0565b820191906000526020600020905b815481529060010190602001808311610b8357829003601f168201915b5050505050905090565b600080600760003373ffffffffffffffffffffffffffffffffffffffff1673ffffffffffffffffffffffffffffffffffffffff1681526020019081526020016000205490508091505090565b60008060016000610c05611157565b73ffffffffffffffffffffffffffffffffffffffff1673ffffffffffffffffffffffffffffffffffffffff16815260200190815260200160002060008573ffffffffffffffffffffffffffffffffffffffff1673ffffffffffffffffffffffffffffffffffffffff16815260200190815260200160002054905082811015610cc2576040517f08c379a0000000000000000000000000000000000000000000000000000000008152600401610cb99061220b565b60405180910390fd5b610cd6610ccd611157565b8585840361115f565b600191505092915050565b6000610cf5610cee611157565b848461132a565b6001905092915050565b6000600660009054906101000a900473ffffffffffffffffffffffffffffffffffffffff1673ffffffffffffffffffffffffffffffffffffffff166370a08231306040518263ffffffff1660e01b8152600401610d5c9190611fa8565b60206040518083038186803b158015610d7457600080fd5b505afa158015610d88573d6000803e3d6000fd5b505050506040513d601f19601f82011682018060405250810190610dac9190611cec565b905090565b60008111610df4576040517f08c379a0000000000000000000000000000000000000000000000000000000008152600401610deb906121cb565b60405180910390fd5b6000600760003373ffffffffffffffffffffffffffffffffffffffff1673ffffffffffffffffffffffffffffffffffffffff168152602001908152602001600020541415610f4e5742600860003373ffffffffffffffffffffffffffffffffffffffff1673ffffffffffffffffffffffffffffffffffffffff16815260200190815260200160002054610e8791906122b3565b600860003373ffffffffffffffffffffffffffffffffffffffff1673ffffffffffffffffffffffffffffffffffffffff16815260200190815260200160002081905550600860003373ffffffffffffffffffffffffffffffffffffffff1673ffffffffffffffffffffffffffffffffffffffff16815260200190815260200160002054600960003373ffffffffffffffffffffffffffffffffffffffff1673ffffffffffffffffffffffffffffffffffffffff168152602001908152602001600020819055505b610f9d333083600660009054906101000a900473ffffffffffffffffffffffffffffffffffffffff1673ffffffffffffffffffffffffffffffffffffffff1661182d909392919063ffffffff16565b80600760003373ffffffffffffffffffffffffffffffffffffffff1673ffffffffffffffffffffffffffffffffffffffff16815260200190815260200160002054610fe891906122b3565b600760003373ffffffffffffffffffffffffffffffffffffffff1673ffffffffffffffffffffffffffffffffffffffff1681526020019081526020016000208190555050565b6000600160008473ffffffffffffffffffffffffffffffffffffffff1673ffffffffffffffffffffffffffffffffffffffff16815260200190815260200160002060008373ffffffffffffffffffffffffffffffffffffffff1673ffffffffffffffffffffffffffffffffffffffff16815260200190815260200160002054905092915050565b600080600860003373ffffffffffffffffffffffffffffffffffffffff1673ffffffffffffffffffffffffffffffffffffffff1681526020019081526020016000205490508091505090565b60076020528060005260406000206000915090505481565b600660009054906101000a900473ffffffffffffffffffffffffffffffffffffffff1681565b60086020528060005260406000206000915090505481565b600033905090565b600073ffffffffffffffffffffffffffffffffffffffff168373ffffffffffffffffffffffffffffffffffffffff1614156111cf576040517f08c379a00000000000000000000000000000000000000000000000000000000081526004016111c69061216b565b60405180910390fd5b600073ffffffffffffffffffffffffffffffffffffffff168273ffffffffffffffffffffffffffffffffffffffff16141561123f576040517f08c379a0000000000000000000000000000000000000000000000000000000008152600401611236906120cb565b60405180910390fd5b80600160008573ffffffffffffffffffffffffffffffffffffffff1673ffffffffffffffffffffffffffffffffffffffff16815260200190815260200160002060008473ffffffffffffffffffffffffffffffffffffffff1673ffffffffffffffffffffffffffffffffffffffff168152602001908152602001600020819055508173ffffffffffffffffffffffffffffffffffffffff168373ffffffffffffffffffffffffffffffffffffffff167f8c5be1e5ebec7d5bd14f71427d1e84f3dd0314c0f7b2291e5b200ac8c7c3b9258360405161131d919061224b565b60405180910390a3505050565b600073ffffffffffffffffffffffffffffffffffffffff168373ffffffffffffffffffffffffffffffffffffffff16141561139a576040517f08c379a00000000000000000000000000000000000000000000000000000000081526004016113919061214b565b60405180910390fd5b600073ffffffffffffffffffffffffffffffffffffffff168273ffffffffffffffffffffffffffffffffffffffff16141561140a576040517f08c379a0000000000000000000000000000000000000000000000000000000008152600401611401906120ab565b60405180910390fd5b6114158383836118b6565b60008060008573ffffffffffffffffffffffffffffffffffffffff1673ffffffffffffffffffffffffffffffffffffffff1681526020019081526020016000205490508181101561149b576040517f08c379a0000000000000000000000000000000000000000000000000000000008152600401611492906120eb565b60405180910390fd5b8181036000808673ffffffffffffffffffffffffffffffffffffffff1673ffffffffffffffffffffffffffffffffffffffff16815260200190815260200160002081905550816000808573ffffffffffffffffffffffffffffffffffffffff1673ffffffffffffffffffffffffffffffffffffffff168152602001908152602001600020600082825461152e91906122b3565b925050819055508273ffffffffffffffffffffffffffffffffffffffff168473ffffffffffffffffffffffffffffffffffffffff167fddf252ad1be2c89b69c2b068fc378daa952ba7f163c4a11628f55a4df523b3ef84604051611592919061224b565b60405180910390a36115a58484846118bb565b50505050565b61164382826040516024016115c192919061207b565b6040516020818303038152906040527f9710a9d0000000000000000000000000000000000000000000000000000000007bffffffffffffffffffffffffffffffffffffffffffffffffffffffff19166020820180517bffffffffffffffffffffffffffffffffffffffffffffffffffffffff83818316178352505050506118c0565b5050565b600073ffffffffffffffffffffffffffffffffffffffff168273ffffffffffffffffffffffffffffffffffffffff1614156116b7576040517f08c379a00000000000000000000000000000000000000000000000000000000081526004016116ae9061222b565b60405180910390fd5b6116c3600083836118b6565b80600260008282546116d591906122b3565b92505081905550806000808473ffffffffffffffffffffffffffffffffffffffff1673ffffffffffffffffffffffffffffffffffffffff168152602001908152602001600020600082825461172a91906122b3565b925050819055508173ffffffffffffffffffffffffffffffffffffffff16600073ffffffffffffffffffffffffffffffffffffffff167fddf252ad1be2c89b69c2b068fc378daa952ba7f163c4a11628f55a4df523b3ef8360405161178f919061224b565b60405180910390a36117a3600083836118bb565b5050565b6118288363a9059cbb60e01b84846040516024016117c6929190611ffa565b604051602081830303815290604052907bffffffffffffffffffffffffffffffffffffffffffffffffffffffff19166020820180517bffffffffffffffffffffffffffffffffffffffffffffffffffffffff83818316178352505050506118e9565b505050565b6118b0846323b872dd60e01b85858560405160240161184e93929190611fc3565b604051602081830303815290604052907bffffffffffffffffffffffffffffffffffffffffffffffffffffffff19166020820180517bffffffffffffffffffffffffffffffffffffffffffffffffffffffff83818316178352505050506118e9565b50505050565b505050565b505050565b60008151905060006a636f6e736f6c652e6c6f679050602083016000808483855afa5050505050565b600061194b826040518060400160405280602081526020017f5361666545524332303a206c6f772d6c6576656c2063616c6c206661696c65648152508573ffffffffffffffffffffffffffffffffffffffff166119b09092919063ffffffff16565b90506000815111156119ab578080602001905181019061196b9190611c9a565b6119aa576040517f08c379a00000000000000000000000000000000000000000000000000000000081526004016119a1906121eb565b60405180910390fd5b5b505050565b60606119bf84846000856119c8565b90509392505050565b606082471015611a0d576040517f08c379a0000000000000000000000000000000000000000000000000000000008152600401611a049061210b565b60405180910390fd5b611a1685611adc565b611a55576040517f08c379a0000000000000000000000000000000000000000000000000000000008152600401611a4c9061218b565b60405180910390fd5b6000808673ffffffffffffffffffffffffffffffffffffffff168587604051611a7e9190611f91565b60006040518083038185875af1925050503d8060008114611abb576040519150601f19603f3d011682016040523d82523d6000602084013e611ac0565b606091505b5091509150611ad0828286611aef565b92505050949350505050565b600080823b905060008111915050919050565b60608315611aff57829050611b4f565b600083511115611b125782518084602001fd5b816040517f08c379a0000000000000000000000000000000000000000000000000000000008152600401611b469190612059565b60405180910390fd5b9392505050565b600081359050611b65816127f5565b92915050565b600081519050611b7a8161280c565b92915050565b600081359050611b8f81612823565b92915050565b600081519050611ba481612823565b92915050565b600060208284031215611bbc57600080fd5b6000611bca84828501611b56565b91505092915050565b60008060408385031215611be657600080fd5b6000611bf485828601611b56565b9250506020611c0585828601611b56565b9150509250929050565b600080600060608486031215611c2457600080fd5b6000611c3286828701611b56565b9350506020611c4386828701611b56565b9250506040611c5486828701611b80565b9150509250925092565b60008060408385031215611c7157600080fd5b6000611c7f85828601611b56565b9250506020611c9085828601611b80565b9150509250929050565b600060208284031215611cac57600080fd5b6000611cba84828501611b6b565b91505092915050565b600060208284031215611cd557600080fd5b6000611ce384828501611b80565b91505092915050565b600060208284031215611cfe57600080fd5b6000611d0c84828501611b95565b91505092915050565b611d1e8161233d565b82525050565b611d2d8161234f565b82525050565b6000611d3e82612281565b611d488185612297565b9350611d588185602086016123b6565b80840191505092915050565b611d6d81612392565b82525050565b6000611d7e8261228c565b611d8881856122a2565b9350611d988185602086016123b6565b611da181612479565b840191505092915050565b6000611db96023836122a2565b9150611dc48261248a565b604082019050919050565b6000611ddc6022836122a2565b9150611de7826124d9565b604082019050919050565b6000611dff6026836122a2565b9150611e0a82612528565b604082019050919050565b6000611e226026836122a2565b9150611e2d82612577565b604082019050919050565b6000611e456028836122a2565b9150611e50826125c6565b604082019050919050565b6000611e686025836122a2565b9150611e7382612615565b604082019050919050565b6000611e8b6024836122a2565b9150611e9682612664565b604082019050919050565b6000611eae601d836122a2565b9150611eb9826126b3565b602082019050919050565b6000611ed16011836122a2565b9150611edc826126dc565b602082019050919050565b6000611ef46012836122a2565b9150611eff82612705565b602082019050919050565b6000611f17602a836122a2565b9150611f228261272e565b604082019050919050565b6000611f3a6025836122a2565b9150611f458261277d565b604082019050919050565b6000611f5d601f836122a2565b9150611f68826127cc565b602082019050919050565b611f7c8161237b565b82525050565b611f8b81612385565b82525050565b6000611f9d8284611d33565b915081905092915050565b6000602082019050611fbd6000830184611d15565b92915050565b6000606082019050611fd86000830186611d15565b611fe56020830185611d15565b611ff26040830184611f73565b949350505050565b600060408201905061200f6000830185611d15565b61201c6020830184611f73565b9392505050565b60006020820190506120386000830184611d24565b92915050565b60006020820190506120536000830184611d64565b92915050565b600060208201905081810360008301526120738184611d73565b905092915050565b600060408201905081810360008301526120958185611d73565b90506120a46020830184611f73565b9392505050565b600060208201905081810360008301526120c481611dac565b9050919050565b600060208201905081810360008301526120e481611dcf565b9050919050565b6000602082019050818103600083015261210481611df2565b9050919050565b6000602082019050818103600083015261212481611e15565b9050919050565b6000602082019050818103600083015261214481611e38565b9050919050565b6000602082019050818103600083015261216481611e5b565b9050919050565b6000602082019050818103600083015261218481611e7e565b9050919050565b600060208201905081810360008301526121a481611ea1565b9050919050565b600060208201905081810360008301526121c481611ec4565b9050919050565b600060208201905081810360008301526121e481611ee7565b9050919050565b6000602082019050818103600083015261220481611f0a565b9050919050565b6000602082019050818103600083015261222481611f2d565b9050919050565b6000602082019050818103600083015261224481611f50565b9050919050565b60006020820190506122606000830184611f73565b92915050565b600060208201905061227b6000830184611f82565b92915050565b600081519050919050565b600081519050919050565b600081905092915050565b600082825260208201905092915050565b60006122be8261237b565b91506122c98361237b565b9250827fffffffffffffffffffffffffffffffffffffffffffffffffffffffffffffffff038211156122fe576122fd61241b565b5b828201905092915050565b60006123148261237b565b915061231f8361237b565b9250828210156123325761233161241b565b5b828203905092915050565b60006123488261235b565b9050919050565b60008115159050919050565b600073ffffffffffffffffffffffffffffffffffffffff82169050919050565b6000819050919050565b600060ff82169050919050565b600061239d826123a4565b9050919050565b60006123af8261235b565b9050919050565b60005b838110156123d45780820151818401526020810190506123b9565b838111156123e3576000848401525b50505050565b6000600282049050600182168061240157607f821691505b602082108114156124155761241461244a565b5b50919050565b7f4e487b7100000000000000000000000000000000000000000000000000000000600052601160045260246000fd5b7f4e487b7100000000000000000000000000000000000000000000000000000000600052602260045260246000fd5b6000601f19601f8301169050919050565b7f45524332303a207472616e7366657220746f20746865207a65726f206164647260008201527f6573730000000000000000000000000000000000000000000000000000000000602082015250565b7f45524332303a20617070726f766520746f20746865207a65726f20616464726560008201527f7373000000000000000000000000000000000000000000000000000000000000602082015250565b7f45524332303a207472616e7366657220616d6f756e742065786365656473206260008201527f616c616e63650000000000000000000000000000000000000000000000000000602082015250565b7f416464726573733a20696e73756666696369656e742062616c616e636520666f60008201527f722063616c6c0000000000000000000000000000000000000000000000000000602082015250565b7f45524332303a207472616e7366657220616d6f756e742065786365656473206160008201527f6c6c6f77616e6365000000000000000000000000000000000000000000000000602082015250565b7f45524332303a207472616e736665722066726f6d20746865207a65726f20616460008201527f6472657373000000000000000000000000000000000000000000000000000000602082015250565b7f45524332303a20617070726f76652066726f6d20746865207a65726f2061646460008201527f7265737300000000000000000000000000000000000000000000000000000000602082015250565b7f416464726573733a2063616c6c20746f206e6f6e2d636f6e7472616374000000600082015250565b7f4572726f722c206e6f7420656e6f756768000000000000000000000000000000600082015250565b7f616d6f756e742063616e6e6f7420626520300000000000000000000000000000600082015250565b7f5361666545524332303a204552433230206f7065726174696f6e20646964206e60008201527f6f74207375636365656400000000000000000000000000000000000000000000602082015250565b7f45524332303a2064656372656173656420616c6c6f77616e63652062656c6f7760008201527f207a65726f000000000000000000000000000000000000000000000000000000602082015250565b7f45524332303a206d696e7420746f20746865207a65726f206164647265737300600082015250565b6127fe8161233d565b811461280957600080fd5b50565b6128158161234f565b811461282057600080fd5b50565b61282c8161237b565b811461283757600080fd5b5056fea2646970667358221220afe60c53363e8716f2ab3b0a02d6d809afe374f623c2a5ead1a2d777a1211d5e64736f6c63430008030033",
  "linkReferences": {},
  "deployedLinkReferences": {}
}