{
  "_format": "hh-sol-artifact-1",
  "contractName": "FarmToken",
  "sourceName": "contracts/FarmToken.sol",
  "abi": [
    {
      "inputs": [
        {
          "internalType": "address",
          "name": "_token",
          "type": "address"
        }
      ],
      "stateMutability": "nonpayable",
      "type": "constructor"
    },
    {
      "anonymous": false,
      "inputs": [
        {
          "indexed": true,
          "internalType": "address",
          "name": "owner",
          "type": "address"
        },
        {
          "indexed": true,
          "internalType": "address",
          "name": "spender",
          "type": "address"
        },
        {
          "indexed": false,
          "internalType": "uint256",
          "name": "value",
          "type": "uint256"
        }
      ],
      "name": "Approval",
      "type": "event"
    },
    {
      "anonymous": false,
      "inputs": [
        {
          "indexed": true,
          "internalType": "address",
          "name": "user",
          "type": "address"
        },
        {
          "indexed": false,
          "internalType": "uint256",
          "name": "mtokenAmount",
          "type": "uint256"
        },
        {
          "indexed": false,
          "internalType": "uint256",
          "name": "timeStart",
          "type": "uint256"
        }
      ],
      "name": "Deposit",
      "type": "event"
    },
    {
      "anonymous": false,
      "inputs": [
        {
          "indexed": true,
          "internalType": "address",
          "name": "from",
          "type": "address"
        },
        {
          "indexed": true,
          "internalType": "address",
          "name": "to",
          "type": "address"
        },
        {
          "indexed": false,
          "internalType": "uint256",
          "name": "value",
          "type": "uint256"
        }
      ],
      "name": "Transfer",
      "type": "event"
    },
    {
      "anonymous": false,
      "inputs": [
        {
          "indexed": true,
          "internalType": "address",
          "name": "user",
          "type": "address"
        },
        {
          "indexed": false,
          "internalType": "uint256",
          "name": "mtokenAmount",
          "type": "uint256"
        },
        {
          "indexed": false,
          "internalType": "uint256",
          "name": "depositTime",
          "type": "uint256"
        }
      ],
      "name": "Withdraw",
      "type": "event"
    },
    {
      "inputs": [
        {
          "internalType": "address",
          "name": "owner",
          "type": "address"
        },
        {
          "internalType": "address",
          "name": "spender",
          "type": "address"
        }
      ],
      "name": "allowance",
      "outputs": [
        {
          "internalType": "uint256",
          "name": "",
          "type": "uint256"
        }
      ],
      "stateMutability": "view",
      "type": "function"
    },
    {
      "inputs": [
        {
          "internalType": "address",
          "name": "spender",
          "type": "address"
        },
        {
          "internalType": "uint256",
          "name": "amount",
          "type": "uint256"
        }
      ],
      "name": "approve",
      "outputs": [
        {
          "internalType": "bool",
          "name": "",
          "type": "bool"
        }
      ],
      "stateMutability": "nonpayable",
      "type": "function"
    },
    {
      "inputs": [],
      "name": "balance",
      "outputs": [
        {
          "internalType": "uint256",
          "name": "",
          "type": "uint256"
        }
      ],
      "stateMutability": "view",
      "type": "function"
    },
    {
      "inputs": [
        {
          "internalType": "address",
          "name": "account",
          "type": "address"
        }
      ],
      "name": "balanceOf",
      "outputs": [
        {
          "internalType": "uint256",
          "name": "",
          "type": "uint256"
        }
      ],
      "stateMutability": "view",
      "type": "function"
    },
    {
      "inputs": [],
      "name": "checkBlockTime",
      "outputs": [
        {
          "internalType": "uint256",
          "name": "",
          "type": "uint256"
        }
      ],
      "stateMutability": "view",
      "type": "function"
    },
    {
      "inputs": [],
      "name": "checkReward",
      "outputs": [
        {
          "internalType": "string",
          "name": "",
          "type": "string"
        }
      ],
      "stateMutability": "view",
      "type": "function"
    },
    {
      "inputs": [],
      "name": "checkTime",
      "outputs": [
        {
          "internalType": "uint256",
          "name": "",
          "type": "uint256"
        }
      ],
      "stateMutability": "view",
      "type": "function"
    },
    {
      "inputs": [],
      "name": "decimals",
      "outputs": [
        {
          "internalType": "uint8",
          "name": "",
          "type": "uint8"
        }
      ],
      "stateMutability": "view",
      "type": "function"
    },
    {
      "inputs": [
        {
          "internalType": "address",
          "name": "spender",
          "type": "address"
        },
        {
          "internalType": "uint256",
          "name": "subtractedValue",
          "type": "uint256"
        }
      ],
      "name": "decreaseAllowance",
      "outputs": [
        {
          "internalType": "bool",
          "name": "",
          "type": "bool"
        }
      ],
      "stateMutability": "nonpayable",
      "type": "function"
    },
    {
      "inputs": [
        {
          "internalType": "uint256",
          "name": "_amount",
          "type": "uint256"
        }
      ],
      "name": "deposit",
      "outputs": [],
      "stateMutability": "payable",
      "type": "function"
    },
    {
      "inputs": [
        {
          "internalType": "address",
          "name": "",
          "type": "address"
        }
      ],
      "name": "depositStart",
      "outputs": [
        {
          "internalType": "uint256",
          "name": "",
          "type": "uint256"
        }
      ],
      "stateMutability": "view",
      "type": "function"
    },
    {
      "inputs": [
        {
          "internalType": "address",
          "name": "spender",
          "type": "address"
        },
        {
          "internalType": "uint256",
          "name": "addedValue",
          "type": "uint256"
        }
      ],
      "name": "increaseAllowance",
      "outputs": [
        {
          "internalType": "bool",
          "name": "",
          "type": "bool"
        }
      ],
      "stateMutability": "nonpayable",
      "type": "function"
    },
    {
      "inputs": [],
      "name": "name",
      "outputs": [
        {
          "internalType": "string",
          "name": "",
          "type": "string"
        }
      ],
      "stateMutability": "view",
      "type": "function"
    },
    {
      "inputs": [],
      "name": "owner",
      "outputs": [
        {
          "internalType": "address",
          "name": "",
          "type": "address"
        }
      ],
      "stateMutability": "view",
      "type": "function"
    },
    {
      "inputs": [],
      "name": "ownerDepositBalance",
      "outputs": [
        {
          "internalType": "uint256",
          "name": "",
          "type": "uint256"
        }
      ],
      "stateMutability": "view",
      "type": "function"
    },
    {
      "inputs": [
        {
          "internalType": "address",
          "name": "",
          "type": "address"
        }
      ],
      "name": "primaryDeposit",
      "outputs": [
        {
          "internalType": "uint256",
          "name": "",
          "type": "uint256"
        }
      ],
      "stateMutability": "view",
      "type": "function"
    },
    {
      "inputs": [],
      "name": "symbol",
      "outputs": [
        {
          "internalType": "string",
          "name": "",
          "type": "string"
        }
      ],
      "stateMutability": "view",
      "type": "function"
    },
    {
      "inputs": [],
      "name": "token",
      "outputs": [
        {
          "internalType": "contract IERC20",
          "name": "",
          "type": "address"
        }
      ],
      "stateMutability": "view",
      "type": "function"
    },
    {
      "inputs": [
        {
          "internalType": "address",
          "name": "",
          "type": "address"
        }
      ],
      "name": "tokenBalanceOf",
      "outputs": [
        {
          "internalType": "uint256",
          "name": "",
          "type": "uint256"
        }
      ],
      "stateMutability": "view",
      "type": "function"
    },
    {
      "inputs": [],
      "name": "totalSupply",
      "outputs": [
        {
          "internalType": "uint256",
          "name": "",
          "type": "uint256"
        }
      ],
      "stateMutability": "view",
      "type": "function"
    },
    {
      "inputs": [
        {
          "internalType": "address",
          "name": "recipient",
          "type": "address"
        },
        {
          "internalType": "uint256",
          "name": "amount",
          "type": "uint256"
        }
      ],
      "name": "transfer",
      "outputs": [
        {
          "internalType": "bool",
          "name": "",
          "type": "bool"
        }
      ],
      "stateMutability": "nonpayable",
      "type": "function"
    },
    {
      "inputs": [
        {
          "internalType": "address",
          "name": "sender",
          "type": "address"
        },
        {
          "internalType": "address",
          "name": "recipient",
          "type": "address"
        },
        {
          "internalType": "uint256",
          "name": "amount",
          "type": "uint256"
        }
      ],
      "name": "transferFrom",
      "outputs": [
        {
          "internalType": "bool",
          "name": "",
          "type": "bool"
        }
      ],
      "stateMutability": "nonpayable",
      "type": "function"
    },
    {
      "inputs": [
        {
          "internalType": "uint256",
          "name": "_amount",
          "type": "uint256"
        }
      ],
      "name": "withdraw",
      "outputs": [],
      "stateMutability": "nonpayable",
      "type": "function"
    }
  ],
  "bytecode": "0x608060405262093a8060055562015180600655671bc16d674ec800006007553480156200002b57600080fd5b5060405162002d8838038062002d88833981810160405281019062000051919062000241565b6040518060400160405280600881526020017f446164546f6b656e0000000000000000000000000000000000000000000000008152506040518060400160405280600381526020017f44414400000000000000000000000000000000000000000000000000000000008152508160039080519060200190620000d59291906200017a565b508060049080519060200190620000ee9291906200017a565b50505080600860006101000a81548173ffffffffffffffffffffffffffffffffffffffff021916908373ffffffffffffffffffffffffffffffffffffffff16021790555033600c60006101000a81548173ffffffffffffffffffffffffffffffffffffffff021916908373ffffffffffffffffffffffffffffffffffffffff1602179055505062000320565b8280546200018890620002a1565b90600052602060002090601f016020900481019282620001ac5760008555620001f8565b82601f10620001c757805160ff1916838001178555620001f8565b82800160010185558215620001f8579182015b82811115620001f7578251825591602001919060010190620001da565b5b5090506200020791906200020b565b5090565b5b80821115620002265760008160009055506001016200020c565b5090565b6000815190506200023b8162000306565b92915050565b6000602082840312156200025457600080fd5b600062000264848285016200022a565b91505092915050565b60006200027a8262000281565b9050919050565b600073ffffffffffffffffffffffffffffffffffffffff82169050919050565b60006002820490506001821680620002ba57607f821691505b60208210811415620002d157620002d0620002d7565b5b50919050565b7f4e487b7100000000000000000000000000000000000000000000000000000000600052602260045260246000fd5b62000311816200026d565b81146200031d57600080fd5b50565b612a5880620003306000396000f3fe6080604052600436106101405760003560e01c806395d89b41116100b6578063c4b24a461161006f578063c4b24a461461048d578063dd62ed3e146104b8578063e0c6190d146104f5578063e42c08f214610520578063fc0c546a1461055d578063ff87930a1461058857610140565b806395d89b4114610376578063a04588ed146103a1578063a457c2d7146103cc578063a9059cbb14610409578063b69ef8a814610446578063b6b55f251461047157610140565b80632e34427f116101085780632e34427f1461023e578063313ce5671461027b5780633450e100146102a657806339509351146102d157806370a082311461030e5780638da5cb5b1461034b57610140565b806306fdde0314610145578063095ea7b31461017057806318160ddd146101ad57806323b872dd146101d85780632e1a7d4d14610215575b600080fd5b34801561015157600080fd5b5061015a6105c5565b6040516101679190612248565b60405180910390f35b34801561017c57600080fd5b5061019760048036038101906101929190611e4d565b610657565b6040516101a49190612212565b60405180910390f35b3480156101b957600080fd5b506101c2610675565b6040516101cf919061240a565b60405180910390f35b3480156101e457600080fd5b506101ff60048036038101906101fa9190611dfe565b61067f565b60405161020c9190612212565b60405180910390f35b34801561022157600080fd5b5061023c60048036038101906102379190611eb2565b610777565b005b34801561024a57600080fd5b5061026560048036038101906102609190611d99565b610a97565b604051610272919061240a565b60405180910390f35b34801561028757600080fd5b50610290610aaf565b60405161029d919061244e565b60405180910390f35b3480156102b257600080fd5b506102bb610ab8565b6040516102c8919061240a565b60405180910390f35b3480156102dd57600080fd5b506102f860048036038101906102f39190611e4d565b610ac5565b6040516103059190612212565b60405180910390f35b34801561031a57600080fd5b5061033560048036038101906103309190611d99565b610b71565b604051610342919061240a565b60405180910390f35b34801561035757600080fd5b50610360610bb9565b60405161036d9190612197565b60405180910390f35b34801561038257600080fd5b5061038b610bdf565b6040516103989190612248565b60405180910390f35b3480156103ad57600080fd5b506103b6610c71565b6040516103c3919061240a565b60405180910390f35b3480156103d857600080fd5b506103f360048036038101906103ee9190611e4d565b610cbd565b6040516104009190612212565b60405180910390f35b34801561041557600080fd5b50610430600480360381019061042b9190611e4d565b610da8565b60405161043d9190612212565b60405180910390f35b34801561045257600080fd5b5061045b610dc6565b604051610468919061240a565b60405180910390f35b61048b60048036038101906104869190611eb2565b610e78565b005b34801561049957600080fd5b506104a2611145565b6040516104af9190612248565b60405180910390f35b3480156104c457600080fd5b506104df60048036038101906104da9190611dc2565b6112e2565b6040516104ec919061240a565b60405180910390f35b34801561050157600080fd5b5061050a611369565b604051610517919061240a565b60405180910390f35b34801561052c57600080fd5b5061054760048036038101906105429190611d99565b6113b5565b604051610554919061240a565b60405180910390f35b34801561056957600080fd5b506105726113cd565b60405161057f919061222d565b60405180910390f35b34801561059457600080fd5b506105af60048036038101906105aa9190611d99565b6113f3565b6040516105bc919061240a565b60405180910390f35b6060600380546105d4906125d1565b80601f0160208091040260200160405190810160405280929190818152602001828054610600906125d1565b801561064d5780601f106106225761010080835404028352916020019161064d565b820191906000526020600020905b81548152906001019060200180831161063057829003601f168201915b5050505050905090565b600061066b61066461140b565b8484611413565b6001905092915050565b6000600254905090565b600061068c8484846115de565b6000600160008673ffffffffffffffffffffffffffffffffffffffff1673ffffffffffffffffffffffffffffffffffffffff16815260200190815260200160002060006106d761140b565b73ffffffffffffffffffffffffffffffffffffffff1673ffffffffffffffffffffffffffffffffffffffff16815260200190815260200160002054905082811015610757576040517f08c379a000000000000000000000000000000000000000000000000000000000815260040161074e906122ea565b60405180910390fd5b61076b8561076361140b565b858403611413565b60019150509392505050565b600960003373ffffffffffffffffffffffffffffffffffffffff1673ffffffffffffffffffffffffffffffffffffffff168152602001908152602001600020548111156107f9576040517f08c379a00000000000000000000000000000000000000000000000000000000081526004016107f09061236a565b60405180910390fd5b6000600a60003373ffffffffffffffffffffffffffffffffffffffff1673ffffffffffffffffffffffffffffffffffffffff168152602001908152602001600020544261084691906124f1565b90506005544261085691906124f1565b600a60003373ffffffffffffffffffffffffffffffffffffffff1673ffffffffffffffffffffffffffffffffffffffff16815260200190815260200160002054116108bd576000600754836108ab919061249b565b90506108b7338261185f565b50610923565b600654426108cb91906124f1565b600a60003373ffffffffffffffffffffffffffffffffffffffff1673ffffffffffffffffffffffffffffffffffffffff16815260200190815260200160002054116109215761091c3360075461185f565b610922565b5b5b6109703383600860009054906101000a900473ffffffffffffffffffffffffffffffffffffffff1673ffffffffffffffffffffffffffffffffffffffff166119bf9092919063ffffffff16565b81600960003373ffffffffffffffffffffffffffffffffffffffff1673ffffffffffffffffffffffffffffffffffffffff168152602001908152602001600020546109bb91906124f1565b600960003373ffffffffffffffffffffffffffffffffffffffff1673ffffffffffffffffffffffffffffffffffffffff168152602001908152602001600020819055506000600a60003373ffffffffffffffffffffffffffffffffffffffff1673ffffffffffffffffffffffffffffffffffffffff168152602001908152602001600020819055503373ffffffffffffffffffffffffffffffffffffffff167ff279e6a1f5e320cca91135676d9cb6e44ca8a08c0b88342bcdb1144f6511b5688383604051610a8b929190612425565b60405180910390a25050565b600b6020528060005260406000206000915090505481565b60006012905090565b6000804290508091505090565b6000610b67610ad261140b565b848460016000610ae061140b565b73ffffffffffffffffffffffffffffffffffffffff1673ffffffffffffffffffffffffffffffffffffffff16815260200190815260200160002060008873ffffffffffffffffffffffffffffffffffffffff1673ffffffffffffffffffffffffffffffffffffffff16815260200190815260200160002054610b62919061249b565b611413565b6001905092915050565b60008060008373ffffffffffffffffffffffffffffffffffffffff1673ffffffffffffffffffffffffffffffffffffffff168152602001908152602001600020549050919050565b600c60009054906101000a900473ffffffffffffffffffffffffffffffffffffffff1681565b606060048054610bee906125d1565b80601f0160208091040260200160405190810160405280929190818152602001828054610c1a906125d1565b8015610c675780601f10610c3c57610100808354040283529160200191610c67565b820191906000526020600020905b815481529060010190602001808311610c4a57829003601f168201915b5050505050905090565b600080600960003373ffffffffffffffffffffffffffffffffffffffff1673ffffffffffffffffffffffffffffffffffffffff1681526020019081526020016000205490508091505090565b60008060016000610ccc61140b565b73ffffffffffffffffffffffffffffffffffffffff1673ffffffffffffffffffffffffffffffffffffffff16815260200190815260200160002060008573ffffffffffffffffffffffffffffffffffffffff1673ffffffffffffffffffffffffffffffffffffffff16815260200190815260200160002054905082811015610d89576040517f08c379a0000000000000000000000000000000000000000000000000000000008152600401610d80906123ca565b60405180910390fd5b610d9d610d9461140b565b85858403611413565b600191505092915050565b6000610dbc610db561140b565b84846115de565b6001905092915050565b6000600860009054906101000a900473ffffffffffffffffffffffffffffffffffffffff1673ffffffffffffffffffffffffffffffffffffffff166370a08231306040518263ffffffff1660e01b8152600401610e239190612197565b60206040518083038186803b158015610e3b57600080fd5b505afa158015610e4f573d6000803e3d6000fd5b505050506040513d601f19601f82011682018060405250810190610e739190611edb565b905090565b60008111610ebb576040517f08c379a0000000000000000000000000000000000000000000000000000000008152600401610eb29061238a565b60405180910390fd5b6000600960003373ffffffffffffffffffffffffffffffffffffffff1673ffffffffffffffffffffffffffffffffffffffff1681526020019081526020016000205414156110155742600a60003373ffffffffffffffffffffffffffffffffffffffff1673ffffffffffffffffffffffffffffffffffffffff16815260200190815260200160002054610f4e919061249b565b600a60003373ffffffffffffffffffffffffffffffffffffffff1673ffffffffffffffffffffffffffffffffffffffff16815260200190815260200160002081905550600a60003373ffffffffffffffffffffffffffffffffffffffff1673ffffffffffffffffffffffffffffffffffffffff16815260200190815260200160002054600b60003373ffffffffffffffffffffffffffffffffffffffff1673ffffffffffffffffffffffffffffffffffffffff168152602001908152602001600020819055505b611064333083600860009054906101000a900473ffffffffffffffffffffffffffffffffffffffff1673ffffffffffffffffffffffffffffffffffffffff16611a45909392919063ffffffff16565b80600960003373ffffffffffffffffffffffffffffffffffffffff1673ffffffffffffffffffffffffffffffffffffffff168152602001908152602001600020546110af919061249b565b600960003373ffffffffffffffffffffffffffffffffffffffff1673ffffffffffffffffffffffffffffffffffffffff168152602001908152602001600020819055503373ffffffffffffffffffffffffffffffffffffffff167f90890809c654f11d6e72a28fa60149770a0d11ec6c92319d6ceb2bb0a4ea1a15824260405161113a929190612425565b60405180910390a250565b606060006040518060400160405280600481526020017f6e756c6c0000000000000000000000000000000000000000000000000000000081525090506005544261118f91906124f1565b600a60003373ffffffffffffffffffffffffffffffffffffffff1673ffffffffffffffffffffffffffffffffffffffff1681526020019081526020016000205411611211576040518060400160405280601c81526020017f446f75626c65204465706f73697420616e64203220646f6c6c6172730000000081525090506112db565b6006544261121f91906124f1565b600a60003373ffffffffffffffffffffffffffffffffffffffff1673ffffffffffffffffffffffffffffffffffffffff16815260200190815260200160002054116112a1576040518060400160405280600e81526020017f3220646f6c6c617220626f6e757300000000000000000000000000000000000081525090506112da565b6040518060400160405280601881526020017f4e6f20426f6e757320596574212057616974206120446179000000000000000081525090505b5b8091505090565b6000600160008473ffffffffffffffffffffffffffffffffffffffff1673ffffffffffffffffffffffffffffffffffffffff16815260200190815260200160002060008373ffffffffffffffffffffffffffffffffffffffff1673ffffffffffffffffffffffffffffffffffffffff16815260200190815260200160002054905092915050565b600080600a60003373ffffffffffffffffffffffffffffffffffffffff1673ffffffffffffffffffffffffffffffffffffffff1681526020019081526020016000205490508091505090565b60096020528060005260406000206000915090505481565b600860009054906101000a900473ffffffffffffffffffffffffffffffffffffffff1681565b600a6020528060005260406000206000915090505481565b600033905090565b600073ffffffffffffffffffffffffffffffffffffffff168373ffffffffffffffffffffffffffffffffffffffff161415611483576040517f08c379a000000000000000000000000000000000000000000000000000000000815260040161147a9061232a565b60405180910390fd5b600073ffffffffffffffffffffffffffffffffffffffff168273ffffffffffffffffffffffffffffffffffffffff1614156114f3576040517f08c379a00000000000000000000000000000000000000000000000000000000081526004016114ea9061228a565b60405180910390fd5b80600160008573ffffffffffffffffffffffffffffffffffffffff1673ffffffffffffffffffffffffffffffffffffffff16815260200190815260200160002060008473ffffffffffffffffffffffffffffffffffffffff1673ffffffffffffffffffffffffffffffffffffffff168152602001908152602001600020819055508173ffffffffffffffffffffffffffffffffffffffff168373ffffffffffffffffffffffffffffffffffffffff167f8c5be1e5ebec7d5bd14f71427d1e84f3dd0314c0f7b2291e5b200ac8c7c3b925836040516115d1919061240a565b60405180910390a3505050565b600073ffffffffffffffffffffffffffffffffffffffff168373ffffffffffffffffffffffffffffffffffffffff16141561164e576040517f08c379a00000000000000000000000000000000000000000000000000000000081526004016116459061230a565b60405180910390fd5b600073ffffffffffffffffffffffffffffffffffffffff168273ffffffffffffffffffffffffffffffffffffffff1614156116be576040517f08c379a00000000000000000000000000000000000000000000000000000000081526004016116b59061226a565b60405180910390fd5b6116c9838383611ace565b60008060008573ffffffffffffffffffffffffffffffffffffffff1673ffffffffffffffffffffffffffffffffffffffff1681526020019081526020016000205490508181101561174f576040517f08c379a0000000000000000000000000000000000000000000000000000000008152600401611746906122aa565b60405180910390fd5b8181036000808673ffffffffffffffffffffffffffffffffffffffff1673ffffffffffffffffffffffffffffffffffffffff16815260200190815260200160002081905550816000808573ffffffffffffffffffffffffffffffffffffffff1673ffffffffffffffffffffffffffffffffffffffff16815260200190815260200160002060008282546117e2919061249b565b925050819055508273ffffffffffffffffffffffffffffffffffffffff168473ffffffffffffffffffffffffffffffffffffffff167fddf252ad1be2c89b69c2b068fc378daa952ba7f163c4a11628f55a4df523b3ef84604051611846919061240a565b60405180910390a3611859848484611ad3565b50505050565b600073ffffffffffffffffffffffffffffffffffffffff168273ffffffffffffffffffffffffffffffffffffffff1614156118cf576040517f08c379a00000000000000000000000000000000000000000000000000000000081526004016118c6906123ea565b60405180910390fd5b6118db60008383611ace565b80600260008282546118ed919061249b565b92505081905550806000808473ffffffffffffffffffffffffffffffffffffffff1673ffffffffffffffffffffffffffffffffffffffff1681526020019081526020016000206000828254611942919061249b565b925050819055508173ffffffffffffffffffffffffffffffffffffffff16600073ffffffffffffffffffffffffffffffffffffffff167fddf252ad1be2c89b69c2b068fc378daa952ba7f163c4a11628f55a4df523b3ef836040516119a7919061240a565b60405180910390a36119bb60008383611ad3565b5050565b611a408363a9059cbb60e01b84846040516024016119de9291906121e9565b604051602081830303815290604052907bffffffffffffffffffffffffffffffffffffffffffffffffffffffff19166020820180517bffffffffffffffffffffffffffffffffffffffffffffffffffffffff8381831617835250505050611ad8565b505050565b611ac8846323b872dd60e01b858585604051602401611a66939291906121b2565b604051602081830303815290604052907bffffffffffffffffffffffffffffffffffffffffffffffffffffffff19166020820180517bffffffffffffffffffffffffffffffffffffffffffffffffffffffff8381831617835250505050611ad8565b50505050565b505050565b505050565b6000611b3a826040518060400160405280602081526020017f5361666545524332303a206c6f772d6c6576656c2063616c6c206661696c65648152508573ffffffffffffffffffffffffffffffffffffffff16611b9f9092919063ffffffff16565b9050600081511115611b9a5780806020019051810190611b5a9190611e89565b611b99576040517f08c379a0000000000000000000000000000000000000000000000000000000008152600401611b90906123aa565b60405180910390fd5b5b505050565b6060611bae8484600085611bb7565b90509392505050565b606082471015611bfc576040517f08c379a0000000000000000000000000000000000000000000000000000000008152600401611bf3906122ca565b60405180910390fd5b611c0585611ccb565b611c44576040517f08c379a0000000000000000000000000000000000000000000000000000000008152600401611c3b9061234a565b60405180910390fd5b6000808673ffffffffffffffffffffffffffffffffffffffff168587604051611c6d9190612180565b60006040518083038185875af1925050503d8060008114611caa576040519150601f19603f3d011682016040523d82523d6000602084013e611caf565b606091505b5091509150611cbf828286611cde565b92505050949350505050565b600080823b905060008111915050919050565b60608315611cee57829050611d3e565b600083511115611d015782518084602001fd5b816040517f08c379a0000000000000000000000000000000000000000000000000000000008152600401611d359190612248565b60405180910390fd5b9392505050565b600081359050611d54816129dd565b92915050565b600081519050611d69816129f4565b92915050565b600081359050611d7e81612a0b565b92915050565b600081519050611d9381612a0b565b92915050565b600060208284031215611dab57600080fd5b6000611db984828501611d45565b91505092915050565b60008060408385031215611dd557600080fd5b6000611de385828601611d45565b9250506020611df485828601611d45565b9150509250929050565b600080600060608486031215611e1357600080fd5b6000611e2186828701611d45565b9350506020611e3286828701611d45565b9250506040611e4386828701611d6f565b9150509250925092565b60008060408385031215611e6057600080fd5b6000611e6e85828601611d45565b9250506020611e7f85828601611d6f565b9150509250929050565b600060208284031215611e9b57600080fd5b6000611ea984828501611d5a565b91505092915050565b600060208284031215611ec457600080fd5b6000611ed284828501611d6f565b91505092915050565b600060208284031215611eed57600080fd5b6000611efb84828501611d84565b91505092915050565b611f0d81612525565b82525050565b611f1c81612537565b82525050565b6000611f2d82612469565b611f37818561247f565b9350611f4781856020860161259e565b80840191505092915050565b611f5c8161257a565b82525050565b6000611f6d82612474565b611f77818561248a565b9350611f8781856020860161259e565b611f9081612661565b840191505092915050565b6000611fa860238361248a565b9150611fb382612672565b604082019050919050565b6000611fcb60228361248a565b9150611fd6826126c1565b604082019050919050565b6000611fee60268361248a565b9150611ff982612710565b604082019050919050565b600061201160268361248a565b915061201c8261275f565b604082019050919050565b600061203460288361248a565b915061203f826127ae565b604082019050919050565b600061205760258361248a565b9150612062826127fd565b604082019050919050565b600061207a60248361248a565b91506120858261284c565b604082019050919050565b600061209d601d8361248a565b91506120a88261289b565b602082019050919050565b60006120c060118361248a565b91506120cb826128c4565b602082019050919050565b60006120e360128361248a565b91506120ee826128ed565b602082019050919050565b6000612106602a8361248a565b915061211182612916565b604082019050919050565b600061212960258361248a565b915061213482612965565b604082019050919050565b600061214c601f8361248a565b9150612157826129b4565b602082019050919050565b61216b81612563565b82525050565b61217a8161256d565b82525050565b600061218c8284611f22565b915081905092915050565b60006020820190506121ac6000830184611f04565b92915050565b60006060820190506121c76000830186611f04565b6121d46020830185611f04565b6121e16040830184612162565b949350505050565b60006040820190506121fe6000830185611f04565b61220b6020830184612162565b9392505050565b60006020820190506122276000830184611f13565b92915050565b60006020820190506122426000830184611f53565b92915050565b600060208201905081810360008301526122628184611f62565b905092915050565b6000602082019050818103600083015261228381611f9b565b9050919050565b600060208201905081810360008301526122a381611fbe565b9050919050565b600060208201905081810360008301526122c381611fe1565b9050919050565b600060208201905081810360008301526122e381612004565b9050919050565b6000602082019050818103600083015261230381612027565b9050919050565b600060208201905081810360008301526123238161204a565b9050919050565b600060208201905081810360008301526123438161206d565b9050919050565b6000602082019050818103600083015261236381612090565b9050919050565b60006020820190508181036000830152612383816120b3565b9050919050565b600060208201905081810360008301526123a3816120d6565b9050919050565b600060208201905081810360008301526123c3816120f9565b9050919050565b600060208201905081810360008301526123e38161211c565b9050919050565b600060208201905081810360008301526124038161213f565b9050919050565b600060208201905061241f6000830184612162565b92915050565b600060408201905061243a6000830185612162565b6124476020830184612162565b9392505050565b60006020820190506124636000830184612171565b92915050565b600081519050919050565b600081519050919050565b600081905092915050565b600082825260208201905092915050565b60006124a682612563565b91506124b183612563565b9250827fffffffffffffffffffffffffffffffffffffffffffffffffffffffffffffffff038211156124e6576124e5612603565b5b828201905092915050565b60006124fc82612563565b915061250783612563565b92508282101561251a57612519612603565b5b828203905092915050565b600061253082612543565b9050919050565b60008115159050919050565b600073ffffffffffffffffffffffffffffffffffffffff82169050919050565b6000819050919050565b600060ff82169050919050565b60006125858261258c565b9050919050565b600061259782612543565b9050919050565b60005b838110156125bc5780820151818401526020810190506125a1565b838111156125cb576000848401525b50505050565b600060028204905060018216806125e957607f821691505b602082108114156125fd576125fc612632565b5b50919050565b7f4e487b7100000000000000000000000000000000000000000000000000000000600052601160045260246000fd5b7f4e487b7100000000000000000000000000000000000000000000000000000000600052602260045260246000fd5b6000601f19601f8301169050919050565b7f45524332303a207472616e7366657220746f20746865207a65726f206164647260008201527f6573730000000000000000000000000000000000000000000000000000000000602082015250565b7f45524332303a20617070726f766520746f20746865207a65726f20616464726560008201527f7373000000000000000000000000000000000000000000000000000000000000602082015250565b7f45524332303a207472616e7366657220616d6f756e742065786365656473206260008201527f616c616e63650000000000000000000000000000000000000000000000000000602082015250565b7f416464726573733a20696e73756666696369656e742062616c616e636520666f60008201527f722063616c6c0000000000000000000000000000000000000000000000000000602082015250565b7f45524332303a207472616e7366657220616d6f756e742065786365656473206160008201527f6c6c6f77616e6365000000000000000000000000000000000000000000000000602082015250565b7f45524332303a207472616e736665722066726f6d20746865207a65726f20616460008201527f6472657373000000000000000000000000000000000000000000000000000000602082015250565b7f45524332303a20617070726f76652066726f6d20746865207a65726f2061646460008201527f7265737300000000000000000000000000000000000000000000000000000000602082015250565b7f416464726573733a2063616c6c20746f206e6f6e2d636f6e7472616374000000600082015250565b7f4572726f722c206e6f7420656e6f756768000000000000000000000000000000600082015250565b7f616d6f756e742063616e6e6f7420626520300000000000000000000000000000600082015250565b7f5361666545524332303a204552433230206f7065726174696f6e20646964206e60008201527f6f74207375636365656400000000000000000000000000000000000000000000602082015250565b7f45524332303a2064656372656173656420616c6c6f77616e63652062656c6f7760008201527f207a65726f000000000000000000000000000000000000000000000000000000602082015250565b7f45524332303a206d696e7420746f20746865207a65726f206164647265737300600082015250565b6129e681612525565b81146129f157600080fd5b50565b6129fd81612537565b8114612a0857600080fd5b50565b612a1481612563565b8114612a1f57600080fd5b5056fea26469706673582212200df85bda921a112d340d895905e9e8ede74f3528bc0f831a8aab0e8718db05ed64736f6c63430008030033",
  "linkReferences": {},
  "deployedLinkReferences": {}
}