{
  "_format": "hh-sol-artifact-1",
  "contractName": "FarmToken",
  "sourceName": "contracts/FarmToken.sol",
  "abi": [
    {
      "inputs": [
        {
          "internalType": "address",
          "name": "_token",
          "type": "address"
        }
      ],
      "stateMutability": "nonpayable",
      "type": "constructor"
    },
    {
      "anonymous": false,
      "inputs": [
        {
          "indexed": true,
          "internalType": "address",
          "name": "owner",
          "type": "address"
        },
        {
          "indexed": true,
          "internalType": "address",
          "name": "spender",
          "type": "address"
        },
        {
          "indexed": false,
          "internalType": "uint256",
          "name": "value",
          "type": "uint256"
        }
      ],
      "name": "Approval",
      "type": "event"
    },
    {
      "anonymous": false,
      "inputs": [
        {
          "indexed": true,
          "internalType": "address",
          "name": "from",
          "type": "address"
        },
        {
          "indexed": true,
          "internalType": "address",
          "name": "to",
          "type": "address"
        },
        {
          "indexed": false,
          "internalType": "uint256",
          "name": "value",
          "type": "uint256"
        }
      ],
      "name": "Transfer",
      "type": "event"
    },
    {
      "inputs": [
        {
          "internalType": "address",
          "name": "owner",
          "type": "address"
        },
        {
          "internalType": "address",
          "name": "spender",
          "type": "address"
        }
      ],
      "name": "allowance",
      "outputs": [
        {
          "internalType": "uint256",
          "name": "",
          "type": "uint256"
        }
      ],
      "stateMutability": "view",
      "type": "function"
    },
    {
      "inputs": [
        {
          "internalType": "address",
          "name": "spender",
          "type": "address"
        },
        {
          "internalType": "uint256",
          "name": "amount",
          "type": "uint256"
        }
      ],
      "name": "approve",
      "outputs": [
        {
          "internalType": "bool",
          "name": "",
          "type": "bool"
        }
      ],
      "stateMutability": "nonpayable",
      "type": "function"
    },
    {
      "inputs": [],
      "name": "balance",
      "outputs": [
        {
          "internalType": "uint256",
          "name": "",
          "type": "uint256"
        }
      ],
      "stateMutability": "view",
      "type": "function"
    },
    {
      "inputs": [
        {
          "internalType": "address",
          "name": "account",
          "type": "address"
        }
      ],
      "name": "balanceOf",
      "outputs": [
        {
          "internalType": "uint256",
          "name": "",
          "type": "uint256"
        }
      ],
      "stateMutability": "view",
      "type": "function"
    },
    {
      "inputs": [],
      "name": "decimals",
      "outputs": [
        {
          "internalType": "uint8",
          "name": "",
          "type": "uint8"
        }
      ],
      "stateMutability": "view",
      "type": "function"
    },
    {
      "inputs": [
        {
          "internalType": "address",
          "name": "spender",
          "type": "address"
        },
        {
          "internalType": "uint256",
          "name": "subtractedValue",
          "type": "uint256"
        }
      ],
      "name": "decreaseAllowance",
      "outputs": [
        {
          "internalType": "bool",
          "name": "",
          "type": "bool"
        }
      ],
      "stateMutability": "nonpayable",
      "type": "function"
    },
    {
      "inputs": [
        {
          "internalType": "uint256",
          "name": "_amount",
          "type": "uint256"
        }
      ],
      "name": "deposit",
      "outputs": [],
      "stateMutability": "payable",
      "type": "function"
    },
    {
      "inputs": [
        {
          "internalType": "address",
          "name": "",
          "type": "address"
        }
      ],
      "name": "depositStart",
      "outputs": [
        {
          "internalType": "uint256",
          "name": "",
          "type": "uint256"
        }
      ],
      "stateMutability": "view",
      "type": "function"
    },
    {
      "inputs": [
        {
          "internalType": "address",
          "name": "spender",
          "type": "address"
        },
        {
          "internalType": "uint256",
          "name": "addedValue",
          "type": "uint256"
        }
      ],
      "name": "increaseAllowance",
      "outputs": [
        {
          "internalType": "bool",
          "name": "",
          "type": "bool"
        }
      ],
      "stateMutability": "nonpayable",
      "type": "function"
    },
    {
      "inputs": [],
      "name": "name",
      "outputs": [
        {
          "internalType": "string",
          "name": "",
          "type": "string"
        }
      ],
      "stateMutability": "view",
      "type": "function"
    },
    {
      "inputs": [],
      "name": "ownerDepositBalance",
      "outputs": [
        {
          "internalType": "uint256",
          "name": "",
          "type": "uint256"
        }
      ],
      "stateMutability": "view",
      "type": "function"
    },
    {
      "inputs": [],
      "name": "symbol",
      "outputs": [
        {
          "internalType": "string",
          "name": "",
          "type": "string"
        }
      ],
      "stateMutability": "view",
      "type": "function"
    },
    {
      "inputs": [],
      "name": "token",
      "outputs": [
        {
          "internalType": "contract IERC20",
          "name": "",
          "type": "address"
        }
      ],
      "stateMutability": "view",
      "type": "function"
    },
    {
      "inputs": [
        {
          "internalType": "address",
          "name": "",
          "type": "address"
        }
      ],
      "name": "tokenBalanceOf",
      "outputs": [
        {
          "internalType": "uint256",
          "name": "",
          "type": "uint256"
        }
      ],
      "stateMutability": "view",
      "type": "function"
    },
    {
      "inputs": [],
      "name": "totalSupply",
      "outputs": [
        {
          "internalType": "uint256",
          "name": "",
          "type": "uint256"
        }
      ],
      "stateMutability": "view",
      "type": "function"
    },
    {
      "inputs": [
        {
          "internalType": "address",
          "name": "recipient",
          "type": "address"
        },
        {
          "internalType": "uint256",
          "name": "amount",
          "type": "uint256"
        }
      ],
      "name": "transfer",
      "outputs": [
        {
          "internalType": "bool",
          "name": "",
          "type": "bool"
        }
      ],
      "stateMutability": "nonpayable",
      "type": "function"
    },
    {
      "inputs": [
        {
          "internalType": "address",
          "name": "sender",
          "type": "address"
        },
        {
          "internalType": "address",
          "name": "recipient",
          "type": "address"
        },
        {
          "internalType": "uint256",
          "name": "amount",
          "type": "uint256"
        }
      ],
      "name": "transferFrom",
      "outputs": [
        {
          "internalType": "bool",
          "name": "",
          "type": "bool"
        }
      ],
      "stateMutability": "nonpayable",
      "type": "function"
    },
    {
      "inputs": [
        {
          "internalType": "uint256",
          "name": "_amount",
          "type": "uint256"
        }
      ],
      "name": "withdraw",
      "outputs": [],
      "stateMutability": "nonpayable",
      "type": "function"
    }
  ],
  "bytecode": "0x60806040523480156200001157600080fd5b50604051620028a4380380620028a48339818101604052810190620000379190620001e6565b6040518060400160405280600981526020017f4661726d546f6b656e00000000000000000000000000000000000000000000008152506040518060400160405280600381526020017f46524d00000000000000000000000000000000000000000000000000000000008152508160039080519060200190620000bb9291906200011f565b508060049080519060200190620000d49291906200011f565b50505080600560006101000a81548173ffffffffffffffffffffffffffffffffffffffff021916908373ffffffffffffffffffffffffffffffffffffffff16021790555050620002c5565b8280546200012d9062000246565b90600052602060002090601f0160209004810192826200015157600085556200019d565b82601f106200016c57805160ff19168380011785556200019d565b828001600101855582156200019d579182015b828111156200019c5782518255916020019190600101906200017f565b5b509050620001ac9190620001b0565b5090565b5b80821115620001cb576000816000905550600101620001b1565b5090565b600081519050620001e081620002ab565b92915050565b600060208284031215620001f957600080fd5b60006200020984828501620001cf565b91505092915050565b60006200021f8262000226565b9050919050565b600073ffffffffffffffffffffffffffffffffffffffff82169050919050565b600060028204905060018216806200025f57607f821691505b602082108114156200027657620002756200027c565b5b50919050565b7f4e487b7100000000000000000000000000000000000000000000000000000000600052602260045260246000fd5b620002b68162000212565b8114620002c257600080fd5b50565b6125cf80620002d56000396000f3fe6080604052600436106101095760003560e01c8063a04588ed11610095578063b6b55f2511610064578063b6b55f25146103a7578063dd62ed3e146103c3578063e42c08f214610400578063fc0c546a1461043d578063ff87930a1461046857610109565b8063a04588ed146102d7578063a457c2d714610302578063a9059cbb1461033f578063b69ef8a81461037c57610109565b80632e1a7d4d116100dc5780632e1a7d4d146101de578063313ce56714610207578063395093511461023257806370a082311461026f57806395d89b41146102ac57610109565b806306fdde031461010e578063095ea7b31461013957806318160ddd1461017657806323b872dd146101a1575b600080fd5b34801561011a57600080fd5b506101236104a5565b6040516101309190611d2e565b60405180910390f35b34801561014557600080fd5b50610160600480360381019061015b9190611933565b610537565b60405161016d9190611cf8565b60405180910390f35b34801561018257600080fd5b5061018b610555565b6040516101989190611ef0565b60405180910390f35b3480156101ad57600080fd5b506101c860048036038101906101c391906118e4565b61055f565b6040516101d59190611cf8565b60405180910390f35b3480156101ea57600080fd5b5061020560048036038101906102009190611998565b610657565b005b34801561021357600080fd5b5061021c6108cd565b6040516102299190611f0b565b60405180910390f35b34801561023e57600080fd5b5061025960048036038101906102549190611933565b6108d6565b6040516102669190611cf8565b60405180910390f35b34801561027b57600080fd5b506102966004803603810190610291919061187f565b610982565b6040516102a39190611ef0565b60405180910390f35b3480156102b857600080fd5b506102c16109ca565b6040516102ce9190611d2e565b60405180910390f35b3480156102e357600080fd5b506102ec610a5c565b6040516102f99190611ef0565b60405180910390f35b34801561030e57600080fd5b5061032960048036038101906103249190611933565b610aa8565b6040516103369190611cf8565b60405180910390f35b34801561034b57600080fd5b5061036660048036038101906103619190611933565b610b93565b6040516103739190611cf8565b60405180910390f35b34801561038857600080fd5b50610391610bb1565b60405161039e9190611ef0565b60405180910390f35b6103c160048036038101906103bc9190611998565b610c63565b005b3480156103cf57600080fd5b506103ea60048036038101906103e591906118a8565b610e14565b6040516103f79190611ef0565b60405180910390f35b34801561040c57600080fd5b506104276004803603810190610422919061187f565b610e9b565b6040516104349190611ef0565b60405180910390f35b34801561044957600080fd5b50610452610eb3565b60405161045f9190611d13565b60405180910390f35b34801561047457600080fd5b5061048f600480360381019061048a919061187f565b610ed9565b60405161049c9190611ef0565b60405180910390f35b6060600380546104b490612119565b80601f01602080910402602001604051908101604052809291908181526020018280546104e090612119565b801561052d5780601f106105025761010080835404028352916020019161052d565b820191906000526020600020905b81548152906001019060200180831161051057829003601f168201915b5050505050905090565b600061054b610544610ef1565b8484610ef9565b6001905092915050565b6000600254905090565b600061056c8484846110c4565b6000600160008673ffffffffffffffffffffffffffffffffffffffff1673ffffffffffffffffffffffffffffffffffffffff16815260200190815260200160002060006105b7610ef1565b73ffffffffffffffffffffffffffffffffffffffff1673ffffffffffffffffffffffffffffffffffffffff16815260200190815260200160002054905082811015610637576040517f08c379a000000000000000000000000000000000000000000000000000000000815260040161062e90611dd0565b60405180910390fd5b61064b85610643610ef1565b858403610ef9565b60019150509392505050565b600660003373ffffffffffffffffffffffffffffffffffffffff1673ffffffffffffffffffffffffffffffffffffffff168152602001908152602001600020548111156106d9576040517f08c379a00000000000000000000000000000000000000000000000000000000081526004016106d090611e50565b60405180910390fd5b6000600760003373ffffffffffffffffffffffffffffffffffffffff1673ffffffffffffffffffffffffffffffffffffffff16815260200190815260200160002054426107269190612039565b90506000662386f26fc10000600660003373ffffffffffffffffffffffffffffffffffffffff1673ffffffffffffffffffffffffffffffffffffffff1681526020019081526020016000205461077c9190611fae565b6322c5fdbb61078b9190611fdf565b90506000828261079b9190611fdf565b90506107a73382611345565b6107f43385600560009054906101000a900473ffffffffffffffffffffffffffffffffffffffff1673ffffffffffffffffffffffffffffffffffffffff166114a59092919063ffffffff16565b83600660003373ffffffffffffffffffffffffffffffffffffffff1673ffffffffffffffffffffffffffffffffffffffff1681526020019081526020016000205461083f9190612039565b600660003373ffffffffffffffffffffffffffffffffffffffff1673ffffffffffffffffffffffffffffffffffffffff168152602001908152602001600020819055506000600760003373ffffffffffffffffffffffffffffffffffffffff1673ffffffffffffffffffffffffffffffffffffffff1681526020019081526020016000208190555050505050565b60006012905090565b60006109786108e3610ef1565b8484600160006108f1610ef1565b73ffffffffffffffffffffffffffffffffffffffff1673ffffffffffffffffffffffffffffffffffffffff16815260200190815260200160002060008873ffffffffffffffffffffffffffffffffffffffff1673ffffffffffffffffffffffffffffffffffffffff168152602001908152602001600020546109739190611f58565b610ef9565b6001905092915050565b60008060008373ffffffffffffffffffffffffffffffffffffffff1673ffffffffffffffffffffffffffffffffffffffff168152602001908152602001600020549050919050565b6060600480546109d990612119565b80601f0160208091040260200160405190810160405280929190818152602001828054610a0590612119565b8015610a525780601f10610a2757610100808354040283529160200191610a52565b820191906000526020600020905b815481529060010190602001808311610a3557829003601f168201915b5050505050905090565b600080600660003373ffffffffffffffffffffffffffffffffffffffff1673ffffffffffffffffffffffffffffffffffffffff1681526020019081526020016000205490508091505090565b60008060016000610ab7610ef1565b73ffffffffffffffffffffffffffffffffffffffff1673ffffffffffffffffffffffffffffffffffffffff16815260200190815260200160002060008573ffffffffffffffffffffffffffffffffffffffff1673ffffffffffffffffffffffffffffffffffffffff16815260200190815260200160002054905082811015610b74576040517f08c379a0000000000000000000000000000000000000000000000000000000008152600401610b6b90611eb0565b60405180910390fd5b610b88610b7f610ef1565b85858403610ef9565b600191505092915050565b6000610ba7610ba0610ef1565b84846110c4565b6001905092915050565b6000600560009054906101000a900473ffffffffffffffffffffffffffffffffffffffff1673ffffffffffffffffffffffffffffffffffffffff166370a08231306040518263ffffffff1660e01b8152600401610c0e9190611c7d565b60206040518083038186803b158015610c2657600080fd5b505afa158015610c3a573d6000803e3d6000fd5b505050506040513d601f19601f82011682018060405250810190610c5e91906119c1565b905090565b60008111610ca6576040517f08c379a0000000000000000000000000000000000000000000000000000000008152600401610c9d90611e70565b60405180910390fd5b610cf5333083600560009054906101000a900473ffffffffffffffffffffffffffffffffffffffff1673ffffffffffffffffffffffffffffffffffffffff1661152b909392919063ffffffff16565b80600660003373ffffffffffffffffffffffffffffffffffffffff1673ffffffffffffffffffffffffffffffffffffffff16815260200190815260200160002054610d409190611f58565b600660003373ffffffffffffffffffffffffffffffffffffffff1673ffffffffffffffffffffffffffffffffffffffff1681526020019081526020016000208190555042600760003373ffffffffffffffffffffffffffffffffffffffff1673ffffffffffffffffffffffffffffffffffffffff16815260200190815260200160002054610dce9190611f58565b600760003373ffffffffffffffffffffffffffffffffffffffff1673ffffffffffffffffffffffffffffffffffffffff1681526020019081526020016000208190555050565b6000600160008473ffffffffffffffffffffffffffffffffffffffff1673ffffffffffffffffffffffffffffffffffffffff16815260200190815260200160002060008373ffffffffffffffffffffffffffffffffffffffff1673ffffffffffffffffffffffffffffffffffffffff16815260200190815260200160002054905092915050565b60066020528060005260406000206000915090505481565b600560009054906101000a900473ffffffffffffffffffffffffffffffffffffffff1681565b60076020528060005260406000206000915090505481565b600033905090565b600073ffffffffffffffffffffffffffffffffffffffff168373ffffffffffffffffffffffffffffffffffffffff161415610f69576040517f08c379a0000000000000000000000000000000000000000000000000000000008152600401610f6090611e10565b60405180910390fd5b600073ffffffffffffffffffffffffffffffffffffffff168273ffffffffffffffffffffffffffffffffffffffff161415610fd9576040517f08c379a0000000000000000000000000000000000000000000000000000000008152600401610fd090611d70565b60405180910390fd5b80600160008573ffffffffffffffffffffffffffffffffffffffff1673ffffffffffffffffffffffffffffffffffffffff16815260200190815260200160002060008473ffffffffffffffffffffffffffffffffffffffff1673ffffffffffffffffffffffffffffffffffffffff168152602001908152602001600020819055508173ffffffffffffffffffffffffffffffffffffffff168373ffffffffffffffffffffffffffffffffffffffff167f8c5be1e5ebec7d5bd14f71427d1e84f3dd0314c0f7b2291e5b200ac8c7c3b925836040516110b79190611ef0565b60405180910390a3505050565b600073ffffffffffffffffffffffffffffffffffffffff168373ffffffffffffffffffffffffffffffffffffffff161415611134576040517f08c379a000000000000000000000000000000000000000000000000000000000815260040161112b90611df0565b60405180910390fd5b600073ffffffffffffffffffffffffffffffffffffffff168273ffffffffffffffffffffffffffffffffffffffff1614156111a4576040517f08c379a000000000000000000000000000000000000000000000000000000000815260040161119b90611d50565b60405180910390fd5b6111af8383836115b4565b60008060008573ffffffffffffffffffffffffffffffffffffffff1673ffffffffffffffffffffffffffffffffffffffff16815260200190815260200160002054905081811015611235576040517f08c379a000000000000000000000000000000000000000000000000000000000815260040161122c90611d90565b60405180910390fd5b8181036000808673ffffffffffffffffffffffffffffffffffffffff1673ffffffffffffffffffffffffffffffffffffffff16815260200190815260200160002081905550816000808573ffffffffffffffffffffffffffffffffffffffff1673ffffffffffffffffffffffffffffffffffffffff16815260200190815260200160002060008282546112c89190611f58565b925050819055508273ffffffffffffffffffffffffffffffffffffffff168473ffffffffffffffffffffffffffffffffffffffff167fddf252ad1be2c89b69c2b068fc378daa952ba7f163c4a11628f55a4df523b3ef8460405161132c9190611ef0565b60405180910390a361133f8484846115b9565b50505050565b600073ffffffffffffffffffffffffffffffffffffffff168273ffffffffffffffffffffffffffffffffffffffff1614156113b5576040517f08c379a00000000000000000000000000000000000000000000000000000000081526004016113ac90611ed0565b60405180910390fd5b6113c1600083836115b4565b80600260008282546113d39190611f58565b92505081905550806000808473ffffffffffffffffffffffffffffffffffffffff1673ffffffffffffffffffffffffffffffffffffffff16815260200190815260200160002060008282546114289190611f58565b925050819055508173ffffffffffffffffffffffffffffffffffffffff16600073ffffffffffffffffffffffffffffffffffffffff167fddf252ad1be2c89b69c2b068fc378daa952ba7f163c4a11628f55a4df523b3ef8360405161148d9190611ef0565b60405180910390a36114a1600083836115b9565b5050565b6115268363a9059cbb60e01b84846040516024016114c4929190611ccf565b604051602081830303815290604052907bffffffffffffffffffffffffffffffffffffffffffffffffffffffff19166020820180517bffffffffffffffffffffffffffffffffffffffffffffffffffffffff83818316178352505050506115be565b505050565b6115ae846323b872dd60e01b85858560405160240161154c93929190611c98565b604051602081830303815290604052907bffffffffffffffffffffffffffffffffffffffffffffffffffffffff19166020820180517bffffffffffffffffffffffffffffffffffffffffffffffffffffffff83818316178352505050506115be565b50505050565b505050565b505050565b6000611620826040518060400160405280602081526020017f5361666545524332303a206c6f772d6c6576656c2063616c6c206661696c65648152508573ffffffffffffffffffffffffffffffffffffffff166116859092919063ffffffff16565b90506000815111156116805780806020019051810190611640919061196f565b61167f576040517f08c379a000000000000000000000000000000000000000000000000000000000815260040161167690611e90565b60405180910390fd5b5b505050565b6060611694848460008561169d565b90509392505050565b6060824710156116e2576040517f08c379a00000000000000000000000000000000000000000000000000000000081526004016116d990611db0565b60405180910390fd5b6116eb856117b1565b61172a576040517f08c379a000000000000000000000000000000000000000000000000000000000815260040161172190611e30565b60405180910390fd5b6000808673ffffffffffffffffffffffffffffffffffffffff1685876040516117539190611c66565b60006040518083038185875af1925050503d8060008114611790576040519150601f19603f3d011682016040523d82523d6000602084013e611795565b606091505b50915091506117a58282866117c4565b92505050949350505050565b600080823b905060008111915050919050565b606083156117d457829050611824565b6000835111156117e75782518084602001fd5b816040517f08c379a000000000000000000000000000000000000000000000000000000000815260040161181b9190611d2e565b60405180910390fd5b9392505050565b60008135905061183a81612554565b92915050565b60008151905061184f8161256b565b92915050565b60008135905061186481612582565b92915050565b60008151905061187981612582565b92915050565b60006020828403121561189157600080fd5b600061189f8482850161182b565b91505092915050565b600080604083850312156118bb57600080fd5b60006118c98582860161182b565b92505060206118da8582860161182b565b9150509250929050565b6000806000606084860312156118f957600080fd5b60006119078682870161182b565b93505060206119188682870161182b565b925050604061192986828701611855565b9150509250925092565b6000806040838503121561194657600080fd5b60006119548582860161182b565b925050602061196585828601611855565b9150509250929050565b60006020828403121561198157600080fd5b600061198f84828501611840565b91505092915050565b6000602082840312156119aa57600080fd5b60006119b884828501611855565b91505092915050565b6000602082840312156119d357600080fd5b60006119e18482850161186a565b91505092915050565b6119f38161206d565b82525050565b611a028161207f565b82525050565b6000611a1382611f26565b611a1d8185611f3c565b9350611a2d8185602086016120e6565b80840191505092915050565b611a42816120c2565b82525050565b6000611a5382611f31565b611a5d8185611f47565b9350611a6d8185602086016120e6565b611a76816121d8565b840191505092915050565b6000611a8e602383611f47565b9150611a99826121e9565b604082019050919050565b6000611ab1602283611f47565b9150611abc82612238565b604082019050919050565b6000611ad4602683611f47565b9150611adf82612287565b604082019050919050565b6000611af7602683611f47565b9150611b02826122d6565b604082019050919050565b6000611b1a602883611f47565b9150611b2582612325565b604082019050919050565b6000611b3d602583611f47565b9150611b4882612374565b604082019050919050565b6000611b60602483611f47565b9150611b6b826123c3565b604082019050919050565b6000611b83601d83611f47565b9150611b8e82612412565b602082019050919050565b6000611ba6601183611f47565b9150611bb18261243b565b602082019050919050565b6000611bc9601283611f47565b9150611bd482612464565b602082019050919050565b6000611bec602a83611f47565b9150611bf78261248d565b604082019050919050565b6000611c0f602583611f47565b9150611c1a826124dc565b604082019050919050565b6000611c32601f83611f47565b9150611c3d8261252b565b602082019050919050565b611c51816120ab565b82525050565b611c60816120b5565b82525050565b6000611c728284611a08565b915081905092915050565b6000602082019050611c9260008301846119ea565b92915050565b6000606082019050611cad60008301866119ea565b611cba60208301856119ea565b611cc76040830184611c48565b949350505050565b6000604082019050611ce460008301856119ea565b611cf16020830184611c48565b9392505050565b6000602082019050611d0d60008301846119f9565b92915050565b6000602082019050611d286000830184611a39565b92915050565b60006020820190508181036000830152611d488184611a48565b905092915050565b60006020820190508181036000830152611d6981611a81565b9050919050565b60006020820190508181036000830152611d8981611aa4565b9050919050565b60006020820190508181036000830152611da981611ac7565b9050919050565b60006020820190508181036000830152611dc981611aea565b9050919050565b60006020820190508181036000830152611de981611b0d565b9050919050565b60006020820190508181036000830152611e0981611b30565b9050919050565b60006020820190508181036000830152611e2981611b53565b9050919050565b60006020820190508181036000830152611e4981611b76565b9050919050565b60006020820190508181036000830152611e6981611b99565b9050919050565b60006020820190508181036000830152611e8981611bbc565b9050919050565b60006020820190508181036000830152611ea981611bdf565b9050919050565b60006020820190508181036000830152611ec981611c02565b9050919050565b60006020820190508181036000830152611ee981611c25565b9050919050565b6000602082019050611f056000830184611c48565b92915050565b6000602082019050611f206000830184611c57565b92915050565b600081519050919050565b600081519050919050565b600081905092915050565b600082825260208201905092915050565b6000611f63826120ab565b9150611f6e836120ab565b9250827fffffffffffffffffffffffffffffffffffffffffffffffffffffffffffffffff03821115611fa357611fa261214b565b5b828201905092915050565b6000611fb9826120ab565b9150611fc4836120ab565b925082611fd457611fd361217a565b5b828204905092915050565b6000611fea826120ab565b9150611ff5836120ab565b9250817fffffffffffffffffffffffffffffffffffffffffffffffffffffffffffffffff048311821515161561202e5761202d61214b565b5b828202905092915050565b6000612044826120ab565b915061204f836120ab565b9250828210156120625761206161214b565b5b828203905092915050565b60006120788261208b565b9050919050565b60008115159050919050565b600073ffffffffffffffffffffffffffffffffffffffff82169050919050565b6000819050919050565b600060ff82169050919050565b60006120cd826120d4565b9050919050565b60006120df8261208b565b9050919050565b60005b838110156121045780820151818401526020810190506120e9565b83811115612113576000848401525b50505050565b6000600282049050600182168061213157607f821691505b60208210811415612145576121446121a9565b5b50919050565b7f4e487b7100000000000000000000000000000000000000000000000000000000600052601160045260246000fd5b7f4e487b7100000000000000000000000000000000000000000000000000000000600052601260045260246000fd5b7f4e487b7100000000000000000000000000000000000000000000000000000000600052602260045260246000fd5b6000601f19601f8301169050919050565b7f45524332303a207472616e7366657220746f20746865207a65726f206164647260008201527f6573730000000000000000000000000000000000000000000000000000000000602082015250565b7f45524332303a20617070726f766520746f20746865207a65726f20616464726560008201527f7373000000000000000000000000000000000000000000000000000000000000602082015250565b7f45524332303a207472616e7366657220616d6f756e742065786365656473206260008201527f616c616e63650000000000000000000000000000000000000000000000000000602082015250565b7f416464726573733a20696e73756666696369656e742062616c616e636520666f60008201527f722063616c6c0000000000000000000000000000000000000000000000000000602082015250565b7f45524332303a207472616e7366657220616d6f756e742065786365656473206160008201527f6c6c6f77616e6365000000000000000000000000000000000000000000000000602082015250565b7f45524332303a207472616e736665722066726f6d20746865207a65726f20616460008201527f6472657373000000000000000000000000000000000000000000000000000000602082015250565b7f45524332303a20617070726f76652066726f6d20746865207a65726f2061646460008201527f7265737300000000000000000000000000000000000000000000000000000000602082015250565b7f416464726573733a2063616c6c20746f206e6f6e2d636f6e7472616374000000600082015250565b7f4572726f722c206e6f7420656e6f756768000000000000000000000000000000600082015250565b7f616d6f756e742063616e6e6f7420626520300000000000000000000000000000600082015250565b7f5361666545524332303a204552433230206f7065726174696f6e20646964206e60008201527f6f74207375636365656400000000000000000000000000000000000000000000602082015250565b7f45524332303a2064656372656173656420616c6c6f77616e63652062656c6f7760008201527f207a65726f000000000000000000000000000000000000000000000000000000602082015250565b7f45524332303a206d696e7420746f20746865207a65726f206164647265737300600082015250565b61255d8161206d565b811461256857600080fd5b50565b6125748161207f565b811461257f57600080fd5b50565b61258b816120ab565b811461259657600080fd5b5056fea2646970667358221220524777262d6c476e053f818939ed24c9fb0b3adb800bd681d910b3ff602b61a464736f6c63430008030033",
  "linkReferences": {},
  "deployedLinkReferences": {}
}