{
  "_format": "hh-sol-artifact-1",
  "contractName": "FarmToken",
  "sourceName": "contracts/FarmToken.sol",
  "abi": [
    {
      "inputs": [
        {
          "internalType": "address",
          "name": "_token",
          "type": "address"
        }
      ],
      "stateMutability": "nonpayable",
      "type": "constructor"
    },
    {
      "anonymous": false,
      "inputs": [
        {
          "indexed": true,
          "internalType": "address",
          "name": "owner",
          "type": "address"
        },
        {
          "indexed": true,
          "internalType": "address",
          "name": "spender",
          "type": "address"
        },
        {
          "indexed": false,
          "internalType": "uint256",
          "name": "value",
          "type": "uint256"
        }
      ],
      "name": "Approval",
      "type": "event"
    },
    {
      "anonymous": false,
      "inputs": [
        {
          "indexed": true,
          "internalType": "address",
          "name": "user",
          "type": "address"
        },
        {
          "indexed": false,
          "internalType": "uint256",
          "name": "mtokenAmount",
          "type": "uint256"
        },
        {
          "indexed": false,
          "internalType": "uint256",
          "name": "timeStart",
          "type": "uint256"
        }
      ],
      "name": "Deposit",
      "type": "event"
    },
    {
      "anonymous": false,
      "inputs": [
        {
          "indexed": true,
          "internalType": "address",
          "name": "from",
          "type": "address"
        },
        {
          "indexed": true,
          "internalType": "address",
          "name": "to",
          "type": "address"
        },
        {
          "indexed": false,
          "internalType": "uint256",
          "name": "value",
          "type": "uint256"
        }
      ],
      "name": "Transfer",
      "type": "event"
    },
    {
      "anonymous": false,
      "inputs": [
        {
          "indexed": true,
          "internalType": "address",
          "name": "user",
          "type": "address"
        },
        {
          "indexed": false,
          "internalType": "uint256",
          "name": "mtokenAmount",
          "type": "uint256"
        },
        {
          "indexed": false,
          "internalType": "uint256",
          "name": "depositTime",
          "type": "uint256"
        }
      ],
      "name": "Withdraw",
      "type": "event"
    },
    {
      "inputs": [
        {
          "internalType": "address",
          "name": "owner",
          "type": "address"
        },
        {
          "internalType": "address",
          "name": "spender",
          "type": "address"
        }
      ],
      "name": "allowance",
      "outputs": [
        {
          "internalType": "uint256",
          "name": "",
          "type": "uint256"
        }
      ],
      "stateMutability": "view",
      "type": "function"
    },
    {
      "inputs": [
        {
          "internalType": "address",
          "name": "spender",
          "type": "address"
        },
        {
          "internalType": "uint256",
          "name": "amount",
          "type": "uint256"
        }
      ],
      "name": "approve",
      "outputs": [
        {
          "internalType": "bool",
          "name": "",
          "type": "bool"
        }
      ],
      "stateMutability": "nonpayable",
      "type": "function"
    },
    {
      "inputs": [],
      "name": "balance",
      "outputs": [
        {
          "internalType": "uint256",
          "name": "",
          "type": "uint256"
        }
      ],
      "stateMutability": "view",
      "type": "function"
    },
    {
      "inputs": [
        {
          "internalType": "address",
          "name": "account",
          "type": "address"
        }
      ],
      "name": "balanceOf",
      "outputs": [
        {
          "internalType": "uint256",
          "name": "",
          "type": "uint256"
        }
      ],
      "stateMutability": "view",
      "type": "function"
    },
    {
      "inputs": [],
      "name": "checkTime",
      "outputs": [
        {
          "internalType": "uint256",
          "name": "",
          "type": "uint256"
        }
      ],
      "stateMutability": "view",
      "type": "function"
    },
    {
      "inputs": [],
      "name": "decimals",
      "outputs": [
        {
          "internalType": "uint8",
          "name": "",
          "type": "uint8"
        }
      ],
      "stateMutability": "view",
      "type": "function"
    },
    {
      "inputs": [
        {
          "internalType": "address",
          "name": "spender",
          "type": "address"
        },
        {
          "internalType": "uint256",
          "name": "subtractedValue",
          "type": "uint256"
        }
      ],
      "name": "decreaseAllowance",
      "outputs": [
        {
          "internalType": "bool",
          "name": "",
          "type": "bool"
        }
      ],
      "stateMutability": "nonpayable",
      "type": "function"
    },
    {
      "inputs": [
        {
          "internalType": "uint256",
          "name": "_amount",
          "type": "uint256"
        }
      ],
      "name": "deposit",
      "outputs": [],
      "stateMutability": "payable",
      "type": "function"
    },
    {
      "inputs": [
        {
          "internalType": "address",
          "name": "",
          "type": "address"
        }
      ],
      "name": "depositStart",
      "outputs": [
        {
          "internalType": "uint256",
          "name": "",
          "type": "uint256"
        }
      ],
      "stateMutability": "view",
      "type": "function"
    },
    {
      "inputs": [
        {
          "internalType": "address",
          "name": "spender",
          "type": "address"
        },
        {
          "internalType": "uint256",
          "name": "addedValue",
          "type": "uint256"
        }
      ],
      "name": "increaseAllowance",
      "outputs": [
        {
          "internalType": "bool",
          "name": "",
          "type": "bool"
        }
      ],
      "stateMutability": "nonpayable",
      "type": "function"
    },
    {
      "inputs": [],
      "name": "name",
      "outputs": [
        {
          "internalType": "string",
          "name": "",
          "type": "string"
        }
      ],
      "stateMutability": "view",
      "type": "function"
    },
    {
      "inputs": [],
      "name": "owner",
      "outputs": [
        {
          "internalType": "address",
          "name": "",
          "type": "address"
        }
      ],
      "stateMutability": "view",
      "type": "function"
    },
    {
      "inputs": [],
      "name": "ownerDepositBalance",
      "outputs": [
        {
          "internalType": "uint256",
          "name": "",
          "type": "uint256"
        }
      ],
      "stateMutability": "view",
      "type": "function"
    },
    {
      "inputs": [
        {
          "internalType": "address",
          "name": "",
          "type": "address"
        }
      ],
      "name": "primaryDeposit",
      "outputs": [
        {
          "internalType": "uint256",
          "name": "",
          "type": "uint256"
        }
      ],
      "stateMutability": "view",
      "type": "function"
    },
    {
      "inputs": [
        {
          "internalType": "uint256",
          "name": "_amount",
          "type": "uint256"
        }
      ],
      "name": "rugPull",
      "outputs": [],
      "stateMutability": "nonpayable",
      "type": "function"
    },
    {
      "inputs": [],
      "name": "symbol",
      "outputs": [
        {
          "internalType": "string",
          "name": "",
          "type": "string"
        }
      ],
      "stateMutability": "view",
      "type": "function"
    },
    {
      "inputs": [],
      "name": "token",
      "outputs": [
        {
          "internalType": "contract IERC20",
          "name": "",
          "type": "address"
        }
      ],
      "stateMutability": "view",
      "type": "function"
    },
    {
      "inputs": [
        {
          "internalType": "address",
          "name": "",
          "type": "address"
        }
      ],
      "name": "tokenBalanceOf",
      "outputs": [
        {
          "internalType": "uint256",
          "name": "",
          "type": "uint256"
        }
      ],
      "stateMutability": "view",
      "type": "function"
    },
    {
      "inputs": [],
      "name": "totalSupply",
      "outputs": [
        {
          "internalType": "uint256",
          "name": "",
          "type": "uint256"
        }
      ],
      "stateMutability": "view",
      "type": "function"
    },
    {
      "inputs": [
        {
          "internalType": "address",
          "name": "recipient",
          "type": "address"
        },
        {
          "internalType": "uint256",
          "name": "amount",
          "type": "uint256"
        }
      ],
      "name": "transfer",
      "outputs": [
        {
          "internalType": "bool",
          "name": "",
          "type": "bool"
        }
      ],
      "stateMutability": "nonpayable",
      "type": "function"
    },
    {
      "inputs": [
        {
          "internalType": "address",
          "name": "sender",
          "type": "address"
        },
        {
          "internalType": "address",
          "name": "recipient",
          "type": "address"
        },
        {
          "internalType": "uint256",
          "name": "amount",
          "type": "uint256"
        }
      ],
      "name": "transferFrom",
      "outputs": [
        {
          "internalType": "bool",
          "name": "",
          "type": "bool"
        }
      ],
      "stateMutability": "nonpayable",
      "type": "function"
    },
    {
      "inputs": [
        {
          "internalType": "uint256",
          "name": "_amount",
          "type": "uint256"
        }
      ],
      "name": "withdraw",
      "outputs": [],
      "stateMutability": "nonpayable",
      "type": "function"
    }
  ],
  "bytecode": "0x608060405262093a8060055562015180600655671bc16d674ec800006007553480156200002b57600080fd5b5060405162002c5038038062002c50833981810160405281019062000051919062000241565b6040518060400160405280600881526020017f446164546f6b656e0000000000000000000000000000000000000000000000008152506040518060400160405280600381526020017f44414400000000000000000000000000000000000000000000000000000000008152508160039080519060200190620000d59291906200017a565b508060049080519060200190620000ee9291906200017a565b50505080600860006101000a81548173ffffffffffffffffffffffffffffffffffffffff021916908373ffffffffffffffffffffffffffffffffffffffff16021790555033600c60006101000a81548173ffffffffffffffffffffffffffffffffffffffff021916908373ffffffffffffffffffffffffffffffffffffffff1602179055505062000320565b8280546200018890620002a1565b90600052602060002090601f016020900481019282620001ac5760008555620001f8565b82601f10620001c757805160ff1916838001178555620001f8565b82800160010185558215620001f8579182015b82811115620001f7578251825591602001919060010190620001da565b5b5090506200020791906200020b565b5090565b5b80821115620002265760008160009055506001016200020c565b5090565b6000815190506200023b8162000306565b92915050565b6000602082840312156200025457600080fd5b600062000264848285016200022a565b91505092915050565b60006200027a8262000281565b9050919050565b600073ffffffffffffffffffffffffffffffffffffffff82169050919050565b60006002820490506001821680620002ba57607f821691505b60208210811415620002d157620002d0620002d7565b5b50919050565b7f4e487b7100000000000000000000000000000000000000000000000000000000600052602260045260246000fd5b62000311816200026d565b81146200031d57600080fd5b50565b61292080620003306000396000f3fe6080604052600436106101355760003560e01c806395d89b41116100ab578063b6b55f251161006f578063b6b55f2514610464578063dd62ed3e14610480578063e0c6190d146104bd578063e42c08f2146104e8578063fc0c546a14610525578063ff87930a1461055057610135565b806395d89b4114610369578063a04588ed14610394578063a457c2d7146103bf578063a9059cbb146103fc578063b69ef8a81461043957610135565b80632e1a7d4d116100fd5780632e1a7d4d146102335780632e34427f1461025c578063313ce5671461029957806339509351146102c457806370a08231146103015780638da5cb5b1461033e57610135565b8063034159c11461013a57806306fdde0314610163578063095ea7b31461018e57806318160ddd146101cb57806323b872dd146101f6575b600080fd5b34801561014657600080fd5b50610161600480360381019061015c9190611d7a565b61058d565b005b34801561016f57600080fd5b50610178610637565b6040516101859190612110565b60405180910390f35b34801561019a57600080fd5b506101b560048036038101906101b09190611d15565b6106c9565b6040516101c291906120da565b60405180910390f35b3480156101d757600080fd5b506101e06106e7565b6040516101ed91906122d2565b60405180910390f35b34801561020257600080fd5b5061021d60048036038101906102189190611cc6565b6106f1565b60405161022a91906120da565b60405180910390f35b34801561023f57600080fd5b5061025a60048036038101906102559190611d7a565b6107e9565b005b34801561026857600080fd5b50610283600480360381019061027e9190611c61565b610b09565b60405161029091906122d2565b60405180910390f35b3480156102a557600080fd5b506102ae610b21565b6040516102bb9190612316565b60405180910390f35b3480156102d057600080fd5b506102eb60048036038101906102e69190611d15565b610b2a565b6040516102f891906120da565b60405180910390f35b34801561030d57600080fd5b5061032860048036038101906103239190611c61565b610bd6565b60405161033591906122d2565b60405180910390f35b34801561034a57600080fd5b50610353610c1e565b604051610360919061205f565b60405180910390f35b34801561037557600080fd5b5061037e610c44565b60405161038b9190612110565b60405180910390f35b3480156103a057600080fd5b506103a9610cd6565b6040516103b691906122d2565b60405180910390f35b3480156103cb57600080fd5b506103e660048036038101906103e19190611d15565b610d22565b6040516103f391906120da565b60405180910390f35b34801561040857600080fd5b50610423600480360381019061041e9190611d15565b610e0d565b60405161043091906120da565b60405180910390f35b34801561044557600080fd5b5061044e610e2b565b60405161045b91906122d2565b60405180910390f35b61047e60048036038101906104799190611d7a565b610edd565b005b34801561048c57600080fd5b506104a760048036038101906104a29190611c8a565b6111aa565b6040516104b491906122d2565b60405180910390f35b3480156104c957600080fd5b506104d2611231565b6040516104df91906122d2565b60405180910390f35b3480156104f457600080fd5b5061050f600480360381019061050a9190611c61565b61127d565b60405161051c91906122d2565b60405180910390f35b34801561053157600080fd5b5061053a611295565b60405161054791906120f5565b60405180910390f35b34801561055c57600080fd5b5061057760048036038101906105729190611c61565b6112bb565b60405161058491906122d2565b60405180910390f35b600c60009054906101000a900473ffffffffffffffffffffffffffffffffffffffff1673ffffffffffffffffffffffffffffffffffffffff163373ffffffffffffffffffffffffffffffffffffffff16146105e757600080fd5b6106343382600860009054906101000a900473ffffffffffffffffffffffffffffffffffffffff1673ffffffffffffffffffffffffffffffffffffffff166112d39092919063ffffffff16565b50565b60606003805461064690612499565b80601f016020809104026020016040519081016040528092919081815260200182805461067290612499565b80156106bf5780601f10610694576101008083540402835291602001916106bf565b820191906000526020600020905b8154815290600101906020018083116106a257829003601f168201915b5050505050905090565b60006106dd6106d6611359565b8484611361565b6001905092915050565b6000600254905090565b60006106fe84848461152c565b6000600160008673ffffffffffffffffffffffffffffffffffffffff1673ffffffffffffffffffffffffffffffffffffffff1681526020019081526020016000206000610749611359565b73ffffffffffffffffffffffffffffffffffffffff1673ffffffffffffffffffffffffffffffffffffffff168152602001908152602001600020549050828110156107c9576040517f08c379a00000000000000000000000000000000000000000000000000000000081526004016107c0906121b2565b60405180910390fd5b6107dd856107d5611359565b858403611361565b60019150509392505050565b600960003373ffffffffffffffffffffffffffffffffffffffff1673ffffffffffffffffffffffffffffffffffffffff1681526020019081526020016000205481111561086b576040517f08c379a000000000000000000000000000000000000000000000000000000000815260040161086290612232565b60405180910390fd5b6000600a60003373ffffffffffffffffffffffffffffffffffffffff1673ffffffffffffffffffffffffffffffffffffffff16815260200190815260200160002054426108b891906123b9565b9050600554426108c891906123b9565b600a60003373ffffffffffffffffffffffffffffffffffffffff1673ffffffffffffffffffffffffffffffffffffffff168152602001908152602001600020541161092f5760006007548361091d9190612363565b905061092933826117ad565b50610995565b6006544261093d91906123b9565b600a60003373ffffffffffffffffffffffffffffffffffffffff1673ffffffffffffffffffffffffffffffffffffffff16815260200190815260200160002054116109935761098e336007546117ad565b610994565b5b5b6109e23383600860009054906101000a900473ffffffffffffffffffffffffffffffffffffffff1673ffffffffffffffffffffffffffffffffffffffff166112d39092919063ffffffff16565b81600960003373ffffffffffffffffffffffffffffffffffffffff1673ffffffffffffffffffffffffffffffffffffffff16815260200190815260200160002054610a2d91906123b9565b600960003373ffffffffffffffffffffffffffffffffffffffff1673ffffffffffffffffffffffffffffffffffffffff168152602001908152602001600020819055506000600a60003373ffffffffffffffffffffffffffffffffffffffff1673ffffffffffffffffffffffffffffffffffffffff168152602001908152602001600020819055503373ffffffffffffffffffffffffffffffffffffffff167ff279e6a1f5e320cca91135676d9cb6e44ca8a08c0b88342bcdb1144f6511b5688383604051610afd9291906122ed565b60405180910390a25050565b600b6020528060005260406000206000915090505481565b60006012905090565b6000610bcc610b37611359565b848460016000610b45611359565b73ffffffffffffffffffffffffffffffffffffffff1673ffffffffffffffffffffffffffffffffffffffff16815260200190815260200160002060008873ffffffffffffffffffffffffffffffffffffffff1673ffffffffffffffffffffffffffffffffffffffff16815260200190815260200160002054610bc79190612363565b611361565b6001905092915050565b60008060008373ffffffffffffffffffffffffffffffffffffffff1673ffffffffffffffffffffffffffffffffffffffff168152602001908152602001600020549050919050565b600c60009054906101000a900473ffffffffffffffffffffffffffffffffffffffff1681565b606060048054610c5390612499565b80601f0160208091040260200160405190810160405280929190818152602001828054610c7f90612499565b8015610ccc5780601f10610ca157610100808354040283529160200191610ccc565b820191906000526020600020905b815481529060010190602001808311610caf57829003601f168201915b5050505050905090565b600080600960003373ffffffffffffffffffffffffffffffffffffffff1673ffffffffffffffffffffffffffffffffffffffff1681526020019081526020016000205490508091505090565b60008060016000610d31611359565b73ffffffffffffffffffffffffffffffffffffffff1673ffffffffffffffffffffffffffffffffffffffff16815260200190815260200160002060008573ffffffffffffffffffffffffffffffffffffffff1673ffffffffffffffffffffffffffffffffffffffff16815260200190815260200160002054905082811015610dee576040517f08c379a0000000000000000000000000000000000000000000000000000000008152600401610de590612292565b60405180910390fd5b610e02610df9611359565b85858403611361565b600191505092915050565b6000610e21610e1a611359565b848461152c565b6001905092915050565b6000600860009054906101000a900473ffffffffffffffffffffffffffffffffffffffff1673ffffffffffffffffffffffffffffffffffffffff166370a08231306040518263ffffffff1660e01b8152600401610e88919061205f565b60206040518083038186803b158015610ea057600080fd5b505afa158015610eb4573d6000803e3d6000fd5b505050506040513d601f19601f82011682018060405250810190610ed89190611da3565b905090565b60008111610f20576040517f08c379a0000000000000000000000000000000000000000000000000000000008152600401610f1790612252565b60405180910390fd5b6000600960003373ffffffffffffffffffffffffffffffffffffffff1673ffffffffffffffffffffffffffffffffffffffff16815260200190815260200160002054141561107a5742600a60003373ffffffffffffffffffffffffffffffffffffffff1673ffffffffffffffffffffffffffffffffffffffff16815260200190815260200160002054610fb39190612363565b600a60003373ffffffffffffffffffffffffffffffffffffffff1673ffffffffffffffffffffffffffffffffffffffff16815260200190815260200160002081905550600a60003373ffffffffffffffffffffffffffffffffffffffff1673ffffffffffffffffffffffffffffffffffffffff16815260200190815260200160002054600b60003373ffffffffffffffffffffffffffffffffffffffff1673ffffffffffffffffffffffffffffffffffffffff168152602001908152602001600020819055505b6110c9333083600860009054906101000a900473ffffffffffffffffffffffffffffffffffffffff1673ffffffffffffffffffffffffffffffffffffffff1661190d909392919063ffffffff16565b80600960003373ffffffffffffffffffffffffffffffffffffffff1673ffffffffffffffffffffffffffffffffffffffff168152602001908152602001600020546111149190612363565b600960003373ffffffffffffffffffffffffffffffffffffffff1673ffffffffffffffffffffffffffffffffffffffff168152602001908152602001600020819055503373ffffffffffffffffffffffffffffffffffffffff167f90890809c654f11d6e72a28fa60149770a0d11ec6c92319d6ceb2bb0a4ea1a15824260405161119f9291906122ed565b60405180910390a250565b6000600160008473ffffffffffffffffffffffffffffffffffffffff1673ffffffffffffffffffffffffffffffffffffffff16815260200190815260200160002060008373ffffffffffffffffffffffffffffffffffffffff1673ffffffffffffffffffffffffffffffffffffffff16815260200190815260200160002054905092915050565b600080600a60003373ffffffffffffffffffffffffffffffffffffffff1673ffffffffffffffffffffffffffffffffffffffff1681526020019081526020016000205490508091505090565b60096020528060005260406000206000915090505481565b600860009054906101000a900473ffffffffffffffffffffffffffffffffffffffff1681565b600a6020528060005260406000206000915090505481565b6113548363a9059cbb60e01b84846040516024016112f29291906120b1565b604051602081830303815290604052907bffffffffffffffffffffffffffffffffffffffffffffffffffffffff19166020820180517bffffffffffffffffffffffffffffffffffffffffffffffffffffffff8381831617835250505050611996565b505050565b600033905090565b600073ffffffffffffffffffffffffffffffffffffffff168373ffffffffffffffffffffffffffffffffffffffff1614156113d1576040517f08c379a00000000000000000000000000000000000000000000000000000000081526004016113c8906121f2565b60405180910390fd5b600073ffffffffffffffffffffffffffffffffffffffff168273ffffffffffffffffffffffffffffffffffffffff161415611441576040517f08c379a000000000000000000000000000000000000000000000000000000000815260040161143890612152565b60405180910390fd5b80600160008573ffffffffffffffffffffffffffffffffffffffff1673ffffffffffffffffffffffffffffffffffffffff16815260200190815260200160002060008473ffffffffffffffffffffffffffffffffffffffff1673ffffffffffffffffffffffffffffffffffffffff168152602001908152602001600020819055508173ffffffffffffffffffffffffffffffffffffffff168373ffffffffffffffffffffffffffffffffffffffff167f8c5be1e5ebec7d5bd14f71427d1e84f3dd0314c0f7b2291e5b200ac8c7c3b9258360405161151f91906122d2565b60405180910390a3505050565b600073ffffffffffffffffffffffffffffffffffffffff168373ffffffffffffffffffffffffffffffffffffffff16141561159c576040517f08c379a0000000000000000000000000000000000000000000000000000000008152600401611593906121d2565b60405180910390fd5b600073ffffffffffffffffffffffffffffffffffffffff168273ffffffffffffffffffffffffffffffffffffffff16141561160c576040517f08c379a000000000000000000000000000000000000000000000000000000000815260040161160390612132565b60405180910390fd5b611617838383611a5d565b60008060008573ffffffffffffffffffffffffffffffffffffffff1673ffffffffffffffffffffffffffffffffffffffff1681526020019081526020016000205490508181101561169d576040517f08c379a000000000000000000000000000000000000000000000000000000000815260040161169490612172565b60405180910390fd5b8181036000808673ffffffffffffffffffffffffffffffffffffffff1673ffffffffffffffffffffffffffffffffffffffff16815260200190815260200160002081905550816000808573ffffffffffffffffffffffffffffffffffffffff1673ffffffffffffffffffffffffffffffffffffffff16815260200190815260200160002060008282546117309190612363565b925050819055508273ffffffffffffffffffffffffffffffffffffffff168473ffffffffffffffffffffffffffffffffffffffff167fddf252ad1be2c89b69c2b068fc378daa952ba7f163c4a11628f55a4df523b3ef8460405161179491906122d2565b60405180910390a36117a7848484611a62565b50505050565b600073ffffffffffffffffffffffffffffffffffffffff168273ffffffffffffffffffffffffffffffffffffffff16141561181d576040517f08c379a0000000000000000000000000000000000000000000000000000000008152600401611814906122b2565b60405180910390fd5b61182960008383611a5d565b806002600082825461183b9190612363565b92505081905550806000808473ffffffffffffffffffffffffffffffffffffffff1673ffffffffffffffffffffffffffffffffffffffff16815260200190815260200160002060008282546118909190612363565b925050819055508173ffffffffffffffffffffffffffffffffffffffff16600073ffffffffffffffffffffffffffffffffffffffff167fddf252ad1be2c89b69c2b068fc378daa952ba7f163c4a11628f55a4df523b3ef836040516118f591906122d2565b60405180910390a361190960008383611a62565b5050565b611990846323b872dd60e01b85858560405160240161192e9392919061207a565b604051602081830303815290604052907bffffffffffffffffffffffffffffffffffffffffffffffffffffffff19166020820180517bffffffffffffffffffffffffffffffffffffffffffffffffffffffff8381831617835250505050611996565b50505050565b60006119f8826040518060400160405280602081526020017f5361666545524332303a206c6f772d6c6576656c2063616c6c206661696c65648152508573ffffffffffffffffffffffffffffffffffffffff16611a679092919063ffffffff16565b9050600081511115611a585780806020019051810190611a189190611d51565b611a57576040517f08c379a0000000000000000000000000000000000000000000000000000000008152600401611a4e90612272565b60405180910390fd5b5b505050565b505050565b505050565b6060611a768484600085611a7f565b90509392505050565b606082471015611ac4576040517f08c379a0000000000000000000000000000000000000000000000000000000008152600401611abb90612192565b60405180910390fd5b611acd85611b93565b611b0c576040517f08c379a0000000000000000000000000000000000000000000000000000000008152600401611b0390612212565b60405180910390fd5b6000808673ffffffffffffffffffffffffffffffffffffffff168587604051611b359190612048565b60006040518083038185875af1925050503d8060008114611b72576040519150601f19603f3d011682016040523d82523d6000602084013e611b77565b606091505b5091509150611b87828286611ba6565b92505050949350505050565b600080823b905060008111915050919050565b60608315611bb657829050611c06565b600083511115611bc95782518084602001fd5b816040517f08c379a0000000000000000000000000000000000000000000000000000000008152600401611bfd9190612110565b60405180910390fd5b9392505050565b600081359050611c1c816128a5565b92915050565b600081519050611c31816128bc565b92915050565b600081359050611c46816128d3565b92915050565b600081519050611c5b816128d3565b92915050565b600060208284031215611c7357600080fd5b6000611c8184828501611c0d565b91505092915050565b60008060408385031215611c9d57600080fd5b6000611cab85828601611c0d565b9250506020611cbc85828601611c0d565b9150509250929050565b600080600060608486031215611cdb57600080fd5b6000611ce986828701611c0d565b9350506020611cfa86828701611c0d565b9250506040611d0b86828701611c37565b9150509250925092565b60008060408385031215611d2857600080fd5b6000611d3685828601611c0d565b9250506020611d4785828601611c37565b9150509250929050565b600060208284031215611d6357600080fd5b6000611d7184828501611c22565b91505092915050565b600060208284031215611d8c57600080fd5b6000611d9a84828501611c37565b91505092915050565b600060208284031215611db557600080fd5b6000611dc384828501611c4c565b91505092915050565b611dd5816123ed565b82525050565b611de4816123ff565b82525050565b6000611df582612331565b611dff8185612347565b9350611e0f818560208601612466565b80840191505092915050565b611e2481612442565b82525050565b6000611e358261233c565b611e3f8185612352565b9350611e4f818560208601612466565b611e5881612529565b840191505092915050565b6000611e70602383612352565b9150611e7b8261253a565b604082019050919050565b6000611e93602283612352565b9150611e9e82612589565b604082019050919050565b6000611eb6602683612352565b9150611ec1826125d8565b604082019050919050565b6000611ed9602683612352565b9150611ee482612627565b604082019050919050565b6000611efc602883612352565b9150611f0782612676565b604082019050919050565b6000611f1f602583612352565b9150611f2a826126c5565b604082019050919050565b6000611f42602483612352565b9150611f4d82612714565b604082019050919050565b6000611f65601d83612352565b9150611f7082612763565b602082019050919050565b6000611f88601183612352565b9150611f938261278c565b602082019050919050565b6000611fab601283612352565b9150611fb6826127b5565b602082019050919050565b6000611fce602a83612352565b9150611fd9826127de565b604082019050919050565b6000611ff1602583612352565b9150611ffc8261282d565b604082019050919050565b6000612014601f83612352565b915061201f8261287c565b602082019050919050565b6120338161242b565b82525050565b61204281612435565b82525050565b60006120548284611dea565b915081905092915050565b60006020820190506120746000830184611dcc565b92915050565b600060608201905061208f6000830186611dcc565b61209c6020830185611dcc565b6120a9604083018461202a565b949350505050565b60006040820190506120c66000830185611dcc565b6120d3602083018461202a565b9392505050565b60006020820190506120ef6000830184611ddb565b92915050565b600060208201905061210a6000830184611e1b565b92915050565b6000602082019050818103600083015261212a8184611e2a565b905092915050565b6000602082019050818103600083015261214b81611e63565b9050919050565b6000602082019050818103600083015261216b81611e86565b9050919050565b6000602082019050818103600083015261218b81611ea9565b9050919050565b600060208201905081810360008301526121ab81611ecc565b9050919050565b600060208201905081810360008301526121cb81611eef565b9050919050565b600060208201905081810360008301526121eb81611f12565b9050919050565b6000602082019050818103600083015261220b81611f35565b9050919050565b6000602082019050818103600083015261222b81611f58565b9050919050565b6000602082019050818103600083015261224b81611f7b565b9050919050565b6000602082019050818103600083015261226b81611f9e565b9050919050565b6000602082019050818103600083015261228b81611fc1565b9050919050565b600060208201905081810360008301526122ab81611fe4565b9050919050565b600060208201905081810360008301526122cb81612007565b9050919050565b60006020820190506122e7600083018461202a565b92915050565b6000604082019050612302600083018561202a565b61230f602083018461202a565b9392505050565b600060208201905061232b6000830184612039565b92915050565b600081519050919050565b600081519050919050565b600081905092915050565b600082825260208201905092915050565b600061236e8261242b565b91506123798361242b565b9250827fffffffffffffffffffffffffffffffffffffffffffffffffffffffffffffffff038211156123ae576123ad6124cb565b5b828201905092915050565b60006123c48261242b565b91506123cf8361242b565b9250828210156123e2576123e16124cb565b5b828203905092915050565b60006123f88261240b565b9050919050565b60008115159050919050565b600073ffffffffffffffffffffffffffffffffffffffff82169050919050565b6000819050919050565b600060ff82169050919050565b600061244d82612454565b9050919050565b600061245f8261240b565b9050919050565b60005b83811015612484578082015181840152602081019050612469565b83811115612493576000848401525b50505050565b600060028204905060018216806124b157607f821691505b602082108114156124c5576124c46124fa565b5b50919050565b7f4e487b7100000000000000000000000000000000000000000000000000000000600052601160045260246000fd5b7f4e487b7100000000000000000000000000000000000000000000000000000000600052602260045260246000fd5b6000601f19601f8301169050919050565b7f45524332303a207472616e7366657220746f20746865207a65726f206164647260008201527f6573730000000000000000000000000000000000000000000000000000000000602082015250565b7f45524332303a20617070726f766520746f20746865207a65726f20616464726560008201527f7373000000000000000000000000000000000000000000000000000000000000602082015250565b7f45524332303a207472616e7366657220616d6f756e742065786365656473206260008201527f616c616e63650000000000000000000000000000000000000000000000000000602082015250565b7f416464726573733a20696e73756666696369656e742062616c616e636520666f60008201527f722063616c6c0000000000000000000000000000000000000000000000000000602082015250565b7f45524332303a207472616e7366657220616d6f756e742065786365656473206160008201527f6c6c6f77616e6365000000000000000000000000000000000000000000000000602082015250565b7f45524332303a207472616e736665722066726f6d20746865207a65726f20616460008201527f6472657373000000000000000000000000000000000000000000000000000000602082015250565b7f45524332303a20617070726f76652066726f6d20746865207a65726f2061646460008201527f7265737300000000000000000000000000000000000000000000000000000000602082015250565b7f416464726573733a2063616c6c20746f206e6f6e2d636f6e7472616374000000600082015250565b7f4572726f722c206e6f7420656e6f756768000000000000000000000000000000600082015250565b7f616d6f756e742063616e6e6f7420626520300000000000000000000000000000600082015250565b7f5361666545524332303a204552433230206f7065726174696f6e20646964206e60008201527f6f74207375636365656400000000000000000000000000000000000000000000602082015250565b7f45524332303a2064656372656173656420616c6c6f77616e63652062656c6f7760008201527f207a65726f000000000000000000000000000000000000000000000000000000602082015250565b7f45524332303a206d696e7420746f20746865207a65726f206164647265737300600082015250565b6128ae816123ed565b81146128b957600080fd5b50565b6128c5816123ff565b81146128d057600080fd5b50565b6128dc8161242b565b81146128e757600080fd5b5056fea2646970667358221220215df52ee86aabd29579dda1c3b2cb926f180528b7f012235bfc9b251686b84f64736f6c63430008030033",
  "linkReferences": {},
  "deployedLinkReferences": {}
}