{
  "_format": "hh-sol-artifact-1",
  "contractName": "FarmToken",
  "sourceName": "contracts/FarmToken.sol",
  "abi": [
    {
      "inputs": [
        {
          "internalType": "address",
          "name": "_token",
          "type": "address"
        }
      ],
      "stateMutability": "nonpayable",
      "type": "constructor"
    },
    {
      "anonymous": false,
      "inputs": [
        {
          "indexed": true,
          "internalType": "address",
          "name": "owner",
          "type": "address"
        },
        {
          "indexed": true,
          "internalType": "address",
          "name": "spender",
          "type": "address"
        },
        {
          "indexed": false,
          "internalType": "uint256",
          "name": "value",
          "type": "uint256"
        }
      ],
      "name": "Approval",
      "type": "event"
    },
    {
      "anonymous": false,
      "inputs": [
        {
          "indexed": true,
          "internalType": "address",
          "name": "user",
          "type": "address"
        },
        {
          "indexed": false,
          "internalType": "uint256",
          "name": "mtokenAmount",
          "type": "uint256"
        },
        {
          "indexed": false,
          "internalType": "uint256",
          "name": "timeStart",
          "type": "uint256"
        }
      ],
      "name": "Deposit",
      "type": "event"
    },
    {
      "anonymous": false,
      "inputs": [
        {
          "indexed": true,
          "internalType": "address",
          "name": "from",
          "type": "address"
        },
        {
          "indexed": true,
          "internalType": "address",
          "name": "to",
          "type": "address"
        },
        {
          "indexed": false,
          "internalType": "uint256",
          "name": "value",
          "type": "uint256"
        }
      ],
      "name": "Transfer",
      "type": "event"
    },
    {
      "anonymous": false,
      "inputs": [
        {
          "indexed": true,
          "internalType": "address",
          "name": "user",
          "type": "address"
        },
        {
          "indexed": false,
          "internalType": "uint256",
          "name": "mtokenAmount",
          "type": "uint256"
        },
        {
          "indexed": false,
          "internalType": "uint256",
          "name": "depositTime",
          "type": "uint256"
        }
      ],
      "name": "Withdraw",
      "type": "event"
    },
    {
      "inputs": [
        {
          "internalType": "address",
          "name": "owner",
          "type": "address"
        },
        {
          "internalType": "address",
          "name": "spender",
          "type": "address"
        }
      ],
      "name": "allowance",
      "outputs": [
        {
          "internalType": "uint256",
          "name": "",
          "type": "uint256"
        }
      ],
      "stateMutability": "view",
      "type": "function"
    },
    {
      "inputs": [
        {
          "internalType": "address",
          "name": "spender",
          "type": "address"
        },
        {
          "internalType": "uint256",
          "name": "amount",
          "type": "uint256"
        }
      ],
      "name": "approve",
      "outputs": [
        {
          "internalType": "bool",
          "name": "",
          "type": "bool"
        }
      ],
      "stateMutability": "nonpayable",
      "type": "function"
    },
    {
      "inputs": [],
      "name": "balance",
      "outputs": [
        {
          "internalType": "uint256",
          "name": "",
          "type": "uint256"
        }
      ],
      "stateMutability": "view",
      "type": "function"
    },
    {
      "inputs": [
        {
          "internalType": "address",
          "name": "account",
          "type": "address"
        }
      ],
      "name": "balanceOf",
      "outputs": [
        {
          "internalType": "uint256",
          "name": "",
          "type": "uint256"
        }
      ],
      "stateMutability": "view",
      "type": "function"
    },
    {
      "inputs": [],
      "name": "checkTime",
      "outputs": [
        {
          "internalType": "uint256",
          "name": "",
          "type": "uint256"
        }
      ],
      "stateMutability": "view",
      "type": "function"
    },
    {
      "inputs": [],
      "name": "decimals",
      "outputs": [
        {
          "internalType": "uint8",
          "name": "",
          "type": "uint8"
        }
      ],
      "stateMutability": "view",
      "type": "function"
    },
    {
      "inputs": [
        {
          "internalType": "address",
          "name": "spender",
          "type": "address"
        },
        {
          "internalType": "uint256",
          "name": "subtractedValue",
          "type": "uint256"
        }
      ],
      "name": "decreaseAllowance",
      "outputs": [
        {
          "internalType": "bool",
          "name": "",
          "type": "bool"
        }
      ],
      "stateMutability": "nonpayable",
      "type": "function"
    },
    {
      "inputs": [
        {
          "internalType": "uint256",
          "name": "_amount",
          "type": "uint256"
        }
      ],
      "name": "deposit",
      "outputs": [],
      "stateMutability": "payable",
      "type": "function"
    },
    {
      "inputs": [
        {
          "internalType": "address",
          "name": "",
          "type": "address"
        }
      ],
      "name": "depositStart",
      "outputs": [
        {
          "internalType": "uint256",
          "name": "",
          "type": "uint256"
        }
      ],
      "stateMutability": "view",
      "type": "function"
    },
    {
      "inputs": [
        {
          "internalType": "address",
          "name": "spender",
          "type": "address"
        },
        {
          "internalType": "uint256",
          "name": "addedValue",
          "type": "uint256"
        }
      ],
      "name": "increaseAllowance",
      "outputs": [
        {
          "internalType": "bool",
          "name": "",
          "type": "bool"
        }
      ],
      "stateMutability": "nonpayable",
      "type": "function"
    },
    {
      "inputs": [],
      "name": "name",
      "outputs": [
        {
          "internalType": "string",
          "name": "",
          "type": "string"
        }
      ],
      "stateMutability": "view",
      "type": "function"
    },
    {
      "inputs": [],
      "name": "owner",
      "outputs": [
        {
          "internalType": "address",
          "name": "",
          "type": "address"
        }
      ],
      "stateMutability": "view",
      "type": "function"
    },
    {
      "inputs": [],
      "name": "ownerDepositBalance",
      "outputs": [
        {
          "internalType": "uint256",
          "name": "",
          "type": "uint256"
        }
      ],
      "stateMutability": "view",
      "type": "function"
    },
    {
      "inputs": [
        {
          "internalType": "address",
          "name": "",
          "type": "address"
        }
      ],
      "name": "primaryDeposit",
      "outputs": [
        {
          "internalType": "uint256",
          "name": "",
          "type": "uint256"
        }
      ],
      "stateMutability": "view",
      "type": "function"
    },
    {
      "inputs": [],
      "name": "symbol",
      "outputs": [
        {
          "internalType": "string",
          "name": "",
          "type": "string"
        }
      ],
      "stateMutability": "view",
      "type": "function"
    },
    {
      "inputs": [],
      "name": "token",
      "outputs": [
        {
          "internalType": "contract IERC20",
          "name": "",
          "type": "address"
        }
      ],
      "stateMutability": "view",
      "type": "function"
    },
    {
      "inputs": [
        {
          "internalType": "address",
          "name": "",
          "type": "address"
        }
      ],
      "name": "tokenBalanceOf",
      "outputs": [
        {
          "internalType": "uint256",
          "name": "",
          "type": "uint256"
        }
      ],
      "stateMutability": "view",
      "type": "function"
    },
    {
      "inputs": [],
      "name": "totalSupply",
      "outputs": [
        {
          "internalType": "uint256",
          "name": "",
          "type": "uint256"
        }
      ],
      "stateMutability": "view",
      "type": "function"
    },
    {
      "inputs": [
        {
          "internalType": "address",
          "name": "recipient",
          "type": "address"
        },
        {
          "internalType": "uint256",
          "name": "amount",
          "type": "uint256"
        }
      ],
      "name": "transfer",
      "outputs": [
        {
          "internalType": "bool",
          "name": "",
          "type": "bool"
        }
      ],
      "stateMutability": "nonpayable",
      "type": "function"
    },
    {
      "inputs": [
        {
          "internalType": "address",
          "name": "sender",
          "type": "address"
        },
        {
          "internalType": "address",
          "name": "recipient",
          "type": "address"
        },
        {
          "internalType": "uint256",
          "name": "amount",
          "type": "uint256"
        }
      ],
      "name": "transferFrom",
      "outputs": [
        {
          "internalType": "bool",
          "name": "",
          "type": "bool"
        }
      ],
      "stateMutability": "nonpayable",
      "type": "function"
    },
    {
      "inputs": [
        {
          "internalType": "uint256",
          "name": "_amount",
          "type": "uint256"
        }
      ],
      "name": "withdraw",
      "outputs": [],
      "stateMutability": "nonpayable",
      "type": "function"
    }
  ],
  "bytecode": "0x60806040526078600555603c600655671bc16d674ec800006007553480156200002757600080fd5b5060405162002b6e38038062002b6e83398181016040528101906200004d91906200023d565b6040518060400160405280600881526020017f446164546f6b656e0000000000000000000000000000000000000000000000008152506040518060400160405280600381526020017f44414400000000000000000000000000000000000000000000000000000000008152508160039080519060200190620000d192919062000176565b508060049080519060200190620000ea92919062000176565b50505080600860006101000a81548173ffffffffffffffffffffffffffffffffffffffff021916908373ffffffffffffffffffffffffffffffffffffffff16021790555033600c60006101000a81548173ffffffffffffffffffffffffffffffffffffffff021916908373ffffffffffffffffffffffffffffffffffffffff160217905550506200031c565b82805462000184906200029d565b90600052602060002090601f016020900481019282620001a85760008555620001f4565b82601f10620001c357805160ff1916838001178555620001f4565b82800160010185558215620001f4579182015b82811115620001f3578251825591602001919060010190620001d6565b5b50905062000203919062000207565b5090565b5b808211156200022257600081600090555060010162000208565b5090565b600081519050620002378162000302565b92915050565b6000602082840312156200025057600080fd5b6000620002608482850162000226565b91505092915050565b600062000276826200027d565b9050919050565b600073ffffffffffffffffffffffffffffffffffffffff82169050919050565b60006002820490506001821680620002b657607f821691505b60208210811415620002cd57620002cc620002d3565b5b50919050565b7f4e487b7100000000000000000000000000000000000000000000000000000000600052602260045260246000fd5b6200030d8162000269565b81146200031957600080fd5b50565b612842806200032c6000396000f3fe60806040526004361061012a5760003560e01c806395d89b41116100ab578063b6b55f251161006f578063b6b55f2514610430578063dd62ed3e1461044c578063e0c6190d14610489578063e42c08f2146104b4578063fc0c546a146104f1578063ff87930a1461051c5761012a565b806395d89b4114610335578063a04588ed14610360578063a457c2d71461038b578063a9059cbb146103c8578063b69ef8a8146104055761012a565b80632e34427f116100f25780632e34427f14610228578063313ce56714610265578063395093511461029057806370a08231146102cd5780638da5cb5b1461030a5761012a565b806306fdde031461012f578063095ea7b31461015a57806318160ddd1461019757806323b872dd146101c25780632e1a7d4d146101ff575b600080fd5b34801561013b57600080fd5b50610144610559565b6040516101519190612032565b60405180910390f35b34801561016657600080fd5b50610181600480360381019061017c9190611c37565b6105eb565b60405161018e9190611ffc565b60405180910390f35b3480156101a357600080fd5b506101ac610609565b6040516101b991906121f4565b60405180910390f35b3480156101ce57600080fd5b506101e960048036038101906101e49190611be8565b610613565b6040516101f69190611ffc565b60405180910390f35b34801561020b57600080fd5b5061022660048036038101906102219190611c9c565b61070b565b005b34801561023457600080fd5b5061024f600480360381019061024a9190611b83565b610a2b565b60405161025c91906121f4565b60405180910390f35b34801561027157600080fd5b5061027a610a43565b6040516102879190612238565b60405180910390f35b34801561029c57600080fd5b506102b760048036038101906102b29190611c37565b610a4c565b6040516102c49190611ffc565b60405180910390f35b3480156102d957600080fd5b506102f460048036038101906102ef9190611b83565b610af8565b60405161030191906121f4565b60405180910390f35b34801561031657600080fd5b5061031f610b40565b60405161032c9190611f81565b60405180910390f35b34801561034157600080fd5b5061034a610b66565b6040516103579190612032565b60405180910390f35b34801561036c57600080fd5b50610375610bf8565b60405161038291906121f4565b60405180910390f35b34801561039757600080fd5b506103b260048036038101906103ad9190611c37565b610c44565b6040516103bf9190611ffc565b60405180910390f35b3480156103d457600080fd5b506103ef60048036038101906103ea9190611c37565b610d2f565b6040516103fc9190611ffc565b60405180910390f35b34801561041157600080fd5b5061041a610d4d565b60405161042791906121f4565b60405180910390f35b61044a60048036038101906104459190611c9c565b610dff565b005b34801561045857600080fd5b50610473600480360381019061046e9190611bac565b6110cc565b60405161048091906121f4565b60405180910390f35b34801561049557600080fd5b5061049e611153565b6040516104ab91906121f4565b60405180910390f35b3480156104c057600080fd5b506104db60048036038101906104d69190611b83565b61119f565b6040516104e891906121f4565b60405180910390f35b3480156104fd57600080fd5b506105066111b7565b6040516105139190612017565b60405180910390f35b34801561052857600080fd5b50610543600480360381019061053e9190611b83565b6111dd565b60405161055091906121f4565b60405180910390f35b606060038054610568906123bb565b80601f0160208091040260200160405190810160405280929190818152602001828054610594906123bb565b80156105e15780601f106105b6576101008083540402835291602001916105e1565b820191906000526020600020905b8154815290600101906020018083116105c457829003601f168201915b5050505050905090565b60006105ff6105f86111f5565b84846111fd565b6001905092915050565b6000600254905090565b60006106208484846113c8565b6000600160008673ffffffffffffffffffffffffffffffffffffffff1673ffffffffffffffffffffffffffffffffffffffff168152602001908152602001600020600061066b6111f5565b73ffffffffffffffffffffffffffffffffffffffff1673ffffffffffffffffffffffffffffffffffffffff168152602001908152602001600020549050828110156106eb576040517f08c379a00000000000000000000000000000000000000000000000000000000081526004016106e2906120d4565b60405180910390fd5b6106ff856106f76111f5565b8584036111fd565b60019150509392505050565b600960003373ffffffffffffffffffffffffffffffffffffffff1673ffffffffffffffffffffffffffffffffffffffff1681526020019081526020016000205481111561078d576040517f08c379a000000000000000000000000000000000000000000000000000000000815260040161078490612154565b60405180910390fd5b6000600a60003373ffffffffffffffffffffffffffffffffffffffff1673ffffffffffffffffffffffffffffffffffffffff16815260200190815260200160002054426107da91906122db565b9050600554426107ea91906122db565b600a60003373ffffffffffffffffffffffffffffffffffffffff1673ffffffffffffffffffffffffffffffffffffffff16815260200190815260200160002054116108515760006007548361083f9190612285565b905061084b3382611649565b506108b7565b6006544261085f91906122db565b600a60003373ffffffffffffffffffffffffffffffffffffffff1673ffffffffffffffffffffffffffffffffffffffff16815260200190815260200160002054116108b5576108b033600754611649565b6108b6565b5b5b6109043383600860009054906101000a900473ffffffffffffffffffffffffffffffffffffffff1673ffffffffffffffffffffffffffffffffffffffff166117a99092919063ffffffff16565b81600960003373ffffffffffffffffffffffffffffffffffffffff1673ffffffffffffffffffffffffffffffffffffffff1681526020019081526020016000205461094f91906122db565b600960003373ffffffffffffffffffffffffffffffffffffffff1673ffffffffffffffffffffffffffffffffffffffff168152602001908152602001600020819055506000600a60003373ffffffffffffffffffffffffffffffffffffffff1673ffffffffffffffffffffffffffffffffffffffff168152602001908152602001600020819055503373ffffffffffffffffffffffffffffffffffffffff167ff279e6a1f5e320cca91135676d9cb6e44ca8a08c0b88342bcdb1144f6511b5688383604051610a1f92919061220f565b60405180910390a25050565b600b6020528060005260406000206000915090505481565b60006012905090565b6000610aee610a596111f5565b848460016000610a676111f5565b73ffffffffffffffffffffffffffffffffffffffff1673ffffffffffffffffffffffffffffffffffffffff16815260200190815260200160002060008873ffffffffffffffffffffffffffffffffffffffff1673ffffffffffffffffffffffffffffffffffffffff16815260200190815260200160002054610ae99190612285565b6111fd565b6001905092915050565b60008060008373ffffffffffffffffffffffffffffffffffffffff1673ffffffffffffffffffffffffffffffffffffffff168152602001908152602001600020549050919050565b600c60009054906101000a900473ffffffffffffffffffffffffffffffffffffffff1681565b606060048054610b75906123bb565b80601f0160208091040260200160405190810160405280929190818152602001828054610ba1906123bb565b8015610bee5780601f10610bc357610100808354040283529160200191610bee565b820191906000526020600020905b815481529060010190602001808311610bd157829003601f168201915b5050505050905090565b600080600960003373ffffffffffffffffffffffffffffffffffffffff1673ffffffffffffffffffffffffffffffffffffffff1681526020019081526020016000205490508091505090565b60008060016000610c536111f5565b73ffffffffffffffffffffffffffffffffffffffff1673ffffffffffffffffffffffffffffffffffffffff16815260200190815260200160002060008573ffffffffffffffffffffffffffffffffffffffff1673ffffffffffffffffffffffffffffffffffffffff16815260200190815260200160002054905082811015610d10576040517f08c379a0000000000000000000000000000000000000000000000000000000008152600401610d07906121b4565b60405180910390fd5b610d24610d1b6111f5565b858584036111fd565b600191505092915050565b6000610d43610d3c6111f5565b84846113c8565b6001905092915050565b6000600860009054906101000a900473ffffffffffffffffffffffffffffffffffffffff1673ffffffffffffffffffffffffffffffffffffffff166370a08231306040518263ffffffff1660e01b8152600401610daa9190611f81565b60206040518083038186803b158015610dc257600080fd5b505afa158015610dd6573d6000803e3d6000fd5b505050506040513d601f19601f82011682018060405250810190610dfa9190611cc5565b905090565b60008111610e42576040517f08c379a0000000000000000000000000000000000000000000000000000000008152600401610e3990612174565b60405180910390fd5b6000600960003373ffffffffffffffffffffffffffffffffffffffff1673ffffffffffffffffffffffffffffffffffffffff168152602001908152602001600020541415610f9c5742600a60003373ffffffffffffffffffffffffffffffffffffffff1673ffffffffffffffffffffffffffffffffffffffff16815260200190815260200160002054610ed59190612285565b600a60003373ffffffffffffffffffffffffffffffffffffffff1673ffffffffffffffffffffffffffffffffffffffff16815260200190815260200160002081905550600a60003373ffffffffffffffffffffffffffffffffffffffff1673ffffffffffffffffffffffffffffffffffffffff16815260200190815260200160002054600b60003373ffffffffffffffffffffffffffffffffffffffff1673ffffffffffffffffffffffffffffffffffffffff168152602001908152602001600020819055505b610feb333083600860009054906101000a900473ffffffffffffffffffffffffffffffffffffffff1673ffffffffffffffffffffffffffffffffffffffff1661182f909392919063ffffffff16565b80600960003373ffffffffffffffffffffffffffffffffffffffff1673ffffffffffffffffffffffffffffffffffffffff168152602001908152602001600020546110369190612285565b600960003373ffffffffffffffffffffffffffffffffffffffff1673ffffffffffffffffffffffffffffffffffffffff168152602001908152602001600020819055503373ffffffffffffffffffffffffffffffffffffffff167f90890809c654f11d6e72a28fa60149770a0d11ec6c92319d6ceb2bb0a4ea1a1582426040516110c192919061220f565b60405180910390a250565b6000600160008473ffffffffffffffffffffffffffffffffffffffff1673ffffffffffffffffffffffffffffffffffffffff16815260200190815260200160002060008373ffffffffffffffffffffffffffffffffffffffff1673ffffffffffffffffffffffffffffffffffffffff16815260200190815260200160002054905092915050565b600080600a60003373ffffffffffffffffffffffffffffffffffffffff1673ffffffffffffffffffffffffffffffffffffffff1681526020019081526020016000205490508091505090565b60096020528060005260406000206000915090505481565b600860009054906101000a900473ffffffffffffffffffffffffffffffffffffffff1681565b600a6020528060005260406000206000915090505481565b600033905090565b600073ffffffffffffffffffffffffffffffffffffffff168373ffffffffffffffffffffffffffffffffffffffff16141561126d576040517f08c379a000000000000000000000000000000000000000000000000000000000815260040161126490612114565b60405180910390fd5b600073ffffffffffffffffffffffffffffffffffffffff168273ffffffffffffffffffffffffffffffffffffffff1614156112dd576040517f08c379a00000000000000000000000000000000000000000000000000000000081526004016112d490612074565b60405180910390fd5b80600160008573ffffffffffffffffffffffffffffffffffffffff1673ffffffffffffffffffffffffffffffffffffffff16815260200190815260200160002060008473ffffffffffffffffffffffffffffffffffffffff1673ffffffffffffffffffffffffffffffffffffffff168152602001908152602001600020819055508173ffffffffffffffffffffffffffffffffffffffff168373ffffffffffffffffffffffffffffffffffffffff167f8c5be1e5ebec7d5bd14f71427d1e84f3dd0314c0f7b2291e5b200ac8c7c3b925836040516113bb91906121f4565b60405180910390a3505050565b600073ffffffffffffffffffffffffffffffffffffffff168373ffffffffffffffffffffffffffffffffffffffff161415611438576040517f08c379a000000000000000000000000000000000000000000000000000000000815260040161142f906120f4565b60405180910390fd5b600073ffffffffffffffffffffffffffffffffffffffff168273ffffffffffffffffffffffffffffffffffffffff1614156114a8576040517f08c379a000000000000000000000000000000000000000000000000000000000815260040161149f90612054565b60405180910390fd5b6114b38383836118b8565b60008060008573ffffffffffffffffffffffffffffffffffffffff1673ffffffffffffffffffffffffffffffffffffffff16815260200190815260200160002054905081811015611539576040517f08c379a000000000000000000000000000000000000000000000000000000000815260040161153090612094565b60405180910390fd5b8181036000808673ffffffffffffffffffffffffffffffffffffffff1673ffffffffffffffffffffffffffffffffffffffff16815260200190815260200160002081905550816000808573ffffffffffffffffffffffffffffffffffffffff1673ffffffffffffffffffffffffffffffffffffffff16815260200190815260200160002060008282546115cc9190612285565b925050819055508273ffffffffffffffffffffffffffffffffffffffff168473ffffffffffffffffffffffffffffffffffffffff167fddf252ad1be2c89b69c2b068fc378daa952ba7f163c4a11628f55a4df523b3ef8460405161163091906121f4565b60405180910390a36116438484846118bd565b50505050565b600073ffffffffffffffffffffffffffffffffffffffff168273ffffffffffffffffffffffffffffffffffffffff1614156116b9576040517f08c379a00000000000000000000000000000000000000000000000000000000081526004016116b0906121d4565b60405180910390fd5b6116c5600083836118b8565b80600260008282546116d79190612285565b92505081905550806000808473ffffffffffffffffffffffffffffffffffffffff1673ffffffffffffffffffffffffffffffffffffffff168152602001908152602001600020600082825461172c9190612285565b925050819055508173ffffffffffffffffffffffffffffffffffffffff16600073ffffffffffffffffffffffffffffffffffffffff167fddf252ad1be2c89b69c2b068fc378daa952ba7f163c4a11628f55a4df523b3ef8360405161179191906121f4565b60405180910390a36117a5600083836118bd565b5050565b61182a8363a9059cbb60e01b84846040516024016117c8929190611fd3565b604051602081830303815290604052907bffffffffffffffffffffffffffffffffffffffffffffffffffffffff19166020820180517bffffffffffffffffffffffffffffffffffffffffffffffffffffffff83818316178352505050506118c2565b505050565b6118b2846323b872dd60e01b85858560405160240161185093929190611f9c565b604051602081830303815290604052907bffffffffffffffffffffffffffffffffffffffffffffffffffffffff19166020820180517bffffffffffffffffffffffffffffffffffffffffffffffffffffffff83818316178352505050506118c2565b50505050565b505050565b505050565b6000611924826040518060400160405280602081526020017f5361666545524332303a206c6f772d6c6576656c2063616c6c206661696c65648152508573ffffffffffffffffffffffffffffffffffffffff166119899092919063ffffffff16565b905060008151111561198457808060200190518101906119449190611c73565b611983576040517f08c379a000000000000000000000000000000000000000000000000000000000815260040161197a90612194565b60405180910390fd5b5b505050565b606061199884846000856119a1565b90509392505050565b6060824710156119e6576040517f08c379a00000000000000000000000000000000000000000000000000000000081526004016119dd906120b4565b60405180910390fd5b6119ef85611ab5565b611a2e576040517f08c379a0000000000000000000000000000000000000000000000000000000008152600401611a2590612134565b60405180910390fd5b6000808673ffffffffffffffffffffffffffffffffffffffff168587604051611a579190611f6a565b60006040518083038185875af1925050503d8060008114611a94576040519150601f19603f3d011682016040523d82523d6000602084013e611a99565b606091505b5091509150611aa9828286611ac8565b92505050949350505050565b600080823b905060008111915050919050565b60608315611ad857829050611b28565b600083511115611aeb5782518084602001fd5b816040517f08c379a0000000000000000000000000000000000000000000000000000000008152600401611b1f9190612032565b60405180910390fd5b9392505050565b600081359050611b3e816127c7565b92915050565b600081519050611b53816127de565b92915050565b600081359050611b68816127f5565b92915050565b600081519050611b7d816127f5565b92915050565b600060208284031215611b9557600080fd5b6000611ba384828501611b2f565b91505092915050565b60008060408385031215611bbf57600080fd5b6000611bcd85828601611b2f565b9250506020611bde85828601611b2f565b9150509250929050565b600080600060608486031215611bfd57600080fd5b6000611c0b86828701611b2f565b9350506020611c1c86828701611b2f565b9250506040611c2d86828701611b59565b9150509250925092565b60008060408385031215611c4a57600080fd5b6000611c5885828601611b2f565b9250506020611c6985828601611b59565b9150509250929050565b600060208284031215611c8557600080fd5b6000611c9384828501611b44565b91505092915050565b600060208284031215611cae57600080fd5b6000611cbc84828501611b59565b91505092915050565b600060208284031215611cd757600080fd5b6000611ce584828501611b6e565b91505092915050565b611cf78161230f565b82525050565b611d0681612321565b82525050565b6000611d1782612253565b611d218185612269565b9350611d31818560208601612388565b80840191505092915050565b611d4681612364565b82525050565b6000611d578261225e565b611d618185612274565b9350611d71818560208601612388565b611d7a8161244b565b840191505092915050565b6000611d92602383612274565b9150611d9d8261245c565b604082019050919050565b6000611db5602283612274565b9150611dc0826124ab565b604082019050919050565b6000611dd8602683612274565b9150611de3826124fa565b604082019050919050565b6000611dfb602683612274565b9150611e0682612549565b604082019050919050565b6000611e1e602883612274565b9150611e2982612598565b604082019050919050565b6000611e41602583612274565b9150611e4c826125e7565b604082019050919050565b6000611e64602483612274565b9150611e6f82612636565b604082019050919050565b6000611e87601d83612274565b9150611e9282612685565b602082019050919050565b6000611eaa601183612274565b9150611eb5826126ae565b602082019050919050565b6000611ecd601283612274565b9150611ed8826126d7565b602082019050919050565b6000611ef0602a83612274565b9150611efb82612700565b604082019050919050565b6000611f13602583612274565b9150611f1e8261274f565b604082019050919050565b6000611f36601f83612274565b9150611f418261279e565b602082019050919050565b611f558161234d565b82525050565b611f6481612357565b82525050565b6000611f768284611d0c565b915081905092915050565b6000602082019050611f966000830184611cee565b92915050565b6000606082019050611fb16000830186611cee565b611fbe6020830185611cee565b611fcb6040830184611f4c565b949350505050565b6000604082019050611fe86000830185611cee565b611ff56020830184611f4c565b9392505050565b60006020820190506120116000830184611cfd565b92915050565b600060208201905061202c6000830184611d3d565b92915050565b6000602082019050818103600083015261204c8184611d4c565b905092915050565b6000602082019050818103600083015261206d81611d85565b9050919050565b6000602082019050818103600083015261208d81611da8565b9050919050565b600060208201905081810360008301526120ad81611dcb565b9050919050565b600060208201905081810360008301526120cd81611dee565b9050919050565b600060208201905081810360008301526120ed81611e11565b9050919050565b6000602082019050818103600083015261210d81611e34565b9050919050565b6000602082019050818103600083015261212d81611e57565b9050919050565b6000602082019050818103600083015261214d81611e7a565b9050919050565b6000602082019050818103600083015261216d81611e9d565b9050919050565b6000602082019050818103600083015261218d81611ec0565b9050919050565b600060208201905081810360008301526121ad81611ee3565b9050919050565b600060208201905081810360008301526121cd81611f06565b9050919050565b600060208201905081810360008301526121ed81611f29565b9050919050565b60006020820190506122096000830184611f4c565b92915050565b60006040820190506122246000830185611f4c565b6122316020830184611f4c565b9392505050565b600060208201905061224d6000830184611f5b565b92915050565b600081519050919050565b600081519050919050565b600081905092915050565b600082825260208201905092915050565b60006122908261234d565b915061229b8361234d565b9250827fffffffffffffffffffffffffffffffffffffffffffffffffffffffffffffffff038211156122d0576122cf6123ed565b5b828201905092915050565b60006122e68261234d565b91506122f18361234d565b925082821015612304576123036123ed565b5b828203905092915050565b600061231a8261232d565b9050919050565b60008115159050919050565b600073ffffffffffffffffffffffffffffffffffffffff82169050919050565b6000819050919050565b600060ff82169050919050565b600061236f82612376565b9050919050565b60006123818261232d565b9050919050565b60005b838110156123a657808201518184015260208101905061238b565b838111156123b5576000848401525b50505050565b600060028204905060018216806123d357607f821691505b602082108114156123e7576123e661241c565b5b50919050565b7f4e487b7100000000000000000000000000000000000000000000000000000000600052601160045260246000fd5b7f4e487b7100000000000000000000000000000000000000000000000000000000600052602260045260246000fd5b6000601f19601f8301169050919050565b7f45524332303a207472616e7366657220746f20746865207a65726f206164647260008201527f6573730000000000000000000000000000000000000000000000000000000000602082015250565b7f45524332303a20617070726f766520746f20746865207a65726f20616464726560008201527f7373000000000000000000000000000000000000000000000000000000000000602082015250565b7f45524332303a207472616e7366657220616d6f756e742065786365656473206260008201527f616c616e63650000000000000000000000000000000000000000000000000000602082015250565b7f416464726573733a20696e73756666696369656e742062616c616e636520666f60008201527f722063616c6c0000000000000000000000000000000000000000000000000000602082015250565b7f45524332303a207472616e7366657220616d6f756e742065786365656473206160008201527f6c6c6f77616e6365000000000000000000000000000000000000000000000000602082015250565b7f45524332303a207472616e736665722066726f6d20746865207a65726f20616460008201527f6472657373000000000000000000000000000000000000000000000000000000602082015250565b7f45524332303a20617070726f76652066726f6d20746865207a65726f2061646460008201527f7265737300000000000000000000000000000000000000000000000000000000602082015250565b7f416464726573733a2063616c6c20746f206e6f6e2d636f6e7472616374000000600082015250565b7f4572726f722c206e6f7420656e6f756768000000000000000000000000000000600082015250565b7f616d6f756e742063616e6e6f7420626520300000000000000000000000000000600082015250565b7f5361666545524332303a204552433230206f7065726174696f6e20646964206e60008201527f6f74207375636365656400000000000000000000000000000000000000000000602082015250565b7f45524332303a2064656372656173656420616c6c6f77616e63652062656c6f7760008201527f207a65726f000000000000000000000000000000000000000000000000000000602082015250565b7f45524332303a206d696e7420746f20746865207a65726f206164647265737300600082015250565b6127d08161230f565b81146127db57600080fd5b50565b6127e781612321565b81146127f257600080fd5b50565b6127fe8161234d565b811461280957600080fd5b5056fea2646970667358221220aa0ec784af92f1192c7d5fbee1e81d4c941777a8396de96b9b2416cf514a2f2464736f6c63430008030033",
  "linkReferences": {},
  "deployedLinkReferences": {}
}