{
  "_format": "hh-sol-artifact-1",
  "contractName": "FarmToken",
  "sourceName": "contracts/FarmToken.sol",
  "abi": [
    {
      "inputs": [
        {
          "internalType": "address",
          "name": "_token",
          "type": "address"
        }
      ],
      "stateMutability": "nonpayable",
      "type": "constructor"
    },
    {
      "anonymous": false,
      "inputs": [
        {
          "indexed": true,
          "internalType": "address",
          "name": "owner",
          "type": "address"
        },
        {
          "indexed": true,
          "internalType": "address",
          "name": "spender",
          "type": "address"
        },
        {
          "indexed": false,
          "internalType": "uint256",
          "name": "value",
          "type": "uint256"
        }
      ],
      "name": "Approval",
      "type": "event"
    },
    {
      "anonymous": false,
      "inputs": [
        {
          "indexed": true,
          "internalType": "address",
          "name": "from",
          "type": "address"
        },
        {
          "indexed": true,
          "internalType": "address",
          "name": "to",
          "type": "address"
        },
        {
          "indexed": false,
          "internalType": "uint256",
          "name": "value",
          "type": "uint256"
        }
      ],
      "name": "Transfer",
      "type": "event"
    },
    {
      "inputs": [
        {
          "internalType": "address",
          "name": "owner",
          "type": "address"
        },
        {
          "internalType": "address",
          "name": "spender",
          "type": "address"
        }
      ],
      "name": "allowance",
      "outputs": [
        {
          "internalType": "uint256",
          "name": "",
          "type": "uint256"
        }
      ],
      "stateMutability": "view",
      "type": "function"
    },
    {
      "inputs": [
        {
          "internalType": "address",
          "name": "spender",
          "type": "address"
        },
        {
          "internalType": "uint256",
          "name": "amount",
          "type": "uint256"
        }
      ],
      "name": "approve",
      "outputs": [
        {
          "internalType": "bool",
          "name": "",
          "type": "bool"
        }
      ],
      "stateMutability": "nonpayable",
      "type": "function"
    },
    {
      "inputs": [],
      "name": "balance",
      "outputs": [
        {
          "internalType": "uint256",
          "name": "",
          "type": "uint256"
        }
      ],
      "stateMutability": "view",
      "type": "function"
    },
    {
      "inputs": [
        {
          "internalType": "address",
          "name": "account",
          "type": "address"
        }
      ],
      "name": "balanceOf",
      "outputs": [
        {
          "internalType": "uint256",
          "name": "",
          "type": "uint256"
        }
      ],
      "stateMutability": "view",
      "type": "function"
    },
    {
      "inputs": [],
      "name": "decimals",
      "outputs": [
        {
          "internalType": "uint8",
          "name": "",
          "type": "uint8"
        }
      ],
      "stateMutability": "view",
      "type": "function"
    },
    {
      "inputs": [
        {
          "internalType": "address",
          "name": "spender",
          "type": "address"
        },
        {
          "internalType": "uint256",
          "name": "subtractedValue",
          "type": "uint256"
        }
      ],
      "name": "decreaseAllowance",
      "outputs": [
        {
          "internalType": "bool",
          "name": "",
          "type": "bool"
        }
      ],
      "stateMutability": "nonpayable",
      "type": "function"
    },
    {
      "inputs": [
        {
          "internalType": "uint256",
          "name": "_amount",
          "type": "uint256"
        }
      ],
      "name": "deposit",
      "outputs": [],
      "stateMutability": "payable",
      "type": "function"
    },
    {
      "inputs": [
        {
          "internalType": "address",
          "name": "spender",
          "type": "address"
        },
        {
          "internalType": "uint256",
          "name": "addedValue",
          "type": "uint256"
        }
      ],
      "name": "increaseAllowance",
      "outputs": [
        {
          "internalType": "bool",
          "name": "",
          "type": "bool"
        }
      ],
      "stateMutability": "nonpayable",
      "type": "function"
    },
    {
      "inputs": [],
      "name": "name",
      "outputs": [
        {
          "internalType": "string",
          "name": "",
          "type": "string"
        }
      ],
      "stateMutability": "view",
      "type": "function"
    },
    {
      "inputs": [],
      "name": "ownerDepositBalance",
      "outputs": [
        {
          "internalType": "uint256",
          "name": "",
          "type": "uint256"
        }
      ],
      "stateMutability": "view",
      "type": "function"
    },
    {
      "inputs": [],
      "name": "symbol",
      "outputs": [
        {
          "internalType": "string",
          "name": "",
          "type": "string"
        }
      ],
      "stateMutability": "view",
      "type": "function"
    },
    {
      "inputs": [],
      "name": "token",
      "outputs": [
        {
          "internalType": "contract IERC20",
          "name": "",
          "type": "address"
        }
      ],
      "stateMutability": "view",
      "type": "function"
    },
    {
      "inputs": [
        {
          "internalType": "address",
          "name": "",
          "type": "address"
        }
      ],
      "name": "tokenBalanceOf",
      "outputs": [
        {
          "internalType": "uint256",
          "name": "",
          "type": "uint256"
        }
      ],
      "stateMutability": "view",
      "type": "function"
    },
    {
      "inputs": [],
      "name": "totalSupply",
      "outputs": [
        {
          "internalType": "uint256",
          "name": "",
          "type": "uint256"
        }
      ],
      "stateMutability": "view",
      "type": "function"
    },
    {
      "inputs": [
        {
          "internalType": "address",
          "name": "recipient",
          "type": "address"
        },
        {
          "internalType": "uint256",
          "name": "amount",
          "type": "uint256"
        }
      ],
      "name": "transfer",
      "outputs": [
        {
          "internalType": "bool",
          "name": "",
          "type": "bool"
        }
      ],
      "stateMutability": "nonpayable",
      "type": "function"
    },
    {
      "inputs": [
        {
          "internalType": "address",
          "name": "sender",
          "type": "address"
        },
        {
          "internalType": "address",
          "name": "recipient",
          "type": "address"
        },
        {
          "internalType": "uint256",
          "name": "amount",
          "type": "uint256"
        }
      ],
      "name": "transferFrom",
      "outputs": [
        {
          "internalType": "bool",
          "name": "",
          "type": "bool"
        }
      ],
      "stateMutability": "nonpayable",
      "type": "function"
    },
    {
      "inputs": [
        {
          "internalType": "uint256",
          "name": "_amount",
          "type": "uint256"
        }
      ],
      "name": "withdraw",
      "outputs": [],
      "stateMutability": "nonpayable",
      "type": "function"
    }
  ],
  "bytecode": "0x60806040523480156200001157600080fd5b506040516200252e3803806200252e8339818101604052810190620000379190620001e6565b6040518060400160405280600981526020017f4661726d546f6b656e00000000000000000000000000000000000000000000008152506040518060400160405280600381526020017f46524d00000000000000000000000000000000000000000000000000000000008152508160039080519060200190620000bb9291906200011f565b508060049080519060200190620000d49291906200011f565b50505080600560006101000a81548173ffffffffffffffffffffffffffffffffffffffff021916908373ffffffffffffffffffffffffffffffffffffffff16021790555050620002c5565b8280546200012d9062000246565b90600052602060002090601f0160209004810192826200015157600085556200019d565b82601f106200016c57805160ff19168380011785556200019d565b828001600101855582156200019d579182015b828111156200019c5782518255916020019190600101906200017f565b5b509050620001ac9190620001b0565b5090565b5b80821115620001cb576000816000905550600101620001b1565b5090565b600081519050620001e081620002ab565b92915050565b600060208284031215620001f957600080fd5b60006200020984828501620001cf565b91505092915050565b60006200021f8262000226565b9050919050565b600073ffffffffffffffffffffffffffffffffffffffff82169050919050565b600060028204905060018216806200025f57607f821691505b602082108114156200027657620002756200027c565b5b50919050565b7f4e487b7100000000000000000000000000000000000000000000000000000000600052602260045260246000fd5b620002b68162000212565b8114620002c257600080fd5b50565b61225980620002d56000396000f3fe6080604052600436106100fe5760003560e01c806395d89b4111610095578063b69ef8a811610064578063b69ef8a814610371578063b6b55f251461039c578063dd62ed3e146103b8578063e42c08f2146103f5578063fc0c546a14610432576100fe565b806395d89b41146102a1578063a04588ed146102cc578063a457c2d7146102f7578063a9059cbb14610334576100fe565b80632e1a7d4d116100d15780632e1a7d4d146101d3578063313ce567146101fc578063395093511461022757806370a0823114610264576100fe565b806306fdde0314610103578063095ea7b31461012e57806318160ddd1461016b57806323b872dd14610196575b600080fd5b34801561010f57600080fd5b5061011861045d565b6040516101259190611aa6565b60405180910390f35b34801561013a57600080fd5b50610155600480360381019061015091906116ab565b6104ef565b6040516101629190611a70565b60405180910390f35b34801561017757600080fd5b5061018061050d565b60405161018d9190611c68565b60405180910390f35b3480156101a257600080fd5b506101bd60048036038101906101b8919061165c565b610517565b6040516101ca9190611a70565b60405180910390f35b3480156101df57600080fd5b506101fa60048036038101906101f59190611710565b61060f565b005b34801561020857600080fd5b506102116106eb565b60405161021e9190611c83565b60405180910390f35b34801561023357600080fd5b5061024e600480360381019061024991906116ab565b6106f4565b60405161025b9190611a70565b60405180910390f35b34801561027057600080fd5b5061028b600480360381019061028691906115f7565b6107a0565b6040516102989190611c68565b60405180910390f35b3480156102ad57600080fd5b506102b66107e8565b6040516102c39190611aa6565b60405180910390f35b3480156102d857600080fd5b506102e161087a565b6040516102ee9190611c68565b60405180910390f35b34801561030357600080fd5b5061031e600480360381019061031991906116ab565b6108c6565b60405161032b9190611a70565b60405180910390f35b34801561034057600080fd5b5061035b600480360381019061035691906116ab565b6109b1565b6040516103689190611a70565b60405180910390f35b34801561037d57600080fd5b506103866109cf565b6040516103939190611c68565b60405180910390f35b6103b660048036038101906103b19190611710565b610a81565b005b3480156103c457600080fd5b506103df60048036038101906103da9190611620565b610ba4565b6040516103ec9190611c68565b60405180910390f35b34801561040157600080fd5b5061041c600480360381019061041791906115f7565b610c2b565b6040516104299190611c68565b60405180910390f35b34801561043e57600080fd5b50610447610c43565b6040516104549190611a8b565b60405180910390f35b60606003805461046c90611dd2565b80601f016020809104026020016040519081016040528092919081815260200182805461049890611dd2565b80156104e55780601f106104ba576101008083540402835291602001916104e5565b820191906000526020600020905b8154815290600101906020018083116104c857829003601f168201915b5050505050905090565b60006105036104fc610c69565b8484610c71565b6001905092915050565b6000600254905090565b6000610524848484610e3c565b6000600160008673ffffffffffffffffffffffffffffffffffffffff1673ffffffffffffffffffffffffffffffffffffffff168152602001908152602001600020600061056f610c69565b73ffffffffffffffffffffffffffffffffffffffff1673ffffffffffffffffffffffffffffffffffffffff168152602001908152602001600020549050828110156105ef576040517f08c379a00000000000000000000000000000000000000000000000000000000081526004016105e690611b48565b60405180910390fd5b610603856105fb610c69565b858403610c71565b60019150509392505050565b600660003373ffffffffffffffffffffffffffffffffffffffff1673ffffffffffffffffffffffffffffffffffffffff16815260200190815260200160002054811115610691576040517f08c379a000000000000000000000000000000000000000000000000000000000815260040161068890611bc8565b60405180910390fd5b61069b33826110bd565b6106e83382600560009054906101000a900473ffffffffffffffffffffffffffffffffffffffff1673ffffffffffffffffffffffffffffffffffffffff1661121d9092919063ffffffff16565b50565b60006012905090565b6000610796610701610c69565b84846001600061070f610c69565b73ffffffffffffffffffffffffffffffffffffffff1673ffffffffffffffffffffffffffffffffffffffff16815260200190815260200160002060008873ffffffffffffffffffffffffffffffffffffffff1673ffffffffffffffffffffffffffffffffffffffff168152602001908152602001600020546107919190611cd0565b610c71565b6001905092915050565b60008060008373ffffffffffffffffffffffffffffffffffffffff1673ffffffffffffffffffffffffffffffffffffffff168152602001908152602001600020549050919050565b6060600480546107f790611dd2565b80601f016020809104026020016040519081016040528092919081815260200182805461082390611dd2565b80156108705780601f1061084557610100808354040283529160200191610870565b820191906000526020600020905b81548152906001019060200180831161085357829003601f168201915b5050505050905090565b600080600660003373ffffffffffffffffffffffffffffffffffffffff1673ffffffffffffffffffffffffffffffffffffffff1681526020019081526020016000205490508091505090565b600080600160006108d5610c69565b73ffffffffffffffffffffffffffffffffffffffff1673ffffffffffffffffffffffffffffffffffffffff16815260200190815260200160002060008573ffffffffffffffffffffffffffffffffffffffff1673ffffffffffffffffffffffffffffffffffffffff16815260200190815260200160002054905082811015610992576040517f08c379a000000000000000000000000000000000000000000000000000000000815260040161098990611c28565b60405180910390fd5b6109a661099d610c69565b85858403610c71565b600191505092915050565b60006109c56109be610c69565b8484610e3c565b6001905092915050565b6000600560009054906101000a900473ffffffffffffffffffffffffffffffffffffffff1673ffffffffffffffffffffffffffffffffffffffff166370a08231306040518263ffffffff1660e01b8152600401610a2c91906119f5565b60206040518083038186803b158015610a4457600080fd5b505afa158015610a58573d6000803e3d6000fd5b505050506040513d601f19601f82011682018060405250810190610a7c9190611739565b905090565b60008111610ac4576040517f08c379a0000000000000000000000000000000000000000000000000000000008152600401610abb90611be8565b60405180910390fd5b610b13333083600560009054906101000a900473ffffffffffffffffffffffffffffffffffffffff1673ffffffffffffffffffffffffffffffffffffffff166112a3909392919063ffffffff16565b80600660003373ffffffffffffffffffffffffffffffffffffffff1673ffffffffffffffffffffffffffffffffffffffff16815260200190815260200160002054610b5e9190611cd0565b600660003373ffffffffffffffffffffffffffffffffffffffff1673ffffffffffffffffffffffffffffffffffffffff1681526020019081526020016000208190555050565b6000600160008473ffffffffffffffffffffffffffffffffffffffff1673ffffffffffffffffffffffffffffffffffffffff16815260200190815260200160002060008373ffffffffffffffffffffffffffffffffffffffff1673ffffffffffffffffffffffffffffffffffffffff16815260200190815260200160002054905092915050565b60066020528060005260406000206000915090505481565b600560009054906101000a900473ffffffffffffffffffffffffffffffffffffffff1681565b600033905090565b600073ffffffffffffffffffffffffffffffffffffffff168373ffffffffffffffffffffffffffffffffffffffff161415610ce1576040517f08c379a0000000000000000000000000000000000000000000000000000000008152600401610cd890611b88565b60405180910390fd5b600073ffffffffffffffffffffffffffffffffffffffff168273ffffffffffffffffffffffffffffffffffffffff161415610d51576040517f08c379a0000000000000000000000000000000000000000000000000000000008152600401610d4890611ae8565b60405180910390fd5b80600160008573ffffffffffffffffffffffffffffffffffffffff1673ffffffffffffffffffffffffffffffffffffffff16815260200190815260200160002060008473ffffffffffffffffffffffffffffffffffffffff1673ffffffffffffffffffffffffffffffffffffffff168152602001908152602001600020819055508173ffffffffffffffffffffffffffffffffffffffff168373ffffffffffffffffffffffffffffffffffffffff167f8c5be1e5ebec7d5bd14f71427d1e84f3dd0314c0f7b2291e5b200ac8c7c3b92583604051610e2f9190611c68565b60405180910390a3505050565b600073ffffffffffffffffffffffffffffffffffffffff168373ffffffffffffffffffffffffffffffffffffffff161415610eac576040517f08c379a0000000000000000000000000000000000000000000000000000000008152600401610ea390611b68565b60405180910390fd5b600073ffffffffffffffffffffffffffffffffffffffff168273ffffffffffffffffffffffffffffffffffffffff161415610f1c576040517f08c379a0000000000000000000000000000000000000000000000000000000008152600401610f1390611ac8565b60405180910390fd5b610f2783838361132c565b60008060008573ffffffffffffffffffffffffffffffffffffffff1673ffffffffffffffffffffffffffffffffffffffff16815260200190815260200160002054905081811015610fad576040517f08c379a0000000000000000000000000000000000000000000000000000000008152600401610fa490611b08565b60405180910390fd5b8181036000808673ffffffffffffffffffffffffffffffffffffffff1673ffffffffffffffffffffffffffffffffffffffff16815260200190815260200160002081905550816000808573ffffffffffffffffffffffffffffffffffffffff1673ffffffffffffffffffffffffffffffffffffffff16815260200190815260200160002060008282546110409190611cd0565b925050819055508273ffffffffffffffffffffffffffffffffffffffff168473ffffffffffffffffffffffffffffffffffffffff167fddf252ad1be2c89b69c2b068fc378daa952ba7f163c4a11628f55a4df523b3ef846040516110a49190611c68565b60405180910390a36110b7848484611331565b50505050565b600073ffffffffffffffffffffffffffffffffffffffff168273ffffffffffffffffffffffffffffffffffffffff16141561112d576040517f08c379a000000000000000000000000000000000000000000000000000000000815260040161112490611c48565b60405180910390fd5b6111396000838361132c565b806002600082825461114b9190611cd0565b92505081905550806000808473ffffffffffffffffffffffffffffffffffffffff1673ffffffffffffffffffffffffffffffffffffffff16815260200190815260200160002060008282546111a09190611cd0565b925050819055508173ffffffffffffffffffffffffffffffffffffffff16600073ffffffffffffffffffffffffffffffffffffffff167fddf252ad1be2c89b69c2b068fc378daa952ba7f163c4a11628f55a4df523b3ef836040516112059190611c68565b60405180910390a361121960008383611331565b5050565b61129e8363a9059cbb60e01b848460405160240161123c929190611a47565b604051602081830303815290604052907bffffffffffffffffffffffffffffffffffffffffffffffffffffffff19166020820180517bffffffffffffffffffffffffffffffffffffffffffffffffffffffff8381831617835250505050611336565b505050565b611326846323b872dd60e01b8585856040516024016112c493929190611a10565b604051602081830303815290604052907bffffffffffffffffffffffffffffffffffffffffffffffffffffffff19166020820180517bffffffffffffffffffffffffffffffffffffffffffffffffffffffff8381831617835250505050611336565b50505050565b505050565b505050565b6000611398826040518060400160405280602081526020017f5361666545524332303a206c6f772d6c6576656c2063616c6c206661696c65648152508573ffffffffffffffffffffffffffffffffffffffff166113fd9092919063ffffffff16565b90506000815111156113f857808060200190518101906113b891906116e7565b6113f7576040517f08c379a00000000000000000000000000000000000000000000000000000000081526004016113ee90611c08565b60405180910390fd5b5b505050565b606061140c8484600085611415565b90509392505050565b60608247101561145a576040517f08c379a000000000000000000000000000000000000000000000000000000000815260040161145190611b28565b60405180910390fd5b61146385611529565b6114a2576040517f08c379a000000000000000000000000000000000000000000000000000000000815260040161149990611ba8565b60405180910390fd5b6000808673ffffffffffffffffffffffffffffffffffffffff1685876040516114cb91906119de565b60006040518083038185875af1925050503d8060008114611508576040519150601f19603f3d011682016040523d82523d6000602084013e61150d565b606091505b509150915061151d82828661153c565b92505050949350505050565b600080823b905060008111915050919050565b6060831561154c5782905061159c565b60008351111561155f5782518084602001fd5b816040517f08c379a00000000000000000000000000000000000000000000000000000000081526004016115939190611aa6565b60405180910390fd5b9392505050565b6000813590506115b2816121de565b92915050565b6000815190506115c7816121f5565b92915050565b6000813590506115dc8161220c565b92915050565b6000815190506115f18161220c565b92915050565b60006020828403121561160957600080fd5b6000611617848285016115a3565b91505092915050565b6000806040838503121561163357600080fd5b6000611641858286016115a3565b9250506020611652858286016115a3565b9150509250929050565b60008060006060848603121561167157600080fd5b600061167f868287016115a3565b9350506020611690868287016115a3565b92505060406116a1868287016115cd565b9150509250925092565b600080604083850312156116be57600080fd5b60006116cc858286016115a3565b92505060206116dd858286016115cd565b9150509250929050565b6000602082840312156116f957600080fd5b6000611707848285016115b8565b91505092915050565b60006020828403121561172257600080fd5b6000611730848285016115cd565b91505092915050565b60006020828403121561174b57600080fd5b6000611759848285016115e2565b91505092915050565b61176b81611d26565b82525050565b61177a81611d38565b82525050565b600061178b82611c9e565b6117958185611cb4565b93506117a5818560208601611d9f565b80840191505092915050565b6117ba81611d7b565b82525050565b60006117cb82611ca9565b6117d58185611cbf565b93506117e5818560208601611d9f565b6117ee81611e62565b840191505092915050565b6000611806602383611cbf565b915061181182611e73565b604082019050919050565b6000611829602283611cbf565b915061183482611ec2565b604082019050919050565b600061184c602683611cbf565b915061185782611f11565b604082019050919050565b600061186f602683611cbf565b915061187a82611f60565b604082019050919050565b6000611892602883611cbf565b915061189d82611faf565b604082019050919050565b60006118b5602583611cbf565b91506118c082611ffe565b604082019050919050565b60006118d8602483611cbf565b91506118e38261204d565b604082019050919050565b60006118fb601d83611cbf565b91506119068261209c565b602082019050919050565b600061191e601183611cbf565b9150611929826120c5565b602082019050919050565b6000611941601283611cbf565b915061194c826120ee565b602082019050919050565b6000611964602a83611cbf565b915061196f82612117565b604082019050919050565b6000611987602583611cbf565b915061199282612166565b604082019050919050565b60006119aa601f83611cbf565b91506119b5826121b5565b602082019050919050565b6119c981611d64565b82525050565b6119d881611d6e565b82525050565b60006119ea8284611780565b915081905092915050565b6000602082019050611a0a6000830184611762565b92915050565b6000606082019050611a256000830186611762565b611a326020830185611762565b611a3f60408301846119c0565b949350505050565b6000604082019050611a5c6000830185611762565b611a6960208301846119c0565b9392505050565b6000602082019050611a856000830184611771565b92915050565b6000602082019050611aa060008301846117b1565b92915050565b60006020820190508181036000830152611ac081846117c0565b905092915050565b60006020820190508181036000830152611ae1816117f9565b9050919050565b60006020820190508181036000830152611b018161181c565b9050919050565b60006020820190508181036000830152611b218161183f565b9050919050565b60006020820190508181036000830152611b4181611862565b9050919050565b60006020820190508181036000830152611b6181611885565b9050919050565b60006020820190508181036000830152611b81816118a8565b9050919050565b60006020820190508181036000830152611ba1816118cb565b9050919050565b60006020820190508181036000830152611bc1816118ee565b9050919050565b60006020820190508181036000830152611be181611911565b9050919050565b60006020820190508181036000830152611c0181611934565b9050919050565b60006020820190508181036000830152611c2181611957565b9050919050565b60006020820190508181036000830152611c418161197a565b9050919050565b60006020820190508181036000830152611c618161199d565b9050919050565b6000602082019050611c7d60008301846119c0565b92915050565b6000602082019050611c9860008301846119cf565b92915050565b600081519050919050565b600081519050919050565b600081905092915050565b600082825260208201905092915050565b6000611cdb82611d64565b9150611ce683611d64565b9250827fffffffffffffffffffffffffffffffffffffffffffffffffffffffffffffffff03821115611d1b57611d1a611e04565b5b828201905092915050565b6000611d3182611d44565b9050919050565b60008115159050919050565b600073ffffffffffffffffffffffffffffffffffffffff82169050919050565b6000819050919050565b600060ff82169050919050565b6000611d8682611d8d565b9050919050565b6000611d9882611d44565b9050919050565b60005b83811015611dbd578082015181840152602081019050611da2565b83811115611dcc576000848401525b50505050565b60006002820490506001821680611dea57607f821691505b60208210811415611dfe57611dfd611e33565b5b50919050565b7f4e487b7100000000000000000000000000000000000000000000000000000000600052601160045260246000fd5b7f4e487b7100000000000000000000000000000000000000000000000000000000600052602260045260246000fd5b6000601f19601f8301169050919050565b7f45524332303a207472616e7366657220746f20746865207a65726f206164647260008201527f6573730000000000000000000000000000000000000000000000000000000000602082015250565b7f45524332303a20617070726f766520746f20746865207a65726f20616464726560008201527f7373000000000000000000000000000000000000000000000000000000000000602082015250565b7f45524332303a207472616e7366657220616d6f756e742065786365656473206260008201527f616c616e63650000000000000000000000000000000000000000000000000000602082015250565b7f416464726573733a20696e73756666696369656e742062616c616e636520666f60008201527f722063616c6c0000000000000000000000000000000000000000000000000000602082015250565b7f45524332303a207472616e7366657220616d6f756e742065786365656473206160008201527f6c6c6f77616e6365000000000000000000000000000000000000000000000000602082015250565b7f45524332303a207472616e736665722066726f6d20746865207a65726f20616460008201527f6472657373000000000000000000000000000000000000000000000000000000602082015250565b7f45524332303a20617070726f76652066726f6d20746865207a65726f2061646460008201527f7265737300000000000000000000000000000000000000000000000000000000602082015250565b7f416464726573733a2063616c6c20746f206e6f6e2d636f6e7472616374000000600082015250565b7f4572726f722c206e6f7420656e6f756768000000000000000000000000000000600082015250565b7f616d6f756e742063616e6e6f7420626520300000000000000000000000000000600082015250565b7f5361666545524332303a204552433230206f7065726174696f6e20646964206e60008201527f6f74207375636365656400000000000000000000000000000000000000000000602082015250565b7f45524332303a2064656372656173656420616c6c6f77616e63652062656c6f7760008201527f207a65726f000000000000000000000000000000000000000000000000000000602082015250565b7f45524332303a206d696e7420746f20746865207a65726f206164647265737300600082015250565b6121e781611d26565b81146121f257600080fd5b50565b6121fe81611d38565b811461220957600080fd5b50565b61221581611d64565b811461222057600080fd5b5056fea26469706673582212202ca8f790ecb0a6984c01cbfe313b2e0c9aa0b2eb097271b659ed5aff7b8eecb964736f6c63430008030033",
  "linkReferences": {},
  "deployedLinkReferences": {}
}