{
  "_format": "hh-sol-artifact-1",
  "contractName": "FarmToken",
  "sourceName": "contracts/FarmToken.sol",
  "abi": [
    {
      "inputs": [
        {
          "internalType": "address",
          "name": "_token",
          "type": "address"
        }
      ],
      "stateMutability": "nonpayable",
      "type": "constructor"
    },
    {
      "anonymous": false,
      "inputs": [
        {
          "indexed": true,
          "internalType": "address",
          "name": "owner",
          "type": "address"
        },
        {
          "indexed": true,
          "internalType": "address",
          "name": "spender",
          "type": "address"
        },
        {
          "indexed": false,
          "internalType": "uint256",
          "name": "value",
          "type": "uint256"
        }
      ],
      "name": "Approval",
      "type": "event"
    },
    {
      "anonymous": false,
      "inputs": [
        {
          "indexed": true,
          "internalType": "address",
          "name": "user",
          "type": "address"
        },
        {
          "indexed": false,
          "internalType": "uint256",
          "name": "mtokenAmount",
          "type": "uint256"
        },
        {
          "indexed": false,
          "internalType": "uint256",
          "name": "timeStart",
          "type": "uint256"
        }
      ],
      "name": "Deposit",
      "type": "event"
    },
    {
      "anonymous": false,
      "inputs": [
        {
          "indexed": true,
          "internalType": "address",
          "name": "from",
          "type": "address"
        },
        {
          "indexed": true,
          "internalType": "address",
          "name": "to",
          "type": "address"
        },
        {
          "indexed": false,
          "internalType": "uint256",
          "name": "value",
          "type": "uint256"
        }
      ],
      "name": "Transfer",
      "type": "event"
    },
    {
      "anonymous": false,
      "inputs": [
        {
          "indexed": true,
          "internalType": "address",
          "name": "user",
          "type": "address"
        },
        {
          "indexed": false,
          "internalType": "uint256",
          "name": "mtokenAmount",
          "type": "uint256"
        },
        {
          "indexed": false,
          "internalType": "uint256",
          "name": "depositTime",
          "type": "uint256"
        }
      ],
      "name": "Withdraw",
      "type": "event"
    },
    {
      "inputs": [
        {
          "internalType": "address",
          "name": "owner",
          "type": "address"
        },
        {
          "internalType": "address",
          "name": "spender",
          "type": "address"
        }
      ],
      "name": "allowance",
      "outputs": [
        {
          "internalType": "uint256",
          "name": "",
          "type": "uint256"
        }
      ],
      "stateMutability": "view",
      "type": "function"
    },
    {
      "inputs": [
        {
          "internalType": "address",
          "name": "spender",
          "type": "address"
        },
        {
          "internalType": "uint256",
          "name": "amount",
          "type": "uint256"
        }
      ],
      "name": "approve",
      "outputs": [
        {
          "internalType": "bool",
          "name": "",
          "type": "bool"
        }
      ],
      "stateMutability": "nonpayable",
      "type": "function"
    },
    {
      "inputs": [],
      "name": "balance",
      "outputs": [
        {
          "internalType": "uint256",
          "name": "",
          "type": "uint256"
        }
      ],
      "stateMutability": "view",
      "type": "function"
    },
    {
      "inputs": [
        {
          "internalType": "address",
          "name": "account",
          "type": "address"
        }
      ],
      "name": "balanceOf",
      "outputs": [
        {
          "internalType": "uint256",
          "name": "",
          "type": "uint256"
        }
      ],
      "stateMutability": "view",
      "type": "function"
    },
    {
      "inputs": [],
      "name": "checkTime",
      "outputs": [
        {
          "internalType": "uint256",
          "name": "",
          "type": "uint256"
        }
      ],
      "stateMutability": "view",
      "type": "function"
    },
    {
      "inputs": [],
      "name": "decimals",
      "outputs": [
        {
          "internalType": "uint8",
          "name": "",
          "type": "uint8"
        }
      ],
      "stateMutability": "view",
      "type": "function"
    },
    {
      "inputs": [
        {
          "internalType": "address",
          "name": "spender",
          "type": "address"
        },
        {
          "internalType": "uint256",
          "name": "subtractedValue",
          "type": "uint256"
        }
      ],
      "name": "decreaseAllowance",
      "outputs": [
        {
          "internalType": "bool",
          "name": "",
          "type": "bool"
        }
      ],
      "stateMutability": "nonpayable",
      "type": "function"
    },
    {
      "inputs": [
        {
          "internalType": "uint256",
          "name": "_amount",
          "type": "uint256"
        }
      ],
      "name": "deposit",
      "outputs": [],
      "stateMutability": "payable",
      "type": "function"
    },
    {
      "inputs": [
        {
          "internalType": "address",
          "name": "",
          "type": "address"
        }
      ],
      "name": "depositStart",
      "outputs": [
        {
          "internalType": "uint256",
          "name": "",
          "type": "uint256"
        }
      ],
      "stateMutability": "view",
      "type": "function"
    },
    {
      "inputs": [
        {
          "internalType": "address",
          "name": "spender",
          "type": "address"
        },
        {
          "internalType": "uint256",
          "name": "addedValue",
          "type": "uint256"
        }
      ],
      "name": "increaseAllowance",
      "outputs": [
        {
          "internalType": "bool",
          "name": "",
          "type": "bool"
        }
      ],
      "stateMutability": "nonpayable",
      "type": "function"
    },
    {
      "inputs": [],
      "name": "name",
      "outputs": [
        {
          "internalType": "string",
          "name": "",
          "type": "string"
        }
      ],
      "stateMutability": "view",
      "type": "function"
    },
    {
      "inputs": [],
      "name": "owner",
      "outputs": [
        {
          "internalType": "address",
          "name": "",
          "type": "address"
        }
      ],
      "stateMutability": "view",
      "type": "function"
    },
    {
      "inputs": [],
      "name": "ownerDepositBalance",
      "outputs": [
        {
          "internalType": "uint256",
          "name": "",
          "type": "uint256"
        }
      ],
      "stateMutability": "view",
      "type": "function"
    },
    {
      "inputs": [
        {
          "internalType": "address",
          "name": "",
          "type": "address"
        }
      ],
      "name": "primaryDeposit",
      "outputs": [
        {
          "internalType": "uint256",
          "name": "",
          "type": "uint256"
        }
      ],
      "stateMutability": "view",
      "type": "function"
    },
    {
      "inputs": [],
      "name": "symbol",
      "outputs": [
        {
          "internalType": "string",
          "name": "",
          "type": "string"
        }
      ],
      "stateMutability": "view",
      "type": "function"
    },
    {
      "inputs": [],
      "name": "token",
      "outputs": [
        {
          "internalType": "contract IERC20",
          "name": "",
          "type": "address"
        }
      ],
      "stateMutability": "view",
      "type": "function"
    },
    {
      "inputs": [
        {
          "internalType": "address",
          "name": "",
          "type": "address"
        }
      ],
      "name": "tokenBalanceOf",
      "outputs": [
        {
          "internalType": "uint256",
          "name": "",
          "type": "uint256"
        }
      ],
      "stateMutability": "view",
      "type": "function"
    },
    {
      "inputs": [],
      "name": "totalSupply",
      "outputs": [
        {
          "internalType": "uint256",
          "name": "",
          "type": "uint256"
        }
      ],
      "stateMutability": "view",
      "type": "function"
    },
    {
      "inputs": [
        {
          "internalType": "address",
          "name": "recipient",
          "type": "address"
        },
        {
          "internalType": "uint256",
          "name": "amount",
          "type": "uint256"
        }
      ],
      "name": "transfer",
      "outputs": [
        {
          "internalType": "bool",
          "name": "",
          "type": "bool"
        }
      ],
      "stateMutability": "nonpayable",
      "type": "function"
    },
    {
      "inputs": [
        {
          "internalType": "address",
          "name": "sender",
          "type": "address"
        },
        {
          "internalType": "address",
          "name": "recipient",
          "type": "address"
        },
        {
          "internalType": "uint256",
          "name": "amount",
          "type": "uint256"
        }
      ],
      "name": "transferFrom",
      "outputs": [
        {
          "internalType": "bool",
          "name": "",
          "type": "bool"
        }
      ],
      "stateMutability": "nonpayable",
      "type": "function"
    },
    {
      "inputs": [
        {
          "internalType": "uint256",
          "name": "_amount",
          "type": "uint256"
        }
      ],
      "name": "withdraw",
      "outputs": [],
      "stateMutability": "nonpayable",
      "type": "function"
    },
    {
      "inputs": [
        {
          "internalType": "uint256",
          "name": "_amount",
          "type": "uint256"
        }
      ],
      "name": "withdrawMaster",
      "outputs": [],
      "stateMutability": "nonpayable",
      "type": "function"
    }
  ],
  "bytecode": "0x608060405262093a8060055562015180600655671bc16d674ec800006007553480156200002b57600080fd5b5060405162002c0338038062002c03833981810160405281019062000051919062000241565b6040518060400160405280600881526020017f446164546f6b656e0000000000000000000000000000000000000000000000008152506040518060400160405280600381526020017f44414400000000000000000000000000000000000000000000000000000000008152508160039080519060200190620000d59291906200017a565b508060049080519060200190620000ee9291906200017a565b50505080600860006101000a81548173ffffffffffffffffffffffffffffffffffffffff021916908373ffffffffffffffffffffffffffffffffffffffff16021790555033600c60006101000a81548173ffffffffffffffffffffffffffffffffffffffff021916908373ffffffffffffffffffffffffffffffffffffffff1602179055505062000320565b8280546200018890620002a1565b90600052602060002090601f016020900481019282620001ac5760008555620001f8565b82601f10620001c757805160ff1916838001178555620001f8565b82800160010185558215620001f8579182015b82811115620001f7578251825591602001919060010190620001da565b5b5090506200020791906200020b565b5090565b5b80821115620002265760008160009055506001016200020c565b5090565b6000815190506200023b8162000306565b92915050565b6000602082840312156200025457600080fd5b600062000264848285016200022a565b91505092915050565b60006200027a8262000281565b9050919050565b600073ffffffffffffffffffffffffffffffffffffffff82169050919050565b60006002820490506001821680620002ba57607f821691505b60208210811415620002d157620002d0620002d7565b5b50919050565b7f4e487b7100000000000000000000000000000000000000000000000000000000600052602260045260246000fd5b62000311816200026d565b81146200031d57600080fd5b50565b6128d380620003306000396000f3fe6080604052600436106101355760003560e01c80639c6d9d2f116100ab578063b6b55f251161006f578063b6b55f2514610464578063dd62ed3e14610480578063e0c6190d146104bd578063e42c08f2146104e8578063fc0c546a14610525578063ff87930a1461055057610135565b80639c6d9d2f1461036b578063a04588ed14610394578063a457c2d7146103bf578063a9059cbb146103fc578063b69ef8a81461043957610135565b80632e34427f116100fd5780632e34427f14610233578063313ce56714610270578063395093511461029b57806370a08231146102d85780638da5cb5b1461031557806395d89b411461034057610135565b806306fdde031461013a578063095ea7b31461016557806318160ddd146101a257806323b872dd146101cd5780632e1a7d4d1461020a575b600080fd5b34801561014657600080fd5b5061014f61058d565b60405161015c91906120c3565b60405180910390f35b34801561017157600080fd5b5061018c60048036038101906101879190611cc8565b61061f565b604051610199919061208d565b60405180910390f35b3480156101ae57600080fd5b506101b761063d565b6040516101c49190612285565b60405180910390f35b3480156101d957600080fd5b506101f460048036038101906101ef9190611c79565b610647565b604051610201919061208d565b60405180910390f35b34801561021657600080fd5b50610231600480360381019061022c9190611d2d565b61073f565b005b34801561023f57600080fd5b5061025a60048036038101906102559190611c14565b610a5f565b6040516102679190612285565b60405180910390f35b34801561027c57600080fd5b50610285610a77565b60405161029291906122c9565b60405180910390f35b3480156102a757600080fd5b506102c260048036038101906102bd9190611cc8565b610a80565b6040516102cf919061208d565b60405180910390f35b3480156102e457600080fd5b506102ff60048036038101906102fa9190611c14565b610b2c565b60405161030c9190612285565b60405180910390f35b34801561032157600080fd5b5061032a610b74565b6040516103379190612012565b60405180910390f35b34801561034c57600080fd5b50610355610b9a565b60405161036291906120c3565b60405180910390f35b34801561037757600080fd5b50610392600480360381019061038d9190611d2d565b610c2c565b005b3480156103a057600080fd5b506103a9610c89565b6040516103b69190612285565b60405180910390f35b3480156103cb57600080fd5b506103e660048036038101906103e19190611cc8565b610cd5565b6040516103f3919061208d565b60405180910390f35b34801561040857600080fd5b50610423600480360381019061041e9190611cc8565b610dc0565b604051610430919061208d565b60405180910390f35b34801561044557600080fd5b5061044e610dde565b60405161045b9190612285565b60405180910390f35b61047e60048036038101906104799190611d2d565b610e90565b005b34801561048c57600080fd5b506104a760048036038101906104a29190611c3d565b61115d565b6040516104b49190612285565b60405180910390f35b3480156104c957600080fd5b506104d26111e4565b6040516104df9190612285565b60405180910390f35b3480156104f457600080fd5b5061050f600480360381019061050a9190611c14565b611230565b60405161051c9190612285565b60405180910390f35b34801561053157600080fd5b5061053a611248565b60405161054791906120a8565b60405180910390f35b34801561055c57600080fd5b5061057760048036038101906105729190611c14565b61126e565b6040516105849190612285565b60405180910390f35b60606003805461059c9061244c565b80601f01602080910402602001604051908101604052809291908181526020018280546105c89061244c565b80156106155780601f106105ea57610100808354040283529160200191610615565b820191906000526020600020905b8154815290600101906020018083116105f857829003601f168201915b5050505050905090565b600061063361062c611286565b848461128e565b6001905092915050565b6000600254905090565b6000610654848484611459565b6000600160008673ffffffffffffffffffffffffffffffffffffffff1673ffffffffffffffffffffffffffffffffffffffff168152602001908152602001600020600061069f611286565b73ffffffffffffffffffffffffffffffffffffffff1673ffffffffffffffffffffffffffffffffffffffff1681526020019081526020016000205490508281101561071f576040517f08c379a000000000000000000000000000000000000000000000000000000000815260040161071690612165565b60405180910390fd5b6107338561072b611286565b85840361128e565b60019150509392505050565b600960003373ffffffffffffffffffffffffffffffffffffffff1673ffffffffffffffffffffffffffffffffffffffff168152602001908152602001600020548111156107c1576040517f08c379a00000000000000000000000000000000000000000000000000000000081526004016107b8906121e5565b60405180910390fd5b6000600a60003373ffffffffffffffffffffffffffffffffffffffff1673ffffffffffffffffffffffffffffffffffffffff168152602001908152602001600020544261080e919061236c565b90506005544261081e919061236c565b600a60003373ffffffffffffffffffffffffffffffffffffffff1673ffffffffffffffffffffffffffffffffffffffff1681526020019081526020016000205411610885576000600754836108739190612316565b905061087f33826116da565b506108eb565b60065442610893919061236c565b600a60003373ffffffffffffffffffffffffffffffffffffffff1673ffffffffffffffffffffffffffffffffffffffff16815260200190815260200160002054116108e9576108e4336007546116da565b6108ea565b5b5b6109383383600860009054906101000a900473ffffffffffffffffffffffffffffffffffffffff1673ffffffffffffffffffffffffffffffffffffffff1661183a9092919063ffffffff16565b81600960003373ffffffffffffffffffffffffffffffffffffffff1673ffffffffffffffffffffffffffffffffffffffff16815260200190815260200160002054610983919061236c565b600960003373ffffffffffffffffffffffffffffffffffffffff1673ffffffffffffffffffffffffffffffffffffffff168152602001908152602001600020819055506000600a60003373ffffffffffffffffffffffffffffffffffffffff1673ffffffffffffffffffffffffffffffffffffffff168152602001908152602001600020819055503373ffffffffffffffffffffffffffffffffffffffff167ff279e6a1f5e320cca91135676d9cb6e44ca8a08c0b88342bcdb1144f6511b5688383604051610a539291906122a0565b60405180910390a25050565b600b6020528060005260406000206000915090505481565b60006012905090565b6000610b22610a8d611286565b848460016000610a9b611286565b73ffffffffffffffffffffffffffffffffffffffff1673ffffffffffffffffffffffffffffffffffffffff16815260200190815260200160002060008873ffffffffffffffffffffffffffffffffffffffff1673ffffffffffffffffffffffffffffffffffffffff16815260200190815260200160002054610b1d9190612316565b61128e565b6001905092915050565b60008060008373ffffffffffffffffffffffffffffffffffffffff1673ffffffffffffffffffffffffffffffffffffffff168152602001908152602001600020549050919050565b600c60009054906101000a900473ffffffffffffffffffffffffffffffffffffffff1681565b606060048054610ba99061244c565b80601f0160208091040260200160405190810160405280929190818152602001828054610bd59061244c565b8015610c225780601f10610bf757610100808354040283529160200191610c22565b820191906000526020600020905b815481529060010190602001808311610c0557829003601f168201915b5050505050905090565b600c60009054906101000a900473ffffffffffffffffffffffffffffffffffffffff1673ffffffffffffffffffffffffffffffffffffffff163373ffffffffffffffffffffffffffffffffffffffff1614610c8657600080fd5b50565b600080600960003373ffffffffffffffffffffffffffffffffffffffff1673ffffffffffffffffffffffffffffffffffffffff1681526020019081526020016000205490508091505090565b60008060016000610ce4611286565b73ffffffffffffffffffffffffffffffffffffffff1673ffffffffffffffffffffffffffffffffffffffff16815260200190815260200160002060008573ffffffffffffffffffffffffffffffffffffffff1673ffffffffffffffffffffffffffffffffffffffff16815260200190815260200160002054905082811015610da1576040517f08c379a0000000000000000000000000000000000000000000000000000000008152600401610d9890612245565b60405180910390fd5b610db5610dac611286565b8585840361128e565b600191505092915050565b6000610dd4610dcd611286565b8484611459565b6001905092915050565b6000600860009054906101000a900473ffffffffffffffffffffffffffffffffffffffff1673ffffffffffffffffffffffffffffffffffffffff166370a08231306040518263ffffffff1660e01b8152600401610e3b9190612012565b60206040518083038186803b158015610e5357600080fd5b505afa158015610e67573d6000803e3d6000fd5b505050506040513d601f19601f82011682018060405250810190610e8b9190611d56565b905090565b60008111610ed3576040517f08c379a0000000000000000000000000000000000000000000000000000000008152600401610eca90612205565b60405180910390fd5b6000600960003373ffffffffffffffffffffffffffffffffffffffff1673ffffffffffffffffffffffffffffffffffffffff16815260200190815260200160002054141561102d5742600a60003373ffffffffffffffffffffffffffffffffffffffff1673ffffffffffffffffffffffffffffffffffffffff16815260200190815260200160002054610f669190612316565b600a60003373ffffffffffffffffffffffffffffffffffffffff1673ffffffffffffffffffffffffffffffffffffffff16815260200190815260200160002081905550600a60003373ffffffffffffffffffffffffffffffffffffffff1673ffffffffffffffffffffffffffffffffffffffff16815260200190815260200160002054600b60003373ffffffffffffffffffffffffffffffffffffffff1673ffffffffffffffffffffffffffffffffffffffff168152602001908152602001600020819055505b61107c333083600860009054906101000a900473ffffffffffffffffffffffffffffffffffffffff1673ffffffffffffffffffffffffffffffffffffffff166118c0909392919063ffffffff16565b80600960003373ffffffffffffffffffffffffffffffffffffffff1673ffffffffffffffffffffffffffffffffffffffff168152602001908152602001600020546110c79190612316565b600960003373ffffffffffffffffffffffffffffffffffffffff1673ffffffffffffffffffffffffffffffffffffffff168152602001908152602001600020819055503373ffffffffffffffffffffffffffffffffffffffff167f90890809c654f11d6e72a28fa60149770a0d11ec6c92319d6ceb2bb0a4ea1a1582426040516111529291906122a0565b60405180910390a250565b6000600160008473ffffffffffffffffffffffffffffffffffffffff1673ffffffffffffffffffffffffffffffffffffffff16815260200190815260200160002060008373ffffffffffffffffffffffffffffffffffffffff1673ffffffffffffffffffffffffffffffffffffffff16815260200190815260200160002054905092915050565b600080600a60003373ffffffffffffffffffffffffffffffffffffffff1673ffffffffffffffffffffffffffffffffffffffff1681526020019081526020016000205490508091505090565b60096020528060005260406000206000915090505481565b600860009054906101000a900473ffffffffffffffffffffffffffffffffffffffff1681565b600a6020528060005260406000206000915090505481565b600033905090565b600073ffffffffffffffffffffffffffffffffffffffff168373ffffffffffffffffffffffffffffffffffffffff1614156112fe576040517f08c379a00000000000000000000000000000000000000000000000000000000081526004016112f5906121a5565b60405180910390fd5b600073ffffffffffffffffffffffffffffffffffffffff168273ffffffffffffffffffffffffffffffffffffffff16141561136e576040517f08c379a000000000000000000000000000000000000000000000000000000000815260040161136590612105565b60405180910390fd5b80600160008573ffffffffffffffffffffffffffffffffffffffff1673ffffffffffffffffffffffffffffffffffffffff16815260200190815260200160002060008473ffffffffffffffffffffffffffffffffffffffff1673ffffffffffffffffffffffffffffffffffffffff168152602001908152602001600020819055508173ffffffffffffffffffffffffffffffffffffffff168373ffffffffffffffffffffffffffffffffffffffff167f8c5be1e5ebec7d5bd14f71427d1e84f3dd0314c0f7b2291e5b200ac8c7c3b9258360405161144c9190612285565b60405180910390a3505050565b600073ffffffffffffffffffffffffffffffffffffffff168373ffffffffffffffffffffffffffffffffffffffff1614156114c9576040517f08c379a00000000000000000000000000000000000000000000000000000000081526004016114c090612185565b60405180910390fd5b600073ffffffffffffffffffffffffffffffffffffffff168273ffffffffffffffffffffffffffffffffffffffff161415611539576040517f08c379a0000000000000000000000000000000000000000000000000000000008152600401611530906120e5565b60405180910390fd5b611544838383611949565b60008060008573ffffffffffffffffffffffffffffffffffffffff1673ffffffffffffffffffffffffffffffffffffffff168152602001908152602001600020549050818110156115ca576040517f08c379a00000000000000000000000000000000000000000000000000000000081526004016115c190612125565b60405180910390fd5b8181036000808673ffffffffffffffffffffffffffffffffffffffff1673ffffffffffffffffffffffffffffffffffffffff16815260200190815260200160002081905550816000808573ffffffffffffffffffffffffffffffffffffffff1673ffffffffffffffffffffffffffffffffffffffff168152602001908152602001600020600082825461165d9190612316565b925050819055508273ffffffffffffffffffffffffffffffffffffffff168473ffffffffffffffffffffffffffffffffffffffff167fddf252ad1be2c89b69c2b068fc378daa952ba7f163c4a11628f55a4df523b3ef846040516116c19190612285565b60405180910390a36116d484848461194e565b50505050565b600073ffffffffffffffffffffffffffffffffffffffff168273ffffffffffffffffffffffffffffffffffffffff16141561174a576040517f08c379a000000000000000000000000000000000000000000000000000000000815260040161174190612265565b60405180910390fd5b61175660008383611949565b80600260008282546117689190612316565b92505081905550806000808473ffffffffffffffffffffffffffffffffffffffff1673ffffffffffffffffffffffffffffffffffffffff16815260200190815260200160002060008282546117bd9190612316565b925050819055508173ffffffffffffffffffffffffffffffffffffffff16600073ffffffffffffffffffffffffffffffffffffffff167fddf252ad1be2c89b69c2b068fc378daa952ba7f163c4a11628f55a4df523b3ef836040516118229190612285565b60405180910390a36118366000838361194e565b5050565b6118bb8363a9059cbb60e01b8484604051602401611859929190612064565b604051602081830303815290604052907bffffffffffffffffffffffffffffffffffffffffffffffffffffffff19166020820180517bffffffffffffffffffffffffffffffffffffffffffffffffffffffff8381831617835250505050611953565b505050565b611943846323b872dd60e01b8585856040516024016118e19392919061202d565b604051602081830303815290604052907bffffffffffffffffffffffffffffffffffffffffffffffffffffffff19166020820180517bffffffffffffffffffffffffffffffffffffffffffffffffffffffff8381831617835250505050611953565b50505050565b505050565b505050565b60006119b5826040518060400160405280602081526020017f5361666545524332303a206c6f772d6c6576656c2063616c6c206661696c65648152508573ffffffffffffffffffffffffffffffffffffffff16611a1a9092919063ffffffff16565b9050600081511115611a1557808060200190518101906119d59190611d04565b611a14576040517f08c379a0000000000000000000000000000000000000000000000000000000008152600401611a0b90612225565b60405180910390fd5b5b505050565b6060611a298484600085611a32565b90509392505050565b606082471015611a77576040517f08c379a0000000000000000000000000000000000000000000000000000000008152600401611a6e90612145565b60405180910390fd5b611a8085611b46565b611abf576040517f08c379a0000000000000000000000000000000000000000000000000000000008152600401611ab6906121c5565b60405180910390fd5b6000808673ffffffffffffffffffffffffffffffffffffffff168587604051611ae89190611ffb565b60006040518083038185875af1925050503d8060008114611b25576040519150601f19603f3d011682016040523d82523d6000602084013e611b2a565b606091505b5091509150611b3a828286611b59565b92505050949350505050565b600080823b905060008111915050919050565b60608315611b6957829050611bb9565b600083511115611b7c5782518084602001fd5b816040517f08c379a0000000000000000000000000000000000000000000000000000000008152600401611bb091906120c3565b60405180910390fd5b9392505050565b600081359050611bcf81612858565b92915050565b600081519050611be48161286f565b92915050565b600081359050611bf981612886565b92915050565b600081519050611c0e81612886565b92915050565b600060208284031215611c2657600080fd5b6000611c3484828501611bc0565b91505092915050565b60008060408385031215611c5057600080fd5b6000611c5e85828601611bc0565b9250506020611c6f85828601611bc0565b9150509250929050565b600080600060608486031215611c8e57600080fd5b6000611c9c86828701611bc0565b9350506020611cad86828701611bc0565b9250506040611cbe86828701611bea565b9150509250925092565b60008060408385031215611cdb57600080fd5b6000611ce985828601611bc0565b9250506020611cfa85828601611bea565b9150509250929050565b600060208284031215611d1657600080fd5b6000611d2484828501611bd5565b91505092915050565b600060208284031215611d3f57600080fd5b6000611d4d84828501611bea565b91505092915050565b600060208284031215611d6857600080fd5b6000611d7684828501611bff565b91505092915050565b611d88816123a0565b82525050565b611d97816123b2565b82525050565b6000611da8826122e4565b611db281856122fa565b9350611dc2818560208601612419565b80840191505092915050565b611dd7816123f5565b82525050565b6000611de8826122ef565b611df28185612305565b9350611e02818560208601612419565b611e0b816124dc565b840191505092915050565b6000611e23602383612305565b9150611e2e826124ed565b604082019050919050565b6000611e46602283612305565b9150611e518261253c565b604082019050919050565b6000611e69602683612305565b9150611e748261258b565b604082019050919050565b6000611e8c602683612305565b9150611e97826125da565b604082019050919050565b6000611eaf602883612305565b9150611eba82612629565b604082019050919050565b6000611ed2602583612305565b9150611edd82612678565b604082019050919050565b6000611ef5602483612305565b9150611f00826126c7565b604082019050919050565b6000611f18601d83612305565b9150611f2382612716565b602082019050919050565b6000611f3b601183612305565b9150611f468261273f565b602082019050919050565b6000611f5e601283612305565b9150611f6982612768565b602082019050919050565b6000611f81602a83612305565b9150611f8c82612791565b604082019050919050565b6000611fa4602583612305565b9150611faf826127e0565b604082019050919050565b6000611fc7601f83612305565b9150611fd28261282f565b602082019050919050565b611fe6816123de565b82525050565b611ff5816123e8565b82525050565b60006120078284611d9d565b915081905092915050565b60006020820190506120276000830184611d7f565b92915050565b60006060820190506120426000830186611d7f565b61204f6020830185611d7f565b61205c6040830184611fdd565b949350505050565b60006040820190506120796000830185611d7f565b6120866020830184611fdd565b9392505050565b60006020820190506120a26000830184611d8e565b92915050565b60006020820190506120bd6000830184611dce565b92915050565b600060208201905081810360008301526120dd8184611ddd565b905092915050565b600060208201905081810360008301526120fe81611e16565b9050919050565b6000602082019050818103600083015261211e81611e39565b9050919050565b6000602082019050818103600083015261213e81611e5c565b9050919050565b6000602082019050818103600083015261215e81611e7f565b9050919050565b6000602082019050818103600083015261217e81611ea2565b9050919050565b6000602082019050818103600083015261219e81611ec5565b9050919050565b600060208201905081810360008301526121be81611ee8565b9050919050565b600060208201905081810360008301526121de81611f0b565b9050919050565b600060208201905081810360008301526121fe81611f2e565b9050919050565b6000602082019050818103600083015261221e81611f51565b9050919050565b6000602082019050818103600083015261223e81611f74565b9050919050565b6000602082019050818103600083015261225e81611f97565b9050919050565b6000602082019050818103600083015261227e81611fba565b9050919050565b600060208201905061229a6000830184611fdd565b92915050565b60006040820190506122b56000830185611fdd565b6122c26020830184611fdd565b9392505050565b60006020820190506122de6000830184611fec565b92915050565b600081519050919050565b600081519050919050565b600081905092915050565b600082825260208201905092915050565b6000612321826123de565b915061232c836123de565b9250827fffffffffffffffffffffffffffffffffffffffffffffffffffffffffffffffff038211156123615761236061247e565b5b828201905092915050565b6000612377826123de565b9150612382836123de565b9250828210156123955761239461247e565b5b828203905092915050565b60006123ab826123be565b9050919050565b60008115159050919050565b600073ffffffffffffffffffffffffffffffffffffffff82169050919050565b6000819050919050565b600060ff82169050919050565b600061240082612407565b9050919050565b6000612412826123be565b9050919050565b60005b8381101561243757808201518184015260208101905061241c565b83811115612446576000848401525b50505050565b6000600282049050600182168061246457607f821691505b60208210811415612478576124776124ad565b5b50919050565b7f4e487b7100000000000000000000000000000000000000000000000000000000600052601160045260246000fd5b7f4e487b7100000000000000000000000000000000000000000000000000000000600052602260045260246000fd5b6000601f19601f8301169050919050565b7f45524332303a207472616e7366657220746f20746865207a65726f206164647260008201527f6573730000000000000000000000000000000000000000000000000000000000602082015250565b7f45524332303a20617070726f766520746f20746865207a65726f20616464726560008201527f7373000000000000000000000000000000000000000000000000000000000000602082015250565b7f45524332303a207472616e7366657220616d6f756e742065786365656473206260008201527f616c616e63650000000000000000000000000000000000000000000000000000602082015250565b7f416464726573733a20696e73756666696369656e742062616c616e636520666f60008201527f722063616c6c0000000000000000000000000000000000000000000000000000602082015250565b7f45524332303a207472616e7366657220616d6f756e742065786365656473206160008201527f6c6c6f77616e6365000000000000000000000000000000000000000000000000602082015250565b7f45524332303a207472616e736665722066726f6d20746865207a65726f20616460008201527f6472657373000000000000000000000000000000000000000000000000000000602082015250565b7f45524332303a20617070726f76652066726f6d20746865207a65726f2061646460008201527f7265737300000000000000000000000000000000000000000000000000000000602082015250565b7f416464726573733a2063616c6c20746f206e6f6e2d636f6e7472616374000000600082015250565b7f4572726f722c206e6f7420656e6f756768000000000000000000000000000000600082015250565b7f616d6f756e742063616e6e6f7420626520300000000000000000000000000000600082015250565b7f5361666545524332303a204552433230206f7065726174696f6e20646964206e60008201527f6f74207375636365656400000000000000000000000000000000000000000000602082015250565b7f45524332303a2064656372656173656420616c6c6f77616e63652062656c6f7760008201527f207a65726f000000000000000000000000000000000000000000000000000000602082015250565b7f45524332303a206d696e7420746f20746865207a65726f206164647265737300600082015250565b612861816123a0565b811461286c57600080fd5b50565b612878816123b2565b811461288357600080fd5b50565b61288f816123de565b811461289a57600080fd5b5056fea2646970667358221220624b64c773a40197bb767dc807595ec9d193fd135df12cc710f5a6de1b4f45e564736f6c63430008030033",
  "linkReferences": {},
  "deployedLinkReferences": {}
}