{
  "_format": "hh-sol-artifact-1",
  "contractName": "Bank",
  "sourceName": "contracts/Bank.sol",
  "abi": [
    {
      "inputs": [
        {
          "internalType": "contract MommyToken",
          "name": "_mommy",
          "type": "address"
        }
      ],
      "stateMutability": "nonpayable",
      "type": "constructor"
    },
    {
      "anonymous": false,
      "inputs": [
        {
          "indexed": true,
          "internalType": "address",
          "name": "user",
          "type": "address"
        },
        {
          "indexed": false,
          "internalType": "uint256",
          "name": "tokenAmount",
          "type": "uint256"
        },
        {
          "indexed": false,
          "internalType": "uint256",
          "name": "timeStart",
          "type": "uint256"
        }
      ],
      "name": "Deposit",
      "type": "event"
    },
    {
      "anonymous": false,
      "inputs": [
        {
          "indexed": true,
          "internalType": "address",
          "name": "user",
          "type": "address"
        },
        {
          "indexed": false,
          "internalType": "uint256",
          "name": "tokenAmmount",
          "type": "uint256"
        },
        {
          "indexed": false,
          "internalType": "uint256",
          "name": "depositTime",
          "type": "uint256"
        },
        {
          "indexed": false,
          "internalType": "uint256",
          "name": "interest",
          "type": "uint256"
        }
      ],
      "name": "Withdraw",
      "type": "event"
    },
    {
      "inputs": [],
      "name": "borrow",
      "outputs": [],
      "stateMutability": "nonpayable",
      "type": "function"
    },
    {
      "inputs": [],
      "name": "deposit",
      "outputs": [],
      "stateMutability": "payable",
      "type": "function"
    },
    {
      "inputs": [
        {
          "internalType": "address",
          "name": "",
          "type": "address"
        }
      ],
      "name": "depositStart",
      "outputs": [
        {
          "internalType": "uint256",
          "name": "",
          "type": "uint256"
        }
      ],
      "stateMutability": "view",
      "type": "function"
    },
    {
      "inputs": [
        {
          "internalType": "address",
          "name": "",
          "type": "address"
        }
      ],
      "name": "isDeposited",
      "outputs": [
        {
          "internalType": "bool",
          "name": "",
          "type": "bool"
        }
      ],
      "stateMutability": "view",
      "type": "function"
    },
    {
      "inputs": [
        {
          "internalType": "address",
          "name": "",
          "type": "address"
        }
      ],
      "name": "tokenBalanceOf",
      "outputs": [
        {
          "internalType": "uint256",
          "name": "",
          "type": "uint256"
        }
      ],
      "stateMutability": "view",
      "type": "function"
    },
    {
      "inputs": [],
      "name": "withdraw",
      "outputs": [],
      "stateMutability": "nonpayable",
      "type": "function"
    }
  ],
  "bytecode": "0x608060405234801561001057600080fd5b50604051610e0b380380610e0b8339818101604052810190610032919061008d565b806000806101000a81548173ffffffffffffffffffffffffffffffffffffffff021916908373ffffffffffffffffffffffffffffffffffffffff16021790555050610111565b600081519050610087816100fa565b92915050565b60006020828403121561009f57600080fd5b60006100ad84828501610078565b91505092915050565b60006100c1826100da565b9050919050565b60006100d3826100b6565b9050919050565b600073ffffffffffffffffffffffffffffffffffffffff82169050919050565b610103816100c8565b811461010e57600080fd5b50565b610ceb806101206000396000f3fe6080604052600436106100555760003560e01c80633ccfd60b1461005a5780637373202414610071578063d0e30db0146100ae578063e42c08f2146100b8578063e68d3569146100f5578063ff87930a1461010c575b600080fd5b34801561006657600080fd5b5061006f610149565b005b34801561007d57600080fd5b5061009860048036038101906100939190610879565b610576565b6040516100a59190610961565b60405180910390f35b6100b6610596565b005b3480156100c457600080fd5b506100df60048036038101906100da9190610879565b610832565b6040516100ec91906109dc565b60405180910390f35b34801561010157600080fd5b5061010a61084a565b005b34801561011857600080fd5b50610133600480360381019061012e9190610879565b61084c565b60405161014091906109dc565b60405180910390f35b60011515600360003373ffffffffffffffffffffffffffffffffffffffff1673ffffffffffffffffffffffffffffffffffffffff16815260200190815260200160002060009054906101000a900460ff161515146101dc576040517f08c379a00000000000000000000000000000000000000000000000000000000081526004016101d39061097c565b60405180910390fd5b6000600160003373ffffffffffffffffffffffffffffffffffffffff1673ffffffffffffffffffffffffffffffffffffffff1681526020019081526020016000205490506000600260003373ffffffffffffffffffffffffffffffffffffffff1673ffffffffffffffffffffffffffffffffffffffff168152602001908152602001600020544261026d9190610b49565b90506000662386f26fc10000600160003373ffffffffffffffffffffffffffffffffffffffff1673ffffffffffffffffffffffffffffffffffffffff168152602001908152602001600020546102c39190610abe565b6301e337316102d29190610aef565b9050600082826102e29190610aef565b90503373ffffffffffffffffffffffffffffffffffffffff166108fc600160003373ffffffffffffffffffffffffffffffffffffffff1673ffffffffffffffffffffffffffffffffffffffff168152602001908152602001600020549081150290604051600060405180830381858888f19350505050158015610369573d6000803e3d6000fd5b5060008054906101000a900473ffffffffffffffffffffffffffffffffffffffff1673ffffffffffffffffffffffffffffffffffffffff166340c10f1933836040518363ffffffff1660e01b81526004016103c5929190610938565b600060405180830381600087803b1580156103df57600080fd5b505af11580156103f3573d6000803e3d6000fd5b505050506000600160003373ffffffffffffffffffffffffffffffffffffffff1673ffffffffffffffffffffffffffffffffffffffff168152602001908152602001600020819055506000600360003373ffffffffffffffffffffffffffffffffffffffff1673ffffffffffffffffffffffffffffffffffffffff16815260200190815260200160002060006101000a81548160ff0219169083151502179055506000600160003373ffffffffffffffffffffffffffffffffffffffff1673ffffffffffffffffffffffffffffffffffffffff168152602001908152602001600020819055506000600260003373ffffffffffffffffffffffffffffffffffffffff1673ffffffffffffffffffffffffffffffffffffffff168152602001908152602001600020819055503373ffffffffffffffffffffffffffffffffffffffff167f02f25270a4d87bea75db541cdfe559334a275b4a233520ed6c0a2429667cca9485858460405161056893929190610a20565b60405180910390a250505050565b60036020528060005260406000206000915054906101000a900460ff1681565b60001515600360003373ffffffffffffffffffffffffffffffffffffffff1673ffffffffffffffffffffffffffffffffffffffff16815260200190815260200160002060009054906101000a900460ff16151514610629576040517f08c379a0000000000000000000000000000000000000000000000000000000008152600401610620906109bc565b60405180910390fd5b6000341161066c576040517f08c379a00000000000000000000000000000000000000000000000000000000081526004016106639061099c565b60405180910390fd5b34600160003373ffffffffffffffffffffffffffffffffffffffff1673ffffffffffffffffffffffffffffffffffffffff168152602001908152602001600020546106b79190610a68565b600160003373ffffffffffffffffffffffffffffffffffffffff1673ffffffffffffffffffffffffffffffffffffffff1681526020019081526020016000208190555042600260003373ffffffffffffffffffffffffffffffffffffffff1673ffffffffffffffffffffffffffffffffffffffff168152602001908152602001600020546107459190610a68565b600260003373ffffffffffffffffffffffffffffffffffffffff1673ffffffffffffffffffffffffffffffffffffffff168152602001908152602001600020819055506001600360003373ffffffffffffffffffffffffffffffffffffffff1673ffffffffffffffffffffffffffffffffffffffff16815260200190815260200160002060006101000a81548160ff0219169083151502179055503373ffffffffffffffffffffffffffffffffffffffff167f90890809c654f11d6e72a28fa60149770a0d11ec6c92319d6ceb2bb0a4ea1a1534426040516108289291906109f7565b60405180910390a2565b60016020528060005260406000206000915090505481565b565b60026020528060005260406000206000915090505481565b60008135905061087381610c9e565b92915050565b60006020828403121561088b57600080fd5b600061089984828501610864565b91505092915050565b6108ab81610b7d565b82525050565b6108ba81610b8f565b82525050565b60006108cd601283610a57565b91506108d882610c23565b602082019050919050565b60006108f0601e83610a57565b91506108fb82610c4c565b602082019050919050565b6000610913601c83610a57565b915061091e82610c75565b602082019050919050565b61093281610bbb565b82525050565b600060408201905061094d60008301856108a2565b61095a6020830184610929565b9392505050565b600060208201905061097660008301846108b1565b92915050565b60006020820190508181036000830152610995816108c0565b9050919050565b600060208201905081810360008301526109b5816108e3565b9050919050565b600060208201905081810360008301526109d581610906565b9050919050565b60006020820190506109f16000830184610929565b92915050565b6000604082019050610a0c6000830185610929565b610a196020830184610929565b9392505050565b6000606082019050610a356000830186610929565b610a426020830185610929565b610a4f6040830184610929565b949350505050565b600082825260208201905092915050565b6000610a7382610bbb565b9150610a7e83610bbb565b9250827fffffffffffffffffffffffffffffffffffffffffffffffffffffffffffffffff03821115610ab357610ab2610bc5565b5b828201905092915050565b6000610ac982610bbb565b9150610ad483610bbb565b925082610ae457610ae3610bf4565b5b828204905092915050565b6000610afa82610bbb565b9150610b0583610bbb565b9250817fffffffffffffffffffffffffffffffffffffffffffffffffffffffffffffffff0483118215151615610b3e57610b3d610bc5565b5b828202905092915050565b6000610b5482610bbb565b9150610b5f83610bbb565b925082821015610b7257610b71610bc5565b5b828203905092915050565b6000610b8882610b9b565b9050919050565b60008115159050919050565b600073ffffffffffffffffffffffffffffffffffffffff82169050919050565b6000819050919050565b7f4e487b7100000000000000000000000000000000000000000000000000000000600052601160045260246000fd5b7f4e487b7100000000000000000000000000000000000000000000000000000000600052601260045260246000fd5b7f4572726f722c206e6f206465706f736974730000000000000000000000000000600082015250565b7f4572726f722c206d757374206465706f73697420736f6d652076616c75650000600082015250565b7f4572726f72206465706f73697420616c72656164792061637469766500000000600082015250565b610ca781610b7d565b8114610cb257600080fd5b5056fea2646970667358221220ab0d039a9f84fe698eedcd1cdaa6241b43ed51a9c752ef2383b68f8fa9bbdcee64736f6c63430008030033",
  "linkReferences": {},
  "deployedLinkReferences": {}
}